:100000008DC00000BBC00000B9C00000B7C0000038
:10001000B5C00000B3C00000B1C00000AFC0000018
:10002000ADC00000ABC00000A9C00000A7C0000028
:10003000A5C00000A3C00000A1C000009FC0000038
:100040009DC000009BC0000099C0000097C0000048
:100050004EC3000093C0000091C000008FC000009C
:100060008DC000000C944F0B0C94250B87C0000032
:1000700085C0000083C0000081C000007FC0000078
:100080007DC000007BC0000079C0000077C0000088
:1000900075C0000073C0000071C000006FC0000098
:1000A0006DC000006BC0000069C0000067C00000A8
:1000B00065C0000063C0000061C000005FC00000B8
:1000C0005DC000005BC0000059C0000057C00000C8
:1000D00055C0000053C0000051C000004FC00000D8
:1000E0004DC00000E2045D06E904B606B606B60699
:1000F000F004B606B606B606B60671060105B606E3
:100100006706B606B606B30553076208360907093F
:10011000B309210A2C0A2F0AB103610A11241FBE58
:10012000CFEFD1E2DEBFCDBF00E00CBF13E0A0E017
:10013000B2E0EEE7F9E100E00BBF02C007900D92DC
:10014000A633B107D9F720E1A6E3B3E001C01D92C1
:10015000A630B207E1F710E0CEE8D0E000E006C03C
:1001600021970109802FFE010E94650CCC38D10730
:1001700080E00807A9F79CD30C94BD0C41CF16BCB6
:1001800023E025BD22E024BD29EF27BD009729F0FB
:10019000A99BFECFA99A0197D9F7089516BC21E033
:1001A00025BD22E024BD2FE027BD009729F0A99BA3
:1001B000FECFA99A0197D9F708950F93FC016083A8
:1001C00041832283038314820F910895FC01DB0194
:1001D0008C91808311968C911197818312968C91CA
:1001E0001297828313968C9183830895CF93DF9324
:1001F00000D01F921F92CDB7DEB7FC012083318360
:100200004283538364830F900F900F900F900F9051
:10021000DF91CF9108950F931F93CF93DF9300D079
:100220001F921F92CDB7DEB7242F30E0FC01428130
:10023000241B31094CE3429F8001439F100D112480
:10024000252F30E08381A901481B5109040F151F98
:1002500068E070E082E092E00E94100B802F0E9424
:10026000F40A8AE00E94F40AC8010F900F900F90E0
:100270000F900F90DF91CF911F910F9108950F93E1
:100280001F93CF93DF9300D01F921F92CDB7DEB79D
:10029000FC01832F30E09081291B3109A0EAB5E0F1
:1002A0002A9F80012B9F100D3A9F100D11247CE393
:1002B000709F9001719F300D112490E01181811B7E
:1002C00091098A9F80018B9F100D9A9F100D112418
:1002D000A8E0B7E00A9FC0010B9F900D1A9F900DF8
:1002E0001124280F391FA42FB0E08281A81BB10967
:1002F00000E11EE0A09FC001A19F900DB09F900D56
:100300001124280F391F452F50E08381481B5109C4
:10031000749FC001759F900D1124280F391F70E044
:100320008481AB01481B5109CA01820F931F0F90B2
:100330000F900F900F900F90DF91CF911F910F9121
:100340000895FC018481680F64836C3378F089E838
:10035000689F812D11248295869587709381980FCF
:1003600093832CE3829F60191124648383818C33EF
:1003700078F099E8899F912D112492959695977020
:100380002281290F22832CE3929F801911248383D9
:100390008281883170F09BEA899F912D112492957A
:1003A0009F702081290F208328E1929F80191124BA
:1003B000828380818E3170F099E8899F912D11247C
:1003C00092959F702181290F21832EE1929F8019A0
:1003D000112480830895CF93DF9300D01F921F9242
:1003E000CDB7DEB7DC0129833A834B835C836D8311
:1003F00081E01D968C931D971E968C931E971F96D9
:100400001C921F9750961C92509751961C92519790
:1004100053961C921E92529755961C92559756963B
:100420001C92569783E054968C935497FD019D013E
:10043000295F3F4F83E28193E217F307E1F71796B5
:100440001C92179785E0FE013196189601900D9247
:100450008A95E1F70F900F900F900F900F90DF911A
:10046000CF910895EF92FF920F931F93CF93DF9355
:1004700000D01F921F92CDB7DEB77C0129833A834B
:100480004B835C836D83C7010896C5DE9C01803178
:100490009105ECF08D33910544F4F701828993893D
:1004A0000AE010E0081B190B14C0CC976EE170E055
:1004B0000E94520C8B01000F111F000F111F025FD1
:1004C0001F4FF70182899389081B190B02C000E0B6
:1004D00010E0F7018589882371F08689882359F017
:1004E000C9016EE170E00E94520C6F5F7F4F660F92
:1004F000771F060F171F29813A814B815C816D811F
:10050000C7010D9688DE409714F400E010E06DE01E
:1005100070E08AE092E00E94100B802F0E94F40AA3
:100520008AE00E94F40AC8010F900F900F900F907C
:100530000F90DF91CF911F910F91FF90EF90089551
:100540000F931F93CF93DF9300D01F921F92CDB7CD
:10055000DEB7FC0109831A832B833C834D83161677
:1005600017063CF49C81842F058716872787908B7C
:10057000818B82899389860F971F938B828B0F9033
:100580000F900F900F900F90DF91CF911F910F91CF
:100590000895FC018081893449F48181843441F4D7
:1005A00081E09281953429F080E0089580E00895FB
:1005B00080E00895FB013081FC01208132130FC0DF
:1005C000FB013196DC011196695F7F4F91918D910E
:1005D000981307C0E617F707C9F781E0089580E090
:1005E000089580E00895CF93DF93EC01FB01DC01D7
:1005F0009B01295F3F4F91919D93E217F307D9F734
:100600001F82DF91CF910895469A82B9469888E279
:1006100090E0C4CD08954798F7CF0895479AF4CF56
:10062000089581E0F8DF82E796E0B8CD08958FEF76
:1006300081B93E9A3F9A88E3EEDF8EE0ECDF86E0F8
:10064000EADFEFCF08950F931F93CF93DF938C01D1
:10065000EB0180E8E0DF219711F480ECDCDF01158D
:10066000110541F0C0E0D0E084E1D5DF2196C0174C
:10067000D107D1F7DF91CF911F910F9108950F937B
:100680001F93CF93DF93EC01FC01319620E030E023
:100690002F5F3F4F91919111FBCF2115310551F003
:1006A0008E01C20FD31FF80181918F01B7DF0C17A4
:1006B0001D07C9F7DF91CF911F910F910895CF9337
:1006C000DF93EC01862F642F70E090E0BCDFCE0159
:1006D000D6DFDF91CF910895CF93C82F862F642F57
:1006E00070E090E0B0DF8C2F99DFCF9108951F92DA
:1006F0000F920FB60F9211240BB60F922F933F93C8
:100700004F935F936F937F938F939F93AF93BF9319
:10071000EF93FF938CED9BE0909385008093840092
:1007200061E086E393E00DDEFF91EF91BF91AF9121
:100730009F918F917F916F915F914F913F912F91F9
:100740000F900BBE0F900FBE0F901F90189581E079
:1007500080936F0078941092800084E080938100F1
:1007600008950F9300E026E041E061E086E393E026
:1007700024DD0F9108951092010281E08093000220
:100780008093030E0895CF93C82F62E070E086E156
:1007900092E046D78C2F28D782E090E0F0DCCF9112
:1007A0000895CF93C82F62E070E089E192E038D7D6
:1007B0008C2F1AD782E090E0E2DCCF91089581E39C
:1007C000F0DF82E3EEDF85E08093010281E0809339
:1007D00000021092030E0895EF92FF920F931F9361
:1007E000CF93DF937C010BE313E0C0E0D0E0B701CF
:1007F000C801E0DE811109C02196095E1F4FC8378C
:10080000D105A9F78FEF9FEF02C08C2F9D2FDF91AD
:10081000CF911F910F91FF90EF900895CF93C82F24
:1008200062E070E08FE192E0FBD68C2FDDD6CF91B5
:100830000895CF93DF93FC01413329F0423321F136
:100840004033C9F41FC091E020C0ED91F0E020E0FA
:1008500030E0AF01022E02C0559547950A94E2F7A9
:1008600040FD8F5F2F5F3F4F2830310591F7AC1768
:10087000BD0759F702C09FEF80E0FB01E90FF11DB2
:10088000808313C090E001C092E0292F30E0D901AD
:10089000AA0FBB1FAA0FBB1F2A0F3B1FDF01A20F0E
:1008A000B31FED01259680E0D0CFDF91CF91089561
:1008B000CF93DF93CDB7DEB7C35CD1090FB6F89401
:1008C000DEBF0FBECDBF00E020E041E061E0CE0121
:1008D0008F5B9F4F72DC20E041E061E0CE018A5BDC
:1008E0009F4F6BDC20E041E061E0CE01855B9F4FD4
:1008F00064DCFE01E256FF4FCF010F961082118299
:100900001282138214823596E817F907B9F7C35596
:10091000DF4F1882CD5AD040C255DF4F1882CE5AD1
:10092000D040C155DF4F1882CF5AD04000E020E0C0
:1009300041E061E0CE0180559F4F3FDC20E041E087
:1009400061E0CE018B549F4F38DC20E041E061E054
:10095000CE0186549F4F31DC279A809A819A829AE1
:10096000EBD565DEF4DE0F2EF7E0EF2EF02D412CF7
:10097000612CF12C512C712CCC24CA94DC2CAA248F
:10098000AA94BA2C0F2EFEE92F2E312CF02D2C0E0E
:100990003D1E85E0280E311CDED5882309F4E6C112
:1009A000E0D5833509F0E2C1DCD590E0FC01E254EA
:1009B000F109E231F10508F0D9C18827EE58FF4F5F
:1009C0008F4F83C762E070E082E292E029D6F7DEC3
:1009D000CDC162E070E085E292E022D6CCDEC6C1F5
:1009E00064E070E0CE010196EAD5BE016F5F7F4FF3
:1009F00086E393E0EBDB62E070E088E292E010D601
:100A0000B5C1AFD5982E68E070E0CE010196D7D57C
:100A100062E070E08BE292E003D640E060E0CE015D
:100A200001964DDECE010196D7DE8C0185ED92E078
:100A300026DE0F3F9FEF190781F48EE292E0CCDEB5
:100A40008C0127E1209FC001219F900D1124BE0140
:100A50006F5F7F4F855C9C4FC6DD85ED92E00FDEBA
:100A60004AE0BE0161547F4FC80154D7CE01815482
:100A70009F4F05DE85ED92E002DE88EE93E07FDB9E
:100A8000E1E39E1621F0F2E39F1631F16FC187E199
:100A9000809FF001819FF00D1124E55CFC4F148ACA
:100AA0002091360330913703409138035091390338
:100AB00060913A03CE018F5B9F4F98DB8091030ECC
:100AC000882321F081E35FDE580150C1AADD86E36F
:100AD00092E0D5DD58014AC187E1809FF001819FF6
:100AE000F00D1124E55CFC4F82E0848B20913603ED
:100AF00030913703409138035091390360913A03A4
:100B0000CE018A5B9F4F72DB8091030E882329F10F
:100B100027E1209FC001219F900D112420913603D1
:100B200030913703409138035091390360913A0373
:100B3000855C9C4F97DC181619065CF472DD81E425
:100B400092E09DDD81E080930102809300026801C4
:100B50000DC182E318DE680109C163DD86E392E01E
:100B60008EDD680103C1FDD4E82E68E070E0CE019F
:100B7000019625D562E070E085E592E051D5CE0181
:100B800001962ADE8C0180ED97E0F9DA8E2D09DEE0
:100B900081E3E81629F092E3E91609F464C0E2C0A3
:100BA000C355DF4FB880CD5AD04080E337DE84E6AE
:100BB00090E0E5DA40E3BE0163557F4FCE018256F7
:100BC0009F4F37DEEE24E394C355DF4F8881CD5A23
:100BD000D0408B1101C0E12C27E1209FC001219F53
:100BE000900D1124855C9C4FD4DC91E0811190E044
:100BF000992369F0EE2059F087E1809FF001819FF1
:100C0000F00D1124E55CFC4F81E0858B09C087E184
:100C1000809FF001819FF00D1124E55CFC4F158A47
:100C200027E1209FC001219F900D1124FC01E55C6C
:100C3000FC4F21E0248B2091360330913703409103
:100C400038035091390360913A038D5B9C4FCEDAA3
:100C500086E0809301020F2EF7E0EF2EF02DAA24FC
:100C6000AA94BA2C83C087E1809FF001819FF00D88
:100C70001124E55CFC4F8589882351F087E1809F32
:100C8000F001819FF00D1124E55CFC4F81E0868B23
:100C900087E1809FF001819FF00D1124E55CFC4FFE
:100CA00083E0848B87E0809301020F2EF7E0EF2E24
:100CB000F02DCC24CA94DC2C59C053D4682F70E09A
:100CC000CE01825A9F4F7BD4662463944FC049D48F
:100CD000682F70E0CE0182589F4F71D44424439412
:100CE00045C03FD48133C1F0823339F1803309F0FC
:100CF0003DC037D465E070E0CE0182569F4F5FD48F
:100D000040E3BE0163557F4FCE0182569F4F91DD78
:100D1000EE2DEE7FEE2E2AC024D465E070E0C101F6
:100D20004ED441E3BE0163557F4FCE0182569F4FA3
:100D300080DDFE2DFD7FEF2E19C013D465E070E03D
:100D40008EE990E08C0F9D1F0A9639D442E3BE01D4
:100D500063557F4FCE0182569F4F6BDD8E2D8B7F6B
:100D6000E82E04C00F2EF7E0EF2EF02DF110A3C3F4
:100D7000809138038630D8F48091030E811104C02D
:100D800080910102853079F01ADDFF24F39493C33A
:100D90008091030E882321F080910102853031F487
:100DA000EADCF12C04C0FF24F39401C0F12C9FEF86
:100DB000A916B90689F12091360330913703409185
:100DC00038035091390360913A03CE018A5B9F4FFB
:100DD00056DA899744F080913A0380FF02C02F9A37
:100DE00003C02F9801C02F9820913603309137030C
:100DF000409138035091390360913A03CE018F5BE3
:100E00009F4F3DDACD9744F081E3CBDC83E08093C4
:100E10003803AA24AA94BA2CEFEFCE16DE06B1F15D
:100E200020913603309137034091380350913903B4
:100E300060913A03CE018A5B9F4F21DA89976CF06B
:100E400060E170E088E592E0EBD380913A0380FFA7
:100E500002C02F9A03C02F9801C02F98209136030B
:100E600030913703409138035091390360913A0330
:100E7000CE018A5B9F4F03DACD9744F082E391DC89
:100E800081E080933803CC24CA94DC2C8091010249
:100E900090E08830910508F0E4C2FC018827EC5707
:100EA000FF4F8F4F12C5E0FE02C080E3B7DCE1FECA
:100EB00002C081E3B3DCE2FE02C082E3AFDC20913A
:100EC00036033091370340913803509139036091D4
:100ED0003A03CE0180559F4FD2D940970CF47DC084
:100EE00020913603309137034091380350913903F4
:100EF00060913A03CE0180559F4F78D992DB40E054
:100F000060E088E692E0DBDB0F2EF4E28F2EF02D1E
:100F1000C355DF4F8881CD5AD040982C981A1DECCC
:100F2000919E012D112406950695069580E3800F6C
:100F300075DB000F802F880F880F080F892D801B0D
:100F4000805D6CDB88EE93E01AD96BDB40E060E0FB
:100F500086E792E0B4DBC255DF4F8881CE5AD0409D
:100F6000982C981A919E012D1124069506950695A8
:100F700080E3800F53DB000F802F880F880F080F4E
:100F8000892D801B805D4ADB88EE93E0F8D849DB31
:100F900040E060E085E892E092DBC155DF4F888158
:100FA000CF5AD040082D081B019F112D11241695F2
:100FB0001695169580E3810F31DB110F812F880F75
:100FC000880F180F802F811B805D28DB88EE93E04F
:100FD000D6D881E08093000204C08091000288236B
:100FE00041F01FDB40E060E084E992E068DB1092B2
:100FF000000220913603309137034091380350911D
:10100000390360913A03CE01855B9F4F38D918169A
:1010100019060CF026C261E070E080E090E013DB7E
:1010200061E070E080E090E00EDB809138038A3070
:1010300010F480E3F3DA06E313E0F80182814AE07A
:10104000BE0161547F4F90E065D4CE0181549F4F23
:1010500016DB8AE3E3DAF80183818A3010F480E357
:10106000DDDA06E313E0F80183814AE0BE01615452
:101070007F4F90E04FD4CE0181549F4F00DB8AE335
:10108000CDDAF80184818A3010F480E3C7DA8091E8
:101090003A034AE0BE0161547F4F90E03BD4CE0159
:1010A00081549F4FECDA2091360330913703409101
:1010B00038035091390360913A03CE01855B9F4F0D
:1010C00095D8CFC180910002882309F461C087E1DF
:1010D0008C9DF0018D9DF00D1124E55CFC4F858900
:1010E0008823C9F09EDA40E060E084EA92E0E7DA23
:1010F00041E060E080EB92E0E2DA87E18C9DF00174
:101100008D9DF00D1124E55CFC4F8689882319F034
:1011100081EC92E0B4DA85DA40E060E08DEC92E0B8
:10112000CEDA27E12C9DC0012D9D900D1124209138
:101130003603309137034091380350913903609161
:101140003A03855C9C4F8ED94AE0BE0161547F4FC3
:10115000E1D3CE0181549F4F92DA41E060E087ED08
:1011600092E0ADDA10920002772091F08E01005BE0
:101170001F4F4801870C911C61E070E080E090E017
:1011800062DAF80181918F0149DA80169106A1F7A0
:1011900052D38F3F09F465C18A3281F4772009F474
:1011A00060C17A94E0E5F0E0EC0FFD1FE70DF11D62
:1011B000108241E0672D80E28FDA53C18332D9F487
:1011C000F6E07F124EC167961FAE679762E070E04F
:1011D0008CE192E025D287E007D267E070E0CE0193
:1011E000805B9F4F1DD281E08093000283E080935B
:1011F0000102712C36C1E0E5F0E0EC0FFD1FE70DB8
:10120000F11D808341E0672D67DA73942AC18091D4
:101210000002882341F005DA40E060E08EED92E0C4
:101220004EDA10920002662009F41BC1FAD940E0A0
:1012300060E0CE01825A9F4F42DA88EE93E00E942E
:10124000BF0081E0809300026DEE72E0CE01825A11
:101250009F4F57D3892B21F410920102612C01C1B9
:1012600082E080930102612C512CFBC0809100022E
:10127000882371F0D6D940E060E0CE01825A9F4FBA
:101280001EDA41E060E08DEF92E019DA1092000280
:10129000D2D28F3F09F4E5C0833209F03DC086E029
:1012A0005812DFC06E961FAE6E9727E12C9DC001CD
:1012B0002D9D900D112420913603309137034091DC
:1012C00038035091390360913A03855C9C4FCAD82A
:1012D0004AE0BE0161547F4F1DD3CF53DF4F1882C8
:1012E000C15CD04062E070E084E093E099D18AE094
:1012F0007BD167E070E0CE01895A9F4F91D163E0C6
:1013000070E0CE0181549F4F8BD184E08093010225
:1013100081E080930002A5C08A3299F4552009F437
:10132000A0C01FEF150DE7E5F0E0EC0FFD1FE10F8A
:10133000F11D108265E0650D41E080E2CDD9512EAE
:1013400090C095E0951508F48CC0E7E5F0E0EC0F4F
:10135000FD1FE50DF11D808366E0650D41E08AE229
:10136000BBD953947EC080910002882341F059D9A3
:1013700040E060E08EED92E0A2D91092000244209D
:1013800009F46FC04ED940E060E0CE0182589F4F13
:1013900096D988EE93E00E94BF0081E0809300021E
:1013A0006DEE72E0CE0182589F4FABD2892B21F4B3
:1013B00010920102412C55C067E073E0CE018258C3
:1013C0009F4F9FD2892BF1F427E12C9DC0012D9DC9
:1013D000900D1124009136031091370320913803AA
:1013E0003091390340913A0360E070E0855C9C4F96
:1013F000A7D882E3C8D91092010281E0809300024D
:10140000412C2FC06AE073E0CE0182589F4F79D201
:10141000892B21F410920102412C23C069E173E071
:10142000CE0182589F4F6DD2892B31F482E0809398
:101430000102412C512C15C082E080930102412C05
:1014400010C080910002882361F0EBD841E064E095
:1014500088E293E034D905C01092010202C01092D4
:1014600001022091360330913703409138035091A7
:10147000390360913A03CE018B549F4F0E943F0184
:101480008997A4F062E070E082E393E0C9D02091F4
:1014900036033091370340913803509139036091FE
:1014A0003A03CE018B549F4F0E94F60082E390E0F6
:1014B0000E94BF0071CA80913803863008F068CC62
:1014C00076CCCF92DF92EF92FF920F93CF93DF9380
:1014D00000D01F921F92CDB7DEB70F2EFBE3EF2E89
:1014E000F3E0FF2EF02D0F2EF3E0CF2EFEE0DF2EE7
:1014F000F02D00E020E041E061E0CE0101960E9485
:10150000DD0029813A814B815C816D81C7010E9498
:10151000EB0187E1E80EF11CEC14FD0451F70F908C
:101520000F900F900F900F90DF91CF910F91FF9040
:10153000EF90DF90CF90089583E38093C4001092E2
:10154000C5001092C00088EB8093C100789486E0BB
:101550008093C20008958091050E9091040E891B1E
:1015600008959091040E8091050E981771F0E92F5F
:10157000F0E0EA5FF14F80819F5F9F3F19F0909309
:10158000040E08951092040E089581E090E00E94E8
:10159000BF009091040E8091050E981771F0E92F0D
:1015A000F0E0EA5FF14F80819F5F9F3F19F09093D9
:1015B000040E08951092040E089580E008950F938C
:1015C0001F93CF93DF93161617064CF48C01EC0192
:1015D000060F171FC6DF8993C017D107D9F7DF9110
:1015E000CF911F910F9108959091060FE92FF0E090
:1015F000E95FF04F80839F5F9F3F19F09093060F44
:1016000002C01092060F8091C00085FF08C0E0EC78
:10161000F0E080818F7D8083808180628083089567
:101620000F931F93CF93DF93161617064CF48C017C
:10163000EC01060F171F8991D7DFC017D107D9F723
:10164000DF91CF911F910F9108951F920F920FB6C6
:101650000F9211240BB60F928F93EF93FF93E091AB
:10166000050F8091060FE81781F0F0E0E95FF04F79
:1016700080818093C6008091050F8F5F8F3F19F0A6
:101680008093050F02C01092050FFF91EF918F918B
:101690000F900BBE0F900FBE0F901F9018951F92CA
:1016A0000F920FB60F9211240BB60F928F939F9348
:1016B000EF93FF938091050E9091C600E82FF0E024
:1016C000EA5FF14F90838F5F8F3F19F08093050E93
:1016D00002C01092050EFF91EF919F918F910F9094
:1016E0000BBE0F900FBE0F901F901895E0E0F1E039
:1016F0008081908194FF05C083FB882780F98195C4
:1017000001C081E09091000195FF82E0909100017D
:1017100096FF83E00895FF920F931F93CF93DF937B
:10172000082FC0E010E0D1E0F12CE0DF801711F0CD
:10173000CF5F01C0C0E08D2FCA3008F48F2D81111A
:101740000CC08D2F143608F48F2D811106C01F5F39
:101750008AE090E00E94BF00E8CF8AE090E00E941B
:10176000BF00DF91CF911F910F91FF900895CF930C
:10177000DF93BCDFD82F8F3F79F0CAE0B7DFD813F3
:101780000DC0C15021F48D2FC6DF8D2F08C08AE017
:1017900090E00E94BF00F2CF8FEF01C08FEFDF918A
:1017A000CF9108958130B1F028F0823019F1833063
:1017B00089F13FC0613041F028F0623039F0633088
:1017C00039F037C091E335C092E333C093E331C0C1
:1017D00091E42FC0613041F028F0623039F063307D
:1017E00039F027C094E325C095E323C096E321C0D8
:1017F00092E41FC0613041F028F0623039F063306C
:1018000039F017C097E315C098E313C099E311C0EE
:1018100093E40FC0613041F028F0623039F063305A
:1018200039F007C09AE205C090E303C093E201C01B
:1018300094E4892F0895E1E0F1E080818778808346
:10184000E2E0F1E080818867808384B18F6084B9B1
:10185000289885B18E6085B98ADF8F3F19F060E0E6
:10186000A1CF0895299885B18D6085B980DF8F3F1C
:1018700019F061E097CF08952A9885B18B6085B9FA
:1018800076DF8F3F19F062E08DCF08952B9885B1F8
:10189000876085B96CDF8F3F19F063E083CF0895CF
:1018A0008FEF089597FB072E16F4009406D077FD6E
:1018B00008D013D007FC05D03EF4909581959F4F3A
:1018C0000895709561957F4F0895EE0FFF1F881F53
:1018D0008BBF0790F691E02D1994AA1BBB1B51E119
:1018E00007C0AA1FBB1FA617B70710F0A61BB70B90
:1018F000881F991F5A95A9F780959095BC01CD0135
:101900000895FB01DC018D91019080190110D9F33C
:10191000990B0895BB274A3031F4992322F4BDE294
:10192000909581959F4F01C0BB27FB015527AA27A2
:10193000880F991FAA1FA41710F0A41B839550515C
:10194000B9F7A05DAA3308F0A95DA193009779F7D4
:10195000B111B1931192CB0100C0DC01FC01672FE2
:1019600071917723E1F7329704C07C916D93708376
:0E1970006291AE17BF07C8F30895F894FFCF39
:10197E000105646966664D696E0063616C63756C22
:10198E00615067746F004541004546004543004570
:10199E004D00454200454400454800454E00232376
:1019AE002323232323004465736C696761646F21CD
:1019BE00005265616C697A65206F20506167616DB8
:1019CE00656E746F00455300636F6D65E76120614E
:1019DE00207069736361720056616761732054658C
:1019EE007272656F3A005661676173203120616EC5
:1019FE006461723A005661676173203220616E64D1
:101A0E0061723A004573746163696F6E614D69630B
:101A1E00726F73005661676120496C6567616C0077
:101A2E004D756C7461207365207265696E636964AF
:101A3E00005265696E636964656E74650050616716
:101A4E007565205224200043415254414F00457386
:101A5E007065726120526573702E2E2E0043617276
:101A6E0074616F20496E76616C69646F0053656EA8
:101A7E0068613A004550004F4B0053616C646F2013
:101A8E00496E76616C69646F0053656E68612049BA
:101A9E006E76616C696461004465736C696761643C
:061AAE006F00454F00002F
:00000001FF
