:100000008FC00000BDC00000BBC00000B9C0000030
:10001000B7C00000B5C00000B3C00000B1C0000010
:10002000AFC00000ADC00000ABC00000A9C0000020
:10003000A7C00000A5C00000A3C00000A1C0000030
:100040009FC000009DC000009BC0000099C0000040
:1000500041C3000095C0000093C0000091C00000A3
:100060008FC000000C94780C0C944E0C89C00000DA
:1000700087C0000085C0000083C0000081C0000070
:100080007FC000007DC000007BC0000079C0000080
:1000900077C0000075C0000073C0000071C0000090
:1000A0006FC000006DC000006BC0000069C00000A0
:1000B00067C0000065C0000063C0000061C00000B0
:1000C0005FC000005DC000005BC0000059C00000C0
:1000D00057C0000055C0000053C0000051C00000D0
:1000E0004FC0000006058F060D05ED06ED06ED0676
:1000F0001405ED06ED06ED06ED06A3062505ED0655
:100100009906ED06ED06E50593073B08C5085A0973
:10011000370A040AD60A490B550B580BA4038A0B5D
:1001200011241FBECFEFD1E2DEBFCDBF00E00CBF78
:1001300013E0A0E0B2E0E0EDFBE100E00BBF02C0A5
:1001400007900D92AA37B107D9F720E1AAE7B3E0EB
:1001500001C01D92AA34B207E1F710E0C0E9D0E077
:1001600000E006C021970109802FFE010E948E0D3C
:10017000CE38D10780E00807A9F7B4D30C94E60D78
:100180003FCF16BC23E025BD22E024BD29EF27BDCB
:10019000009729F0A99BFECFA99A0197D9F7089556
:1001A00016BC21E025BD22E024BD2FE027BD00972D
:1001B00029F0A99BFECFA99A0197D9F708950F932B
:1001C000FC01608341832283038314820F9108958D
:1001D000FC01DB018C91808311968C9111978183B6
:1001E00012968C911297828313968C918383089533
:1001F000CF93DF9300D01F921F92CDB7DEB7FC01E3
:10020000208331834283538364830F900F900F9038
:100210000F900F90DF91CF9108950F931F93CF937D
:10022000DF9300D01F921F92CDB7DEB7242F30E0AE
:10023000FC014281241B31094CE3429F8001439F12
:10024000100D1124252F30E08381A901481B51098D
:10025000040F151F68E070E082E092E00E94390C04
:10026000802F0E941D0C8AE00E941D0CC8010F9077
:100270000F900F900F900F90DF91CF911F910F91E2
:100280000895CF93DF9300D01F921F92CDB7DEB7B2
:10029000FC01242F30E08281281B3109A0E1BEE05F
:1002A0002A9FC0012B9F900D3A9F900D1124252F5E
:1002B00030E04381241B31097CE3729FA001739FCE
:1002C000500D1124840F951F70E02481621B710969
:1002D000860F971F0F900F900F900F900F90DF9148
:1002E000CF910895FC018481680F64836C3378F0AA
:1002F00089E8689F812D1124829586958770938166
:10030000980F93832CE3829F601911246483838167
:100310008C3378F099E8899F912D112492959695C8
:1003200097702281290F22832CE3929F8019112438
:1003300083838281883170F09BEA899F912D1124FB
:1003400092959F702081290F208328E1929F801928
:100350001124828380818E3170F099E8899F912DDC
:10036000112492959F702181290F21832EE1929F64
:100370008019112480830895CF93DF9300D01F92BA
:100380001F92CDB7DEB7DC0129833A834B835C83B0
:100390006D8381E01D968C931D971E968C931E97FE
:1003A0001F961C921F9750961C92509751961C9224
:1003B000519753961C921E92529755961C925597A0
:1003C00056961C92569783E054968C935497FD0151
:1003D0009D01295F3F4F83E28193E217F307E1F725
:1003E00017961C92179785E0FE013196189601909A
:1003F0000D928A95E1F70F900F900F900F900F904C
:10040000DF91CF910895EF92FF920F931F93CF93B7
:10041000DF9300D01F921F92CDB7DEB77C012983F6
:100420003A834B835C836D83C7010896F6DE9C019B
:1004300080319105ECF08D33910544F4F701828908
:1004400093890AE010E0081B190B14C0CC976EE1E9
:1004500070E00E947B0D8B01000F111F000F111F18
:10046000025F1F4FF70182899389081B190B02C095
:1004700000E010E0F7018589882371F086898823E0
:1004800059F0C9016EE170E00E947B0D6F5F7F4FF4
:10049000660F771F060F171F29813A814B815C81F8
:1004A0006D81C7010D96B9DE409714F400E010E0AD
:1004B0006DE070E08AE092E00E94390C802F0E948B
:1004C0001D0C8AE00E941D0CC8010F900F900F9028
:1004D0000F900F90DF91CF911F910F91FF90EF90B0
:1004E00008950F931F93CF93DF9300D01F921F9215
:1004F000CDB7DEB7FC0109831A832B833C834D8380
:10050000161617063CF49C81842F058716872787CB
:10051000908B818B82899389860F971F938B828B17
:100520000F900F900F900F900F90DF91CF911F9130
:100530000F910895FC018081893449F481818434CC
:1005400041F481E09281953429F080E0089580E0C3
:10055000089580E00895FB013081FC012081321371
:100560000FC0FB013196DC011196695F7F4F9191BD
:100570008D91981307C0E617F707C9F781E0089532
:1005800080E0089580E00895FB013081FC01238123
:1005900032130EC0DB01119634966C5F7F4F9D9134
:1005A0008191981307C0A617B707C9F781E008958E
:1005B00080E0089580E00895CF93DF93EC01FB0184
:1005C000DC019B01295F3F4F91919D93E217F30757
:1005D000D9F71F82DF91CF910895469A82B9469844
:1005E00088E290E0DDCD08954798F7CF0895479AC7
:1005F000F4CF08950F931F93CF93DF938C01EB01FA
:1006000080E8F2DF219711F480ECEEDF011511058F
:1006100041F0C0E0D0E084E1E7DF2196C017D107C8
:10062000D1F7DF91CF911F910F9108950F931F93F1
:10063000CF93DF93EC01FC01319620E030E02F5F97
:100640003F4F91919111FBCF2115310551F08E0152
:10065000C20FD31FF80181918F01C9DF0C171D074D
:10066000C9F7DF91CF911F910F910895CF93DF9339
:10067000EC01862F642F70E090E0BCDFCE01D6DF66
:10068000DF91CF910895CF93C82F862F642F70E00C
:1006900090E0B0DF8C2FABDFCF91089540E060E0B9
:1006A00086E192E0E3DF41E060E086E192E0DEDFB8
:1006B00060E070E080E090E09DCF08958FEF81B919
:1006C0003E9A3F9A88E390DF8EE08EDF86E08CDFF3
:1006D000E5CF08951F920F920FB60F9211240BB61B
:1006E0000F922F933F934F935F936F937F938F93CB
:1006F0009F93AF93BF93EF93FF938CED9BE0909309
:1007000085008093840061E08AE793E0EBDDFF9150
:10071000EF91BF91AF919F918F917F916F915F9179
:100720004F913F912F910F900BBE0F900FBE0F90E6
:100730001F90189581E080936F007894109280004C
:1007400084E08093810008950F9300E026E041E06B
:1007500061E08AE793E033DD0F9108951092010282
:1007600081E0809300028093470E0895CF93C82FB5
:1007700062E070E087E292E00E94390C8C2F0E94C8
:100780001D0C82E090E0FDDCCF910895CF93C82F3F
:1007900062E070E08AE292E00E94390C8C2F0E94A5
:1007A0001D0C82E090E0EDDCCF91089581E3EEDF57
:1007B00082E3ECDF87E08093010281E08093000216
:1007C0001092470E0895EF92FF920F931F93CF93CD
:1007D000DF937C010FE713E0C0E0D0E0B701C80170
:1007E000BADE811109C02196095E1F4FC837D105B5
:1007F000A9F78FEF9FEF02C08C2F9D2FDF91CF9134
:100800001F910F91FF90EF900895EF92FF920F9339
:100810001F93CF93DF937C010FE713E0C0E0D0E09C
:10082000B701C801B1DE811109C02196095E1F4FD1
:10083000C837D105A9F78FEF9FEF02C08C2F9D2FEE
:10084000DF91CF911F910F91FF90EF900895CF937B
:10085000C82F62E070E080E392E00E94390C8C2F98
:10086000ECD7CF910895CF93DF93FC01413329F06A
:10087000423321F14033C9F41FC091E020C0ED9113
:10088000F0E020E030E0AF01022E02C05595479520
:100890000A94E2F740FD8F5F2F5F3F4F283031050C
:1008A00091F7AC17BD0759F702C09FEF80E0FB013D
:1008B000E90FF11D808313C090E001C092E0292F61
:1008C00030E0D901AA0FBB1FAA0FBB1F2A0F3B1F85
:1008D000DF01A20FB31FED01259680E0D0CFDF919D
:1008E000CF910895CF93DF93CDB7DEB7CB5CD1091D
:1008F0000FB6F894DEBF0FBECDBF00E020E041E0B0
:1009000061E0CE018F5B9F4F5ADC20E041E061E067
:10091000CE018A5B9F4F53DC20E041E061E0CE01D5
:10092000855B9F4F4CDCFE01ED55FF4FCF010F96CD
:10093000108211821282138214823596E817F90709
:10094000B9F7CE54DF4F1882C25BD040CD54DF4F91
:100950001882C35BD040CC54DF4F1882C45BD040B8
:1009600000E020E041E061E0CE018B549F4F27DCA6
:1009700020E041E061E0CE0186549F4F20DC20E082
:1009800041E061E0CE0181549F4F19DC279A809AA3
:10099000819A829A81B3887F81BBF7D68FDECADEC7
:1009A0000F2EF7E06F2EF02D212C412C712CC75308
:1009B000DF4F1882C95CD040512C312CEE24EA94D0
:1009C000FE2CCC24CA94DC2C83EA90E08C0F9D1F73
:1009D0000596C653DF4F99838883CA5CD040E4D61E
:1009E000882309F4FAC1E6D6833509F0F6C1E2D6C8
:1009F00090E0FC01E254F109E231F10508F0EDC1AB
:100A00008827EE58FF4F8F4F0C948E0D62E070E0F8
:100A100083E392E02ED7CADEE0C162E070E086E3B5
:100A200092E027D79BDED9C164E070E0CE01019649
:100A3000EFD6BE016F5F7F4F8AE793E0C9DB62E0CC
:100A400070E089E392E015D7C8C1B4D6B82E68E04B
:100A500070E0CE010196DCD662E070E08CE392E0BB
:100A600008D740E060E086E192E000DE40E060E030
:100A7000CE010196FBDDCE010196A5DE8C0185E25B
:100A800092E0D4DD0F3F9FEF190781F48FE392E0EE
:100A90009ADE8C0127E1209FC001219F900D112437
:100AA000BE016F5F7F4F81589C4F86DD85E292E0EB
:100AB000BDDD4AE0BE016C537F4FC8010E94B30DFB
:100AC000CE018C539F4FB2DD85E292E0AFDD88EE20
:100AD00093E057DBE1E3BE1621F0F2E3BF1641F1EC
:100AE0007CC187E1809FF001819FF00D1124E158C6
:100AF000FC4F148A138A128A20917A0330917B0367
:100B000040917C0350917D0360917E03CE018F5B09
:100B10009F4F6EDB8091470E882321F081E326DE14
:100B200068015BC1BBDD87E492E080DD680155C1EF
:100B300087E1809FF001819FF00D1124E158FC4F67
:100B400082E0848B20917A0330917B0340917C0377
:100B500050917D0360917E03CE018A5B9F4F48DBFD
:100B60008091470E882359F127E1209FC001219FE2
:100B7000900D112420917A0330917B0340917C03E6
:100B800050917D0360917E0381589C4F3CDC181688
:100B900019068CF483DD82E592E048DD41E060E0F7
:100BA00086E692E063DD88EE93E0EBDA81E0809305
:100BB0000002780112C182E3D9DD78010EC16EDD39
:100BC00087E492E033DD780108C1F4D5B82E68E0FF
:100BD00070E0CE0101961CD662E070E082E792E000
:100BE00048D6CE010196EFDD8C0180ED97E0C9DAA1
:100BF0008B2DCCDD81E3B81629F092E3B91609F408
:100C000064C0E7C0CE54DF4FC880C25BD04080E3F1
:100C10001EDE84E690E0B5DA40E3BE016E547F4FFD
:100C2000CE018D559F4F1FDEDD24D394CE54DF4F70
:100C30008881C25BD0408C1101C0D12C27E1209F5C
:100C4000C001219F900D112481589C4F73DC91E0CD
:100C5000811190E0992369F0DD2059F087E1809FB0
:100C6000F001819FF00D1124E158FC4F81E0858B4C
:100C700009C087E1809FF001819FF00D1124E158A8
:100C8000FC4F158A27E1209FC001219F900D112460
:100C9000FC01E158FC4F21E0248B20917A03309134
:100CA0007B0340917C0350917D0360917E038957C3
:100CB0009C4F9EDA88E0809301020F2EF7E06F2EA2
:100CC000F02DCC24CA94DC2C88C087E1809FF001F1
:100CD000819FF00D1124E158FC4F8589882351F044
:100CE00087E1809FF001819FF00D1124E158FC4FB6
:100CF00081E0868B87E1809FF001819FF00D1124B8
:100D0000E158FC4F83E0848B89E0809301020F2E31
:100D1000F7E06F2EF02DEE24EA94FE2C5EC04AD54B
:100D2000682F70E0CE018D599F4F72D544244394B3
:100D300054C040D5682F70E0CE018D579F4F68D5C5
:100D4000222423944AC036D58133C1F0823361F125
:100D5000803309F042C02ED565E070E0CE018D559C
:100D60009F4F56D540E3BE016E547F4FCE018D5547
:100D70009F4F79DDE62DEE7F6E2E2FC01BD565E0EF
:100D800070E0C653DF4F88819981CA5CD04040D55E
:100D900041E3BE016E547F4FCE018D559F4F63DD01
:100DA000F62DFD7F6F2E19C005D565E070E083EA52
:100DB00090E08C0F9D1F0A962BD542E3BE016E5426
:100DC0007F4FCE018D559F4F4EDD862D8B7F682E38
:100DD00004C00F2EF7E06F2EF02D711095C4809196
:100DE0007C038630D8F48091470E811104C0809135
:100DF0000102873079F0DADC7724739485C480911E
:100E0000470E882321F080910102873031F4A6DC5F
:100E1000712C04C07724739401C0712C9FEFC91604
:100E2000D906C1F120917A0330917B0340917C0374
:100E300050917D0360917E03CE018F5B9F4F21DA3D
:100E4000899740F080917E0380FF02C0889A03C09A
:100E5000889801C0889820917A0330917B03409153
:100E60007C0350917D0360917E03CE018F5B9F4F89
:100E700008DACD9778F081E389DC87E18C9DF00179
:100E80008D9DF00D1124E158FC4F83E0848BCC2420
:100E9000CA94DC2CEFEFEE16FE06C1F120917A0326
:100EA00030917B0340917C0350917D0360917E03E0
:100EB000CE018A5B9F4FE5D9899740F080917E03F0
:100EC00080FF02C0899A03C0899801C08998209147
:100ED0007A0330917B0340917C0350917D036091B4
:100EE0007E03CE018A5B9F4FCCD9CD9778F082E309
:100EF0004DDC87E18E9DF0018F9DF00D1124E158AE
:100F0000FC4F81E0848BEE24EA94FE2C8091010258
:100F100090E08A30910508F0CDC3FC018827EC579A
:100F2000FF4F8F4FFBC560FE02C080E390DC61FE87
:100F300002C081E38CDC62FE02C082E388DC809127
:100F40000002882341F0AADB40E060E085E792E000
:100F50008DDB1092000220917A0330917B03409147
:100F60007C0350917D0360917E03CE01855B9F4F92
:100F700088D9892B09F451C061E070E080E090E0ED
:100F800039DB80917C038A3010F480E330DB0AE7A0
:100F900013E0F80182814AE0BE016C537F4F90E07C
:100FA000E2D5CE018C539F4F41DB8AE320DBF80171
:100FB00083818A3010F480E31ADB0AE713E0F8013A
:100FC00083814AE0BE016C537F4F90E0CCD5CE01C7
:100FD0008C539F4F2BDB8AE30ADBF80184818A3034
:100FE00010F480E304DB80917E034AE0BE016C5381
:100FF0007F4F90E0B8D5CE018C539F4F17DB2091E7
:101000007A0330917B0340917C0350917D03609182
:101010007E03CE01855B9F4FEBD820917A03309100
:101020007B0340917C0350917D0360917E03CE0150
:101030008B549F4F26D9459798F020917A03309191
:101040007B0340917C0350917D0360917E03CE0130
:101050008B549F4FCDD881E0809301028093000292
:1010600013D5813409F026C382E08093010281E028
:10107000809300021FC380910002882341F00EDBA1
:1010800041E060E086E192E0F1DA10920002209106
:101090007A0330917B0340917C0350917D036091F2
:1010A0007E03CE018B549F4FECD88430910518F409
:1010B000029728F024C0069708F441C060C040E0C1
:1010C00060E085E892E0D2DACE54DF4F9881C25BCF
:1010D000D04004E2091B1DEC019F112D112416952F
:1010E0001695169580E3810F82DA110F812F880FF4
:1010F000880F180F802F811B805D79DADBC240E0FA
:1011000060E084E992E0B2DACD54DF4F9881C35BAE
:10111000D04004E2091B1DEC019F112D11241695EE
:101120001695169580E3810F62DA110F812F880FD3
:10113000880F180F802F811B805D59DABBC240E0F9
:1011400060E083EA92E092DACC54DF4F9881C45B8E
:10115000D04004E2091B1DEC019F112D11241695AE
:101160001695169580E3810F42DA110F812F880FB3
:10117000880F180F802F811B805D39DA9BC2109277
:10118000010281E08093000295C2809100028823D1
:1011900071F084DA40E060E082EB92E067DA41E0EF
:1011A00060E080EC92E062DA10920002312C6CD4A4
:1011B0008F3F09F47FC28A32C1F4332081F01FEFE0
:1011C000130DE0E5F0E0EC0FFD1FE10FF11D1082C3
:1011D00069E0630D41E080E256DA312E6BC2109275
:1011E000010281E08093000265C2833209F051C0A0
:1011F000F4E03F125FC265961FAE6597CE01805B3B
:101200009F4F03DB4C018FEF88169806B1F446DA46
:1012100040E060E08BEC92E029DA41E060E0CE0152
:10122000805B9F4F23DA88EE93E00E94C10010920A
:10123000010281E0809300023DC227E1289DC001A8
:10124000299D900D112420917A0330917B034091C8
:101250007C0350917D0360917E0381589C4FD3D8CD
:10126000892B79F41BDA41E060E08AED92E0FED947
:1012700081E0809300021092010288248A94982CC5
:1012800019C281E08093000283E080930102312C37
:1012900011C293E0931508F40DC2E0E5F0E0EC0F05
:1012A000FD1FE30DF11D80836AE0630D41E0EBD982
:1012B000339400C280910002882309F466C087E15C
:1012C000889DF001899DF00D1124E158FC4F85891E
:1012D0008823F1F087E1889DF001899DF00D1124AC
:1012E000E158FC4F8689882341F085EE92E09ED933
:1012F00080ED97E00E94C1000BC0D0D940E060E0D3
:1013000081EF92E0B3D941E060E08DEF92E0AED999
:10131000C5D940E060E08AE093E0A8D927E1289DA4
:10132000C001299D900D112420917A0330917B03F7
:1013300040917C0350917D0360917E0381589C4FC6
:1013400062D84AE0BE016C537F4F0DD4CE018C535E
:101350009F4F6CD941E060E084E193E087D910921F
:101360000002552091F08E010B5A1F4F5801A50C19
:10137000B11C61E070E080E090E03CD9F80181911F
:101380008F0135D9A016B106A1F77ED38F3F09F49E
:1013900091C18A3281F4552009F48CC15A94E5E553
:1013A000F0E0EC0FFD1FE50DF11D108241E0652D11
:1013B00080E269D97FC18332D9F4F6E05F127AC145
:1013C0006C961FAE6C9762E070E08DE292E051D2B5
:1013D00087E033D267E070E0CE018B5A9F4F49D24D
:1013E00081E08093000285E080930102512C62C16C
:1013F000E5E5F0E0EC0FFD1FE50DF11D808341E018
:10140000652D41D9539456C180910002882341F043
:1014100045D940E060E08BE193E028D910920002CA
:10142000442009F447C13AD940E060E0CE018D592B
:101430009F4F1CD988EE93E00E94C10081E0809309
:1014400000026AE273E0CE018D599F4F83D3892B4E
:1014500021F410920102412C2DC184E080930102FD
:10146000412CC753DF4F1882C95CD04023C1809103
:101470000002882371F012D940E060E0CE018D595E
:101480009F4FF4D841E060E08AE393E0EFD81092F8
:101490000002FAD28F3F09F40DC1833209F043C034
:1014A000C753DF4F8881C95CD040863009F002C144
:1014B000A3961FAEA39727E1289DC001299D900DFB
:1014C000112420917A0330917B0340917C03509149
:1014D0007D0360917E0381589C4F0E9403024AE085
:1014E000BE016C537F4F3FD3CA53DF4F1882C65C97
:1014F000D04062E070E081E493E0BBD18AE09DD10E
:1015000067E070E0CE01845A9F4FB3D163E070E092
:10151000CE018C539F4FADD186E08093010281E0D4
:1015200080930002C7C08A32E1F4C753DF4F98812D
:10153000C95CD040992309F4BDC0192F1150ECE5C6
:10154000F0E0EC0FFD1FE10FF11D1082692F6B5FC2
:1015500041E080E298D8C753DF4F1883C95CD04080
:10156000A9C0C753DF4FE881C95CD040E63008F01E
:10157000A1C0ECE5F0E0EC0FFD1FC753DF4F9881F1
:10158000C95CD040E90FF11D8083692F6A5F41E09B
:101590008AE279D8C753DF4FE881C95CD040EF5F5A
:1015A000C753DF4FE883C95CD04084C080910002FC
:1015B000882341F073D840E060E08BE193E056D897
:1015C00010920002222009F475C068D840E060E063
:1015D000CE018D579F4F4AD888EE93E00E94C100FC
:1015E00081E0809300026AE273E0CE018D579F4F45
:1015F000B1D2892B21F410920102212C5BC064E44A
:1016000073E0CE018D579F4FA5D2892BF9F427E1C6
:10161000289DC001299D900D112400917A031091FD
:101620007B0320917C0330917D0340917E0360E039
:1016300070E081589C4F0E94710282E397D810920B
:10164000010281E080930002212C34C067E473E042
:10165000CE018D579F4F7ED2892B21F4109201022B
:10166000212C28C066E573E0CE018D579F4F72D2C2
:10167000892B51F484E080930102212CC753DF4F62
:101680001882C95CD04016C084E080930102212CEE
:1016900011C080910002882369F000D841E064E025
:1016A00085E693E00E94360305C01092010202C055
:1016B0001092010220917A0330917B0340917C03C8
:1016C00050917D0360917E03CE0186549F4F0E940E
:1016D00041018997A0F062E070E08FE693E0C9D005
:1016E00020917A0330917B0340917C0350917D03DC
:1016F00060917E03CE0186549F4F0E94F80082E3E2
:1017000090E00E94C1006BC980917C03863008F094
:1017100076CB84CBCF92DF92EF92FF920F93CF9351
:10172000DF9300D01F921F92CDB7DEB70F2EFFE7D9
:10173000EF2EF3E0FF2EF02D0F2EF7E4CF2EFEE07C
:10174000DF2EF02D00E020E041E061E0CE010196C7
:101750000E94DF0029813A814B815C816D81C70144
:101760000E94BC0187E1E80EF11CEC14FD0451F766
:101770000F900F900F900F900F90DF91CF910F91DE
:10178000FF90EF90DF90CF90089583E38093C400A3
:101790001092C5001092C00088EB8093C10078942D
:1017A00086E08093C20008958091490E9091480E82
:1017B000891B08959091480E8091490E981771F0F9
:1017C000E92FF0E0E65BF14F80819F5F9F3F19F0CA
:1017D0009093480E08951092480E089581E090E08D
:1017E0000E94C1009091480E8091490E981771F0A7
:1017F000E92FF0E0E65BF14F80819F5F9F3F19F09A
:101800009093480E08951092480E089580E0089530
:101810000F931F93CF93DF93161617064CF48C018A
:10182000EC01060F171FC6DF8993C017D107D9F740
:10183000DF91CF911F910F91089590914A0FE92F59
:10184000F0E0E55BF04F80839F5F9F3F19F090933E
:101850004A0F02C010924A0F8091C00085FF08C055
:10186000E0ECF0E080818F7D8083808180628083E6
:1018700008950F931F93CF93DF93161617064CF41A
:101880008C01EC01060F171F8991D7DFC017D10714
:10189000D9F7DF91CF911F910F9108951F920F9269
:1018A0000FB60F9211240BB60F928F93EF93FF9305
:1018B000E091490F80914A0FE81781F0F0E0E55B75
:1018C000F04F80818093C6008091490F8F5F8F3FDA
:1018D00019F08093490F02C01092490FFF91EF91C8
:1018E0008F910F900BBE0F900FBE0F901F90189509
:1018F0001F920F920FB60F9211240BB60F928F9377
:101900009F93EF93FF938091490E9091C600E82F2B
:10191000F0E0E65BF14F90838F5F8F3F19F080938B
:10192000490E02C01092490EFF91EF919F918F9145
:101930000F900BBE0F900FBE0F901F901895E0E018
:10194000F1E08081908194FF05C083FB882780F9B6
:10195000819501C081E09091000195FF82E0909116
:10196000000196FF83E00895FF920F931F93CF939A
:10197000DF93082FC0E010E0D1E0F12CE0DF80170A
:1019800011F0CF5F01C0C0E08D2FCA3008F48F2D59
:1019900081110CC08D2F143608F48F2D811106C0D3
:1019A0001F5F8AE090E00E94C100E8CF8AE090E0EB
:1019B0000E94C100DF91CF911F910F91FF90089578
:1019C000CF93DF93BCDFD82F8F3F79F0CAE0B7DF2A
:1019D000D8130DC0C15021F48D2FC6DF8D2F08C044
:1019E0008AE090E00E94C100F2CF8FEF01C08FEF3C
:1019F000DF91CF9108958130B1F028F0823019F154
:101A0000833089F13FC0613041F028F0623039F015
:101A1000633039F037C091E335C092E333C093E3CC
:101A200031C091E42FC0613041F028F0623039F0CC
:101A3000633039F027C094E325C095E323C096E3D3
:101A400021C092E41FC0613041F028F0623039F0CB
:101A5000633039F017C097E315C098E313C099E3DA
:101A600011C093E40FC0613041F028F0623039F0CA
:101A7000633039F007C09AE205C090E303C093E2F7
:101A800001C094E4892F0895E1E0F1E08081877836
:101A90008083E2E0F1E080818867808384B18F6099
:101AA00084B9289885B18E6085B98ADF8F3F19F097
:101AB00060E0A1CF0895299885B18D6085B980DF58
:101AC0008F3F19F061E097CF08952A9885B18B6018
:101AD00085B976DF8F3F19F062E08DCF08952B989E
:101AE00085B1876085B96CDF8F3F19F063E083CFE4
:101AF00008958FEF089597FB072E16F4009406D0F3
:101B000077FD08D013D007FC05D03EF49095819561
:101B10009F4F0895709561957F4F0895EE0FFF1FB9
:101B2000881F8BBF0790F691E02D1994AA1BBB1B51
:101B300051E107C0AA1FBB1FA617B70710F0A61BCD
:101B4000B70B881F991F5A95A9F780959095BC01EE
:101B5000CD010895FB01DC018D91019080190110E8
:101B6000D9F3990B0895BB274A3031F4992322F415
:101B7000BDE2909581959F4F01C0BB27FB01552782
:101B8000AA27880F991FAA1FA41710F0A41B8395DA
:101B90005051B9F7A05DAA3308F0A95DA193009751
:101BA00079F7B111B1931192CB0100C0DC01FC01B6
:101BB000672F71917723E1F7329704C07C916D9381
:101BC00070836291AE17BF07C8F30895F894FFCFF2
:101BD0000107646966664D696E0063616C63756CCC
:101BE000615067746F0020202020202020202020BA
:101BF000202020202020004541004546004543008C
:101C0000454D00454200454400454800454E0023EF
:101C1000232323232323004465736C696761646F66
:101C200021005265616C697A65206F20506167619F
:101C30006D656E746F00417065727465202241227B
:101C40002E004553004573746163696F6E614D6981
:101C500063726F73005661676173205465727265B9
:101C60006F3A20005661676173203120616E6461B4
:101C7000723A005661676173203220616E6461724E
:101C80003A004EBA20706C6163612070617261002D
:101C9000506167616D656E746F3A00506C6163618D
:101CA0002065737472616E686100457374612050C1
:101CB00061676F21005265696E636964656E746562
:101CC000005661676120496C6567616C0070726FD6
:101CD00078203D204D554C5441005061677565207A
:101CE0005224200043415254414F004573706572A5
:101CF0006120526573702E2E2E0043617274616FE5
:101D000020496E76616C69646F0053656E68613A54
:101D1000004550004F4B0053616C646F20496E7654
:101D2000616C69646F0053656E686120496E76610D
:101D30006C696461004465736C696761646F004538
:0A1D40004F00454900616161610038
:00000001FF
