S01A00004156524573746163696F6E614D6963726F732E737265631D
S11300008EC00000BCC00000BAC00000B8C0000030
S1130010B6C00000B4C00000B2C00000B0C0000010
S1130020AEC00000ACC00000AAC00000A8C0000020
S1130030A6C00000A4C00000A2C00000A0C0000030
S11300409EC000009CC000009AC0000098C0000040
S113005028C3000094C0000092C0000090C00000BB
S11300608EC000000C94AA0B0C94800B88C0000076
S113007086C0000084C0000082C0000080C0000070
S11300807EC000007CC000007AC0000078C0000080
S113009076C0000074C0000072C0000070C0000090
S11300A06EC000006CC000006AC0000068C00000A0
S11300B066C0000064C0000062C0000060C00000B0
S11300C05EC000005CC000005AC0000058C00000C0
S11300D056C0000054C0000052C0000050C00000D0
S11300E04EC00000ED046B06F404C906C906C90637
S11300F0FB04C906C906C906C9067F060C05C9065C
S11301007506C906C906C4056F070E089808700964
S11301104109ED097C0A870A8A0A8B03BC0A112467
S11301201FBECFEFD1E2DEBFCDBF00E00CBF13E0B6
S1130130A0E0B2E0E4E3FAE100E00BBF02C0079004
S11301400D92AC33B107D9F720E1ACE3B3E001C0C1
S11301501D92AC30B207E1F710E0CFE8D0E000E048
S113016006C021970109802FFE010E94C00CCD38E2
S1130170D10780E00807A9F7A2D30C94180D40CF4B
S113018016BC23E025BD22E024BD29EF27BD00973E
S113019029F0A99BFECFA99A0197D9F7089516BC17
S11301A021E025BD22E024BD2FE027BD009729F0E2
S11301B0A99BFECFA99A0197D9F708950F93FC0143
S11301C0608341832283038314820F910895FC0189
S11301D0DB018C91808311968C9111978183129607
S11301E08C911297828313968C9183830895CF9375
S11301F0DF9300D01F921F92CDB7DEB7FC0120839E
S113020031834283538364830F900F900F900F9038
S11302100F90DF91CF9108950F931F93CF93DF93A6
S113022000D01F921F92CDB7DEB7242F30E0FC011F
S11302304281241B31094CE3429F8001439F100DEE
S11302401124252F30E08381A901481B5109040F93
S1130250151F68E070E082E092E00E946B0B802F33
S11302600E944F0B8AE00E944F0BC8010F900F9021
S11302700F900F900F90DF91CF911F910F910895E0
S1130280CF93DF9300D01F921F92CDB7DEB7FC014E
S1130290242F30E08281281B3109A0E1BEE02A9F8F
S11302A0C0012B9F900D3A9F900D1124252F30E013
S11302B04381241B31097CE3729FA001739F500D7D
S11302C01124840F951F70E02481621B7109860F2D
S11302D0971F0F900F900F900F900F90DF91CF9179
S11302E00895FC018481680F64836C3378F089E895
S11302F0689F812D11248295869587709381980F2C
S113030093832CE3829F60191124648383818C334B
S113031078F099E8899F912D11249295969597707C
S11303202281290F22832CE3929F80191124838335
S11303308281883170F09BEA899F912D11249295D6
S11303409F702081290F208328E1929F8019112416
S1130350828380818E3170F099E8899F912D1124D8
S113036092959F702181290F21832EE1929F8019FC
S1130370112480830895CF93DF9300D01F921F929E
S1130380CDB7DEB7DC0129833A834B835C836D836D
S113039081E01D968C931D971E968C931E971F9635
S11303A01C921F9750961C92509751961C925197ED
S11303B053961C921E92529755961C925597569698
S11303C01C92569783E054968C935497FD019D019B
S11303D0295F3F4F83E28193E217F307E1F7179612
S11303E01C92179785E0FE013196189601900D92A4
S11303F08A95E1F70F900F900F900F900F90DF9177
S1130400CF910895EF92FF920F931F93CF93DF93B1
S113041000D01F921F92CDB7DEB77C0129833A83A7
S11304204B835C836D83C7010896F6DE9C018031A3
S11304309105ECF08D33910544F4F7018289938999
S11304400AE010E0081B190B14C0CC976EE170E0B1
S11304500E94AD0C8B01000F111F000F111F025FD2
S11304601F4FF70182899389081B190B02C000E012
S113047010E0F7018589882371F08689882359F073
S1130480C9016EE170E00E94AD0C6F5F7F4F660F93
S1130490771F060F171F29813A814B815C816D817B
S11304A0C7010D96B9DE409714F400E010E06DE04A
S11304B070E08AE092E00E946B0B802F0E944F0B49
S11304C08AE00E944F0BC8010F900F900F900F907D
S11304D00F90DF91CF911F910F91FF90EF900895AE
S11304E00F931F93CF93DF9300D01F921F92CDB72A
S11304F0DEB7FC0109831A832B833C834D831616D4
S113050017063CF49C81842F058716872787908BD8
S1130510818B82899389860F971F938B828B0F908F
S11305200F900F900F900F90DF91CF911F910F912B
S11305300895FC018081893449F48181843441F433
S113054081E09281953429F080E0089580E0089557
S113055080E00895FB013081FC01208132130FC03B
S1130560FB013196DC011196695F7F4F91918D916A
S1130570981307C0E617F707C9F781E0089580E0EC
S1130580089580E00895CF93DF93EC01FB01DC0133
S11305909B01295F3F4F91919D93E217F307D9F790
S11305A01F82DF91CF910895469A82B9469888E2D6
S11305B090E0F5CD08954798F7CF0895479AF4CF82
S11305C008950F931F93CF93DF938C01EB0180E881
S11305D0F2DF219711F480ECEEDF0115110541F0F3
S11305E0C0E0D0E084E1E7DF2196C017D107D1F75E
S11305F0DF91CF911F910F9108950F931F93CF9384
S1130600DF93EC01FC01319620E030E02F5F3F4F97
S113061091919111FBCF2115310551F08E01C20F3B
S1130620D31FF80181918F01C9DF0C171D07C9F78A
S1130630DF91CF911F910F910895CF93DF93EC0138
S1130640862F642F70E090E0BCDFCE01D6DFDF910F
S1130650CF910895CF93C82F862F642F70E090E038
S1130660B0DF8C2FABDFCF91089540E060E086E1EE
S113067092E0E3DF41E060E086E192E0DEDF60E00B
S113068070E080E090E09DCF08958FEF81B93E9AAD
S11306903F9A88E390DF8EE08EDF86E08CDFE5CF43
S11306A008951F920F920FB60F9211240BB60F925A
S11306B02F933F934F935F936F937F938F939F9366
S11306C0AF93BF93EF93FF938CED9BE090938500E2
S11306D08093840061E08CE393E003DEFF91EF916B
S11306E0BF91AF919F918F917F916F915F914F9146
S11306F03F912F910F900BBE0F900FBE0F901F9044
S1130700189581E080936F0078941092800084E0C3
S11307108093810008950F9300E026E041E061E0BA
S11307208CE393E04BDD0F9108951092010281E078
S1130730809300028093090E0895CF93C82F62E03E
S113074070E087E292E0C7D78C2FA9D782E090E0CF
S113075017DDCF910895CF93C82F62E070E08AE24D
S113076092E0B9D78C2F9BD782E090E009DDCF913E
S1130770089581E3F0DF82E3EEDF86E080930102F7
S113078081E0809300021092090E0895EF92FF9287
S11307900F931F93CF93DF937C0101E413E0C0E038
S11307A0D0E0B701C801D6DE811109C02196095EE7
S11307B01F4FC837D105A9F78FEF9FEF02C08C2FC9
S11307C09D2FDF91CF911F910F91FF90EF9008958E
S11307D0CF93C82F62E070E080E392E07CD78C2F47
S11307E05ED7CF910895CF93DF93FC01413329F075
S11307F0423321F14033C9F41FC091E020C0ED9190
S1130800F0E020E030E0AF01022E02C0559547959C
S11308100A94E2F740FD8F5F2F5F3F4F2830310588
S113082091F7AC17BD0759F702C09FEF80E0FB01B9
S1130830E90FF11D808313C090E001C092E0292FDD
S113084030E0D901AA0FBB1FAA0FBB1F2A0F3B1F01
S1130850DF01A20FB31FED01259680E0D0CFDF9119
S1130860CF910895CF93DF9300D01F92CDB7DEB719
S113087062E070E083E392E02ED780E010D780E15D
S11308800ED768E070E0CE010A9625D74AE0BE0193
S11308906F5F7F4F8C8D9D8D0E94E50C64E070E04E
S11308A0CE01019618D764E070E086E392E013D796
S11308B00F900F900F900F90DF91CF910895CF93E9
S11308C0DF93CDB7DEB7C55CD1090FB6F894DEBFB0
S11308D00FBECDBF00E020E041E061E0CE018F5BC0
S11308E09F4F6CDC20E041E061E0CE018A5B9F4FCA
S11308F065DC20E041E061E0CE01855B9F4F5EDC7A
S1130900FE01E256FF4FCF010F9610821182128230
S1130910138214823596E817F907B9F7C355DF4FE8
S11309201882CD5AD040C255DF4F1882CE5AD040DB
S1130930C155DF4F1882CF5AD04000E020E041E09B
S113094061E0CE0180559F4F39DC20E041E061E059
S1130950CE018B549F4F32DC20E041E061E0CE01B8
S113096086549F4F2BDC279A809A819A829A81B36E
S1130970887F81BB3CD689DEC4DE0F2EF7E0EF2EE4
S1130980F02D212C612CF12C312C712CCC24CA9407
S1130990DC2CAA24AA94BA2C8EE990E08C0F9D1F1B
S11309A00596CC53DF4F99838883C45CD0402ED600
S11309B0882309F4EEC130D6833509F0EAC12CD678
S11309C090E0FC01E254F109E231F10508F0E1C1E3
S11309D08827EE58FF4F8F4FD3C762E070E08BE358
S11309E092E079D6C6DED5C162E070E08EE392E093
S11309F072D69BDECEC164E070E0CE0101963AD699
S1130A00BE016F5F7F4F8CE393E0E1DB62E070E057
S1130A1081E492E060D6BDC1FFD5182F68E070E094
S1130A20CE01019627D662E070E084E492E053D6CA
S1130A3040E060E086E192E000DE40E060E0CE016C
S1130A400196FBDDCE010196A1DE2C0185E292E048
S1130A50D4DD9FEF4916590681F487E492E096DECF
S1130A602C0127E1249DC001259D900D1124BE0178
S1130A706F5F7F4F8F5B9C4F86DD85E292E0BDDD2B
S1130A804AE0BE0161547F4FC2019FD7CE01815419
S1130A909F4FB3DD85E292E0B0DD88EE93E070DB3A
S1130AA0113319F0123341F174C187E1849DF001CF
S1130AB0859DF00D1124EF5BFC4F148A138A128A72
S1130AC020913C0330913D0340913E0350913F03FC
S1130AD060914003CE018F5B9F4F89DB8091090EAB
S1130AE0882321F081E329DE520153C1BEDD8FE466
S1130AF092E083DD52014DC187E1849DF001859D23
S1130B00F00D1124EF5BFC4F82E0848B20913C03B9
S1130B1030913D0340913E0350913F036091400367
S1130B20CE018A5B9F4F63DB8091090E882331F1EC
S1130B3027E1249DC001259D900D112420913C03A3
S1130B4030913D0340913E0350913F036091400337
S1130B508F5B9C4F57DC1816190664F486DD8AE512
S1130B6092E04BDD82E08093010281E080930002F9
S1130B7062010FC182E3E1DD62010BC176DD8FE426
S1130B8092E03BDD620105C147D5182F68E070E0B3
S1130B90CE0101966FD562E070E08EE692E09BD5BF
S1130BA0CE010196F3DD2C0180ED97E0E9DA812F87
S1130BB0D2DD113321F0123309F463C0E6C0C3550A
S1130BC0DF4F0881CD5AD04080E302DE84E690E016
S1130BD0D7DA40E3BE0163557F4FCE0182569F4F63
S1130BE002DE11E0C355DF4F8881CD5AD040801317
S1130BF001C010E027E1249DC001259D900D112422
S1130C008F5B9C4F96DC91E0811190E0992369F011
S1130C10112359F087E1849DF001859DF00D112485
S1130C20EF5BFC4F81E0858B09C087E1849DF00177
S1130C30859DF00D1124EF5BFC4F158A27E1249D5F
S1130C40C001259D900D1124FC01EF5BFC4F21E0B8
S1130C50248B20913C0330913D0340913E035091FD
S1130C603F0360914003875B9C4FC1DA87E0809328
S1130C7001020F2EF7E0EF2EF02DAA24AA94BA2C2D
S1130C8088C087E1849DF001859DF00D1124EF5B00
S1130C90FC4F8589882351F087E1849DF001859D6F
S1130CA0F00D1124EF5BFC4F81E0868B87E1849D7E
S1130CB0F001859DF00D1124EF5BFC4F83E0848BE4
S1130CC088E0809301020F2EF7E0EF2EF02DCC2464
S1130CD0CA94DC2C5EC0A0D4682F70E0CE01825A86
S1130CE09F4FC8D46624639454C096D4682F70E090
S1130CF0CE0182589F4FBED4222423944AC08CD460
S1130D008133C1F0823361F1803309F042C084D46D
S1130D1065E070E0CE0182569F4FACD440E3BE0143
S1130D2063557F4FCE0182569F4F5DDDEE2DEE7FE2
S1130D30EE2E2FC071D465E070E0CC53DF4F888174
S1130D409981C45CD04096D441E3BE0163557F4F82
S1130D50CE0182569F4F47DDFE2DFD7FEF2E19C039
S1130D605BD465E070E08EE990E08C0F9D1F0A96DD
S1130D7081D442E3BE0163557F4FCE0182569F4F1B
S1130D8032DD8E2D8B7FE82E04C00F2EF7E0EF2E80
S1130D90F02DF110EBC380913E038630D8F480919E
S1130DA0090E811104C080910102863079F0E1DCE2
S1130DB0FF24F394DBC38091090E882321F08091F2
S1130DC00102863031F4B1DCF12C04C0FF24F39429
S1130DD001C0F12C9FEFA916B906C1F120913C0383
S1130DE030913D0340913E0350913F036091400395
S1130DF0CE018F5B9F4F44DA899740F08091400386
S1130E0080FF02C0889A03C0889801C08898209106
S1130E103C0330913D0340913E0350913F03609168
S1130E204003CE018F5B9F4F2BDACD9778F081E39F
S1130E3092DC87E18A9DF0018B9DF00D1124EF5B1C
S1130E40FC4F83E0848BAA24AA94BA2CEFEFCE162D
S1130E50DE06C1F120913C0330913D0340913E03F5
S1130E6050913F0360914003CE018A5B9F4F08DAA3
S1130E70899740F08091400380FF02C0899A03C0A3
S1130E80899801C0899820913C0330913D03409199
S1130E903E0350913F0360914003CE018A5B9F4F14
S1130EA0EFD9CD9778F082E356DC87E18C9DF00191
S1130EB08D9DF00D1124EF5BFC4F81E0848BCC24DD
S1130EC0CA94DC2C8091010290E08930910508F0ED
S1130ED023C3FC018827EC57FF4F8F4F51C5E0FE19
S1130EE002C080E375DCE1FE02C081E371DCE2FE56
S1130EF002C082E36DDC80910002882341F0B5DBFF
S1130F0040E060E081E792E098DB109200022091DB
S1130F103C0330913D0340913E0350913F03609167
S1130F204003CE01855B9F4FABD9892B09F451C097
S1130F3061E070E080E090E044DB80913E038A3021
S1130F4010F480E33BDB0CE313E0F80182814AE018
S1130F50BE0161547F4F90E038D5CE0181549F4F3C
S1130F604CDB8AE32BDBF80183818A3010F480E3C5
S1130F7025DB0CE313E0F80183814AE0BE016154F0
S1130F807F4F90E022D5CE0181549F4F36DB8AE318
S1130F9015DBF80184818A3010F480E30FDB809143
S1130FA040034AE0BE0161547F4F90E00ED5CE016C
S1130FB081549F4F22DB20913C0330913D034091AB
S1130FC03E0350913F0360914003CE01855B9F4FE8
S1130FD00ED920913C0330913D0340913E03509142
S1130FE03F0360914003CE0180559F4F49D94597F7
S1130FF008F492C220913C0330913D0340913E039A
S113100050913F0360914003CE0180559F4FEFD82C
S113101081E080930102809300027EC280910002ED
S1131020882341F022DB41E060E086E192E005DBC9
S11310301092000220913C0330913D0340913E0305
S113104050913F0360914003CE0180559F4F18D9C2
S11310508430910518F4029728F024C0069708F408
S113106041C060C040E060E081E892E0E6DAC35548
S1131070DF4F9881CD5AD04004E2091B1DEC019F3B
S1131080112D112416951695169580E3810F96DA85
S1131090110F812F880F880F180F802F811B805DFF
S11310A08DDA3AC240E060E080E992E0C6DAC255E7
S11310B0DF4F9881CE5AD04004E2091B1DEC019FFA
S11310C0112D112416951695169580E3810F76DA65
S11310D0110F812F880F880F180F802F811B805DBF
S11310E06DDA1AC240E060E08FE992E0A6DAC155F9
S11310F0DF4F9881CF5AD04004E2091B1DEC019FB9
S1131100112D112416951695169580E3810F56DA44
S1131110110F812F880F880F180F802F811B805D7E
S11311204DDAFAC11092010281E080930002F4C109
S113113080910002882309F465C087E18C9DF00149
S11311408D9DF00D1124EF5BFC4F85898823E9F018
S113115087E18C9DF0018D9DF00D1124EF5BFC4F18
S11311608689882339F08EEA92E047DA80ED97E0A9
S113117007D80BC07ADA40E060E08AEB92E05DDAEF
S113118041E060E086EC92E058DA6FDA40E060E03B
S113119083ED92E052DA27E12C9DC0012D9D900D44
S11311A0112420913C0330913D0340913E03509122
S11311B03F03609140038F5B9C4F24D94AE0BE01FA
S11311C061547F4F02D4CE0181549F4F16DA41E01F
S11311D060E08DED92E031DA10920002772091F018
S11311E08E01005B1F4F4801870C911C61E070E089
S11311F080E090E0E6D9F80181918F01DFD9801673
S11312009106A1F773D38F3F09F486C18A3281F422
S1131210772009F481C17A94E0E5F0E0EC0FFD1F3A
S1131220E70DF11D108241E0672D80E213DA74C1ED
S11312308332D9F4F6E07F126FC167961FAE6797C9
S113124062E070E08DE292E046D287E028D267E067
S113125070E0CE01805B9F4F3ED281E0809300021C
S113126084E080930102712C57C1E0E5F0E0EC0FBB
S1131270FD1FE70DF11D808341E0672DEBD97394C9
S11312804BC180910002882341F0EFD940E060E037
S113129084EE92E0D2D910920002662009F43CC197
S11312A0E4D940E060E0CE01825A9F4FC6D988EE6F
S11312B093E00E94C00081E08093000263EF72E03B
S11312C0CE01825A9F4F78D3892B21F410920102C8
S11312D0612C22C183E080930102612C312C1CC15A
S11312E080910002882371F0C0D940E060E0CE0113
S11312F0825A9F4FA2D941E060E083E093E09DD9F8
S113130010920002F3D28F3F09F406C1833209F030
S11313103DC086E0381200C16E961FAE6E9727E17D
S11313202C9DC0012D9D900D112420913C033091E2
S11313303D0340913E0350913F03609140038F5B16
S11313409C4F60D84AE0BE0161547F4F3ED3CF53D7
S1131350DF4F1882C15CD04062E070E08AE093E025
S1131360BAD18AE09CD167E070E0CE01895A9F4FE0
S1131370B2D163E070E0CE0181549F4FACD185E0DF
S11313808093010281E080930002C6C08A3299F4FE
S1131390332009F4C1C01FEF130DE7E5F0E0EC0FB3
S11313A0FD1FE10FF11D108265E0630D41E080E255
S11313B051D9312EB1C095E0931508F4ADC0E7E5DD
S11313C0F0E0EC0FFD1FE30DF11D808366E0630D7B
S11313D041E08AE23FD933949FC080910002882380
S11313E041F043D940E060E084EE92E026D91092C7
S11313F00002222009F490C038D940E060E0CE0118
S113140082589F4F1AD988EE93E00E94C00081E071
S11314108093000263EF72E0CE0182589F4FCCD2DA
S1131420892B21F410920102212C76C06DE073E027
S1131430CE0182589F4FC0D2892B09F03EC00F2E97
S1131440F7E19F2EF02D9C9CC0019D9C900D1124D2
S113145000913C0310913D0320913E0330913F03E2
S11314604091400360E070E08F5B9C4F39D882E389
S113147064D91092010281E080930002949CF001EF
S1131480959CF00D1124EF5BFC4F8DB79EB74797E9
S11314900FB6F8949EBF0FBE8DBFADB7BEB7119601
S11314A087E101900D928A95E1F7DCD90FB6F894A3
S11314B0DEBF0FBECDBF212C2FC060E173E0CE0193
S11314C082589F4F79D2892B21F410920102212C4A
S11314D023C06FE173E0CE0182589F4F6DD2892BF8
S11314E031F483E080930102212C312C15C083E078
S11314F080930102212C10C080910002882361F0A6
S1131500B4D841E064E08EE293E097D805C010922D
S1131510010202C01092010220913C0330913D036C
S113152040913E0350913F0360914003CE018B54A0
S11315309F4F0E9440018997A0F062E070E088E329
S113154093E0C9D020913C0330913D0340913E0388
S113155050913F0360914003CE018B549F4F0E94F2
S1131560F70082E390E00E94C00021CA80913E030C
S1131570863008F020CC2ECCCF92DF92EF92FF92EF
S11315800F93CF93DF9300D01F921F92CDB7DEB796
S11315900F2EF1E4EF2EF3E0FF2EF02D0F2EF9E0E5
S11315A0CF2EFEE0DF2EF02D00E020E041E061E0F0
S11315B0CE0101960E94DE0029813A814B815C8133
S11315C06D81C7010E94BB0187E1E80EF11CEC1498
S11315D0FD0451F70F900F900F900F900F90DF9133
S11315E0CF910F91FF90EF90DF90CF90089583E318
S11315F08093C4001092C5001092C00088EB8093C1
S1131600C100789486E08093C200089580910B0E07
S113161090910A0E891B089590910A0E80910B0EE9
S1131620981771F0E92FF0E0E45FF14F80819F5F3C
S11316309F3F19F090930A0E089510920A0E089590
S113164081E090E00E94C00090910A0E80910B0E00
S1131650981771F0E92FF0E0E45FF14F80819F5F0C
S11316609F3F19F090930A0E089510920A0E089560
S113167080E008950F931F93CF93DF9316161706F8
S11316804CF48C01EC01060F171FC6DF8993C017B9
S1131690D107D9F7DF91CF911F910F9108959091C0
S11316A00C0FE92FF0E0E35FF04F80839F5F9F3FD3
S11316B019F090930C0F02C010920C0F8091C0008F
S11316C085FF08C0E0ECF0E080818F7D808380811D
S11316D08062808308950F931F93CF93DF93161630
S11316E017064CF48C01EC01060F171F8991D7DF04
S11316F0C017D107D9F7DF91CF911F910F910895AA
S11317001F920F920FB60F9211240BB60F928F9364
S1131710EF93FF93E0910B0F80910C0FE81781F08A
S1131720F0E0E35FF04F80818093C60080910B0F5F
S11317308F5F8F3F19F080930B0F02C010920B0F35
S1131740FF91EF918F910F900BBE0F900FBE0F90F2
S11317501F9018951F920F920FB60F9211240BB67B
S11317600F928F939F93EF93FF9380910B0E909121
S1131770C600E82FF0E0E45FF14F90838F5F8F3F66
S113178019F080930B0E02C010920B0EFF91EF9193
S11317909F918F910F900BBE0F900FBE0F901F90D3
S11317A01895E0E0F1E08081908194FF05C083FB0F
S11317B0882780F9819501C081E09091000195FF0F
S11317C082E09091000196FF83E00895FF920F93C9
S11317D01F93CF93DF93082FC0E010E0D1E0F12CEA
S11317E0E0DF801711F0CF5F01C0C0E08D2FCA3059
S11317F008F48F2D81110CC08D2F143608F48F2D11
S1131800811106C01F5F8AE090E00E94C000E8CF0B
S11318108AE090E00E94C000DF91CF911F910F9168
S1131820FF900895CF93DF93BCDFD82F8F3F79F0DB
S1131830CAE0B7DFD8130DC0C15021F48D2FC6DF25
S11318408D2F08C08AE090E00E94C000F2CF8FEF95
S113185001C08FEFDF91CF9108958130B1F028F06E
S1131860823019F1833089F13FC0613041F028F0B2
S1131870623039F0633039F037C091E335C092E318
S113188033C093E331C091E42FC0613041F028F0BC
S1131890623039F0633039F027C094E325C095E312
S11318A023C096E321C092E41FC0613041F028F0C8
S11318B0623039F0633039F017C097E315C098E30C
S11318C013C099E311C093E40FC0613041F028F0D4
S11318D0623039F0633039F007C09AE205C090E312
S11318E003C093E201C094E4892F0895E1E0F1E09C
S11318F0808187788083E2E0F1E08081886780835B
S113190084B18F6084B9289885B18E6085B98ADFE7
S11319108F3F19F060E0A1CF0895299885B18D60BB
S113192085B980DF8F3F19F061E097CF08952A9839
S113193085B18B6085B976DF8F3F19F062E08DCF7A
S113194008952B9885B1876085B96CDF8F3F19F0B6
S113195063E083CF08958FEF089597FB072E16F465
S1131960009406D077FD08D013D007FC05D03EF4D0
S1131970909581959F4F0895709561957F4F089537
S1131980EE0FFF1F881F8BBF0790F691E02D19946F
S1131990AA1BBB1B51E107C0AA1FBB1FA617B70791
S11319A010F0A61BB70B881F991F5A95A9F78095AD
S11319B09095BC01CD010895FB01DC018D9101904E
S11319C080190110D9F3990B0895BB274A3031F4DB
S11319D0992322F4BDE2909581959F4F01C0BB27C6
S11319E0FB015527AA27880F991FAA1FA41710F0D7
S11319F0A41B83955051B9F7A05DAA3308F0A95DE3
S1131A00A193009779F7B111B1931192CB0100C062
S1131A10DC01FC01672F71917723E1F7329704C051
S1131A207C916D9370836291AE17BF07C8F30895DC
S1071A30F894FFCF54
S1131A340106646966664D696E0063616C63756C66
S1131A44615067746F002020202020202020202053
S1131A542020202020200045410045460045430025
S1131A64454D0045490061616161004542004544BA
S1131A7400454800454E0023232323232323004405
S1131A8465736C696761646F21005265616C697A7E
S1131A9465206F20506167616D656E746F004553F6
S1131AA4004573746163696F6E614D6963726F732A
S1131AB40056616761732054657272656F3A200041
S1131AC45661676173203120616E6461723A005615
S1131AD461676173203220616E6461723A005265F9
S1131AE4696E636964656E74650056616761204953
S1131AF46C6567616C0070726F78203D204D554CA5
S1131B0454410050616775652052242000434152BA
S1131B1454414F0045737065726120526573702E91
S1131B242E2E0043617274616F20496E76616C6974
S1131B34646F0053656E68613A004550004F4B0072
S1131B4453616C646F20496E76616C69646F0053F1
S1131B54656E686120496E76616C696461004465F0
S10F1B64736C696761646F00454F0000FA
S9030000FC
