:100000008DC00000BBC00000B9C00000B7C0000038
:10001000B5C00000B3C00000B1C00000AFC0000018
:10002000ADC00000ABC00000A9C00000A7C0000028
:10003000A5C00000A3C00000A1C000009FC0000038
:100040009DC000009BC0000099C0000097C0000048
:100050004EC3000093C0000091C000008FC000009C
:100060008DC000000C94240B0C94FA0A87C0000089
:1000700085C0000083C0000081C000007FC0000078
:100080007DC000007BC0000079C0000077C0000088
:1000900075C0000073C0000071C000006FC0000098
:1000A0006DC000006BC0000069C0000067C00000A8
:1000B00065C0000063C0000061C000005FC00000B8
:1000C0005DC000005BC0000059C0000057C00000C8
:1000D00055C0000053C0000051C000004FC00000D8
:1000E0004DC00000DD045806E404AE06AE06AE06C0
:1000F000EB04AE06AE06AE06AE066C06FC04AE061B
:100100006206AE06AE06AE05460738080C09DD08E5
:100110008909F709010A040AB103360A11241FBE2E
:10012000CFEFD1E2DEBFCDBF00E00CBF13E0A0E017
:10013000B2E0E8E2F9E100E00BBF02C007900D92E7
:10014000A632B107D9F72FE0A6E2B3E001C01D92B5
:10015000A63FB207E1F710E0CEE8D0E000E006C02D
:1001600021970109802FFE010E943A0CCC38D1075B
:1001700080E00807A9F79CD30C94920C41CF16BCE1
:1001800023E025BD22E024BD29EF27BD009729F0FB
:10019000A99BFECFA99A0197D9F7089516BC21E033
:1001A00025BD22E024BD2FE027BD009729F0A99BA3
:1001B000FECFA99A0197D9F708950F93FC016083A8
:1001C00041832283038314820F910895FC01DB0194
:1001D0008C91808311968C911197818312968C91CA
:1001E0001297828313968C9183830895CF93DF9324
:1001F00000D01F921F92CDB7DEB7FC012083318360
:100200004283538364830F900F900F900F900F9051
:10021000DF91CF9108950F931F93CF93DF9300D079
:100220001F921F92CDB7DEB7242F30E0FC01428130
:10023000241B31094CE3429F8001439F100D112480
:10024000252F30E08381A901481B5109040F151F98
:1002500068E070E082E092E00E94E50A802F0E9450
:10026000C90A8AE00E94C90AC8010F900F900F9036
:100270000F900F90DF91CF911F910F9108950F93E1
:100280001F93CF93DF9300D01F921F92CDB7DEB79D
:10029000FC01832F30E09081291B3109A0EAB5E0F1
:1002A0002A9F80012B9F100D3A9F100D11247CE393
:1002B000709F9001719F300D112490E01181811B7E
:1002C00091098A9F80018B9F100D9A9F100D112418
:1002D000A8E0B7E00A9FC0010B9F900D1A9F900DF8
:1002E0001124280F391FA42FB0E08281A81BB10967
:1002F00000E11EE0A09FC001A19F900DB09F900D56
:100300001124280F391F452F50E08381481B5109C4
:10031000749FC001759F900D1124280F391F70E044
:100320008481AB01481B5109CA01820F931F0F90B2
:100330000F900F900F900F90DF91CF911F910F9121
:100340000895FC018481680F64836C3378F089E838
:10035000689F812D11248295869587709381980FCF
:1003600093832CE3829F60191124648383818C33EF
:1003700078F099E8899F912D112492959695977020
:100380002281290F22832CE3929F801911248383D9
:100390008281883170F09BEA899F912D112492957A
:1003A0009F702081290F208328E1929F80191124BA
:1003B000828380818E3170F099E8899F912D11247C
:1003C00092959F702181290F21832EE1929F8019A0
:1003D000112480830895CF93DF9300D01F921F9242
:1003E000CDB7DEB7DC0129833A834B835C836D8311
:1003F00081E01D968C931D971E968C931E971F96D9
:100400001C921F9750961C92509751961C92519790
:1004100053961C921E92529755961C92559756963B
:100420001C92569783E054968C935497FD019D013E
:10043000295F3F4F83E28193E217F307E1F71796B5
:100440001C92179785E0FE013196189601900D9247
:100450008A95E1F70F900F900F900F900F90DF911A
:10046000CF910895EF92FF920F931F93CF93DF9355
:1004700000D01F921F92CDB7DEB77C0129833A834B
:100480004B835C836D83C7010896C5DE9C01803178
:100490009105ECF08D33910544F4F701828993893D
:1004A0000AE010E0081B190B14C0CC976EE170E055
:1004B0000E94270C8B01000F111F000F111F025FFC
:1004C0001F4FF70182899389081B190B02C000E0B6
:1004D00010E0F7018589882371F08689882359F017
:1004E000C9016EE170E00E94270C6F5F7F4F660FBD
:1004F000771F060F171F29813A814B815C816D811F
:10050000C7010D9688DE409714F400E010E06DE01E
:1005100070E08AE092E00E94E50A802F0E94C90AFA
:100520008AE00E94C90AC8010F900F900F900F90A7
:100530000F90DF91CF911F910F91FF90EF90089551
:100540000F931F93CF93DF9300D01F921F92CDB7CD
:10055000DEB7FC0109831A832B833C834D83161677
:1005600017063CF49C81842F058716872787908B7C
:10057000818B82899389860F971F938B828B0F9033
:100580000F900F900F900F90DF91CF911F910F91CF
:100590000895FC018081893449F48181843441F4D7
:1005A00081E09281953429F080E0089580E00895FB
:1005B00080E00895FB013081FC01208132130FC0DF
:1005C000FB013196DC011196695F7F4F91918D910E
:1005D000981307C0E617F707C9F781E0089580E090
:1005E000089580E00895CF93DF93EC01FB01DC01D7
:1005F0009B01295F3F4F91919D93E217F307D9F734
:100600001F82DF91CF910895469A82B9469888E279
:1006100090E0C4CD08954798F7CF0895479AF4CF56
:10062000089581E0F8DF82E796E0B8CD08958FEF76
:1006300081B93E9A3F9A88E3EEDF8EE0ECDF86E0F8
:10064000EADFEFCF08950F931F93CF93DF938C01D1
:10065000EB0180E8E0DF219711F480ECDCDF01158D
:10066000110541F0C0E0D0E084E1D5DF2196C0174C
:10067000D107D1F7DF91CF911F910F9108950F937B
:100680001F93CF93DF93EC01FC01319620E030E023
:100690002F5F3F4F91919111FBCF2115310551F003
:1006A0008E01C20FD31FF80181918F01B7DF0C17A4
:1006B0001D07C9F7DF91CF911F910F910895CF9337
:1006C000DF93EC01862F642F70E090E0BCDFCE0159
:1006D000D6DFDF91CF910895CF93C82F862F642F57
:1006E00070E090E0B0DF8C2F99DFCF9108951F92DA
:1006F0000F920FB60F9211240BB60F922F933F93C8
:100700004F935F936F937F938F939F93AF93BF9319
:10071000EF93FF938CED9BE0909385008093840092
:1007200061E086E293E00DDEFF91EF91BF91AF9122
:100730009F918F917F916F915F914F913F912F91F9
:100740000F900BBE0F900FBE0F901F90189581E079
:1007500080936F0078941092800084E080938100F1
:1007600008950F9300E026E041E061E086E293E027
:1007700024DD0F9108951092010281E08093000220
:100780008093F30D0895CF93C82F62E070E086E167
:1007900092E01BD78C2FFDD682E090E0F0DCCF9169
:1007A0000895CF93C82F62E070E089E192E00DD701
:1007B0008C2FEFD682E090E0E2DCCF91089581E3C8
:1007C000F0DF82E3EEDF85E08093010281E0809339
:1007D00000021092F30D0895EF92FF920F931F9372
:1007E000CF93DF937C010BE213E0C0E0D0E0B701D0
:1007F000C801E0DE811109C02196095E1F4FC8378C
:10080000D105A9F78FEF9FEF02C08C2F9D2FDF91AD
:10081000CF911F910F91FF90EF900895CF93C82F24
:1008200062E070E08FE192E0D0D68C2FB2D6CF910B
:100830000895CF93DF93FC01413329F0423321F136
:100840004033C9F41FC091E020C0ED91F0E020E0FA
:1008500030E0AF01022E02C0559547950A94E2F7A9
:1008600040FD8F5F2F5F3F4F2830310591F7AC1768
:10087000BD0759F702C09FEF80E0FB01E90FF11DB2
:10088000808313C090E001C092E0292F30E0D901AD
:10089000AA0FBB1FAA0FBB1F2A0F3B1FDF01A20F0E
:1008A000B31FED01259680E0D0CFDF91CF91089561
:1008B000CF93DF93CDB7DEB7C35CD1090FB6F89401
:1008C000DEBF0FBECDBF00E020E041E061E0CE0121
:1008D0008F5B9F4F72DC20E041E061E0CE018A5BDC
:1008E0009F4F6BDC20E041E061E0CE01855B9F4FD4
:1008F00064DCFE01E256FF4FCF010F961082118299
:100900001282138214823596E817F907B9F7C35596
:10091000DF4F1882CD5AD040C255DF4F1882CE5AD1
:10092000D040C155DF4F1882CF5AD04000E020E0C0
:1009300041E061E0CE0180559F4F3FDC20E041E087
:1009400061E0CE018B549F4F38DC20E041E061E054
:10095000CE0186549F4F31DC80E884B9C2D567DE72
:10096000F6DEE12C412C612CF12C512C712CCC2485
:10097000CA94DC2CAA24AA94BA2C0F2EFEE92F2E9E
:10098000312CF02D2C0E3D1E85E0280E311CB8D5E3
:10099000882309F4E3C1BAD5833509F0DFC1B6D5A0
:1009A00090E0FC01E254F109E231F10508F0D6C112
:1009B0008827EE58FF4F8F4F5DC762E070E082E2FC
:1009C00092E003D6FCDECAC162E070E085E292E00C
:1009D000FCD5D1DEC3C164E070E0CE010196C4D580
:1009E000BE016F5F7F4F86E293E0F0DB62E070E074
:1009F00088E292E0EAD5B2C189D5982E68E070E02D
:100A0000CE010196B1D562E070E08BE292E0DDD5D7
:100A100040E060E0CE01019652DECE010196DCDEC0
:100A20008C0185EC92E02BDE0F3F9FEF190781F4DC
:100A30008EE292E0D1DE8C0127E1209FC001219F50
:100A4000900D1124BE016F5F7F4F855D9C4FCBDD04
:100A500085EC92E014DE4AE0BE0161547F4FC8018C
:100A60002ED7CE0181549F4F0ADE85EC92E007DE3F
:100A700088EE93E084DBE1E39E1621F0F2E39F161B
:100A800031F16CC187E1809FF001819FF00D11244D
:100A9000E55DFC4F148A2091260330912703409195
:100AA00028035091290360912A03CE018F5B9F4F49
:100AB0009DDB8091F30D882321F081E364DE5801F2
:100AC0004DC1AFDD86E392E0DADD580147C187E131
:100AD000809FF001819FF00D1124E55DFC4F82E0C5
:100AE000848B209126033091270340912803509155
:100AF000290360912A03CE018A5B9F4F77DB8091A7
:100B0000F30D882329F127E1209FC001219F900D3B
:100B100011242091260330912703409128035091FE
:100B2000290360912A03855D9C4F9CDC18161906E9
:100B30005CF477DD81E492E0A2DD81E08093010244
:100B40008093000268010AC182E31DDE680106C1CC
:100B500068DD86E392E093DD680100C1D7D4E82E1A
:100B600068E070E0CE010196FFD462E070E085E5B8
:100B700092E02BD5CE0101962FDE8C0180ED97E01F
:100B8000FEDA8E2D0EDE81E3E81629F092E3E916F7
:100B900009F464C0DFC0C355DF4FB880CD5AD040E0
:100BA00080E33CDE84E690E0EADA40E3BE01635590
:100BB0007F4FCE0182569F4F3CDEEE24E394C35517
:100BC000DF4F8881CD5AD0408B1101C0E12C27E145
:100BD000209FC001219F900D1124855D9C4FD9DC81
:100BE00091E0811190E0992369F0EE2059F087E1BE
:100BF000809FF001819FF00D1124E55DFC4F81E0A5
:100C0000858B09C087E1809FF001819FF00D112441
:100C1000E55DFC4F158A27E1209FC001219F900DC3
:100C20001124FC01E55DFC4F21E0248B209126037B
:100C300030912703409128035091290360912A03A2
:100C40008D5C9C4FD3DA86E0809301020F2EF7E093
:100C5000EF2EF02DAA24AA94BA2C80C087E1809FA1
:100C6000F001819FF00D1124E55DFC4F85898823FB
:100C700051F087E1809FF001819FF00D1124E55D27
:100C8000FC4F81E0868B87E1809FF001819FF00D12
:100C90001124E55DFC4F83E0848B87E080930102A3
:100CA0000F2EF7E0EF2EF02DCC24CA94DC2C56C08A
:100CB0002DD4682F70E0CE01825A9F4F55D4662400
:100CC00063944CC023D4682F70E0CE0182589F4FAC
:100CD0004BD44424439442C019D48133B9F08233B5
:100CE00029F1803309F03AC065E070E0CE01825608
:100CF0009F4F3AD440E3BE0163557F4FCE018256E9
:100D00009F4F97DDEE2DEE7FEE2E28C065E070E060
:100D1000C1012AD441E3BE0163557F4FCE01825603
:100D20009F4F87DDFE2DFD7FEF2E18C065E070E040
:100D30008EE990E08C0F9D1F0A9616D442E3BE0107
:100D400063557F4FCE0182569F4F73DD8E2D8B7F73
:100D5000E82E04C00F2EF7E0EF2EF02DF11080C327
:100D6000809128038630D8F48091F30D811104C05E
:100D700080910102853079F022DDFF24F39470C365
:100D80008091F30D882321F080910102853031F4A8
:100D9000F2DCF12C04C0FF24F39401C0F12C9FEF8E
:100DA000A916B90689F120912603309127034091B5
:100DB00028035091290360912A03CE018A5B9F4F3B
:100DC0005EDA899744F080912A0380FF02C02F9A4F
:100DD00003C02F9801C02F9820912603309127033C
:100DE000409128035091290360912A03CE018F5B23
:100DF0009F4F45DACD9744F081E3D3DC83E08093C5
:100E00002803AA24AA94BA2CEFEFCE16DE0689F1A5
:100E10002091260330912703409128035091290304
:100E200060912A03CE018A5B9F4F29DA899744F0AB
:100E300080912A0380FF02C02F9A03C02F9801C01F
:100E40002F98209126033091270340912803509139
:100E5000290360912A03CE018A5B9F4F10DACD9758
:100E600044F082E39EDC81E080932803CC24CA9482
:100E7000DC2C8091010290E08830910508F0C6C218
:100E8000FC018827EC57FF4F8F4FF4C4E0FE02C0EF
:100E900080E3C4DCE1FE02C081E3C0DCE2FE02C00C
:100EA00082E3BCDC20912603309127034091280384
:100EB0005091290360912A03CE0180559F4FDFD9BD
:100EC00040970CF479C085E0E6E2F3E0DE01A0553E
:100ED000BF4F01900D928A95E1F7A3DB40E060E0FF
:100EE00088E592E0ECDB0F2EF4E28F2EF02DC35557
:100EF000DF4F8881CD5AD040982C981A1DEC919ED6
:100F0000012D112406950695069580E3800F86DB5A
:100F1000000F802F880F880F080F892D801B805DA0
:100F20007DDB88EE93E02BD97CDB40E060E086E659
:100F300092E0C5DBC255DF4F8881CE5AD040982C55
:100F4000981A919E012D112406950695069580E329
:100F5000800F64DB000F802F880F880F080F892D0A
:100F6000801B805D5BDB88EE93E009D95ADB40E0B3
:100F700060E085E792E0A3DBC155DF4F8881CF5A5F
:100F8000D040082D081B019F112D11241695169590
:100F9000169580E3810F42DB110F812F880F880F98
:100FA000180F802F811B805D39DB88EE93E0E7D836
:100FB00081E08093000204C080910002882341F008
:100FC00030DB40E060E084E892E079DB10920002E0
:100FD0002091260330912703409128035091290343
:100FE00060912A03CE01855B9F4F49D918161906D7
:100FF0000CF00CC261E070E080E090E024DB06E2DF
:1010000013E0F80182814AE0BE0161547F4F90E015
:1010100056D4CE0181549F4F32DB8AE3FFDAF801C8
:1010200083814AE0BE0161547F4F90E048D4CE01F5
:1010300081549F4F24DB8AE3F1DAF80184814AE08E
:10104000BE0161547F4F90E03AD4CE0181549F4F4E
:1010500016DB2091260330912703409128035091FD
:10106000290360912A03CE01855B9F4FBFD8CEC173
:1010700080910002882309F461C087E18C9DF00112
:101080008D9DF00D1124E55DFC4F85898823C9F005
:10109000C8DA40E060E084E992E011DB41E060E022
:1010A00080EA92E00CDB87E18C9DF0018D9DF00DD4
:1010B0001124E55DFC4F8689882319F081EB92E0CD
:1010C000DEDAAFDA40E060E08DEB92E0F8DA27E1BB
:1010D0002C9DC0012D9D900D11242091260330914F
:1010E0002703409128035091290360912A03855DCD
:1010F0009C4FB8D94AE0BE0161547F4FE0D3CE0186
:1011000081549F4FBCDA41E060E087EC92E0D7DA8F
:1011100010920002772091F08E01005B1F4F480172
:10112000870C911C61E070E080E090E08CDAF801BF
:1011300081918F0173DA80169106A1F751D38F3F09
:1011400009F464C18A3281F4772009F45FC17A948A
:10115000E0E5F0E0EC0FFD1FE70DF11D108241E02E
:10116000672D80E2B9DA52C18332D9F4F6E07F12FA
:101170004DC167961FAE679762E070E08CE192E028
:1011800024D287E006D267E070E0CE01805B9F4FFB
:101190001CD281E08093000283E080930102712CD5
:1011A00035C1E0E5F0E0EC0FFD1FE70DF11D808398
:1011B00041E0672D91DA739429C180910002882360
:1011C00041F02FDA40E060E08EEC92E078DA1092A5
:1011D0000002662009F41AC124DA40E060E0CE0182
:1011E000825A9F4F6CDA88EE93E00E94BF0081E044
:1011F000809300026DED72E0CE01825A9F4F56D36C
:10120000892B21F410920102612C00C182E08093AD
:101210000102612C512CFAC080910002882371F0E8
:1012200000DA40E060E0CE01825A9F4F48DA41E0A8
:1012300060E08DEE92E043DA10920002D1D28F3F4F
:1012400009F4E4C0833209F03DC086E05812DEC0E4
:101250006E961FAE6E9727E12C9DC0012D9D900DBF
:1012600011242091260330912703409128035091A7
:10127000290360912A03855D9C4FF4D84AE0BE01A2
:1012800061547F4F1CD3CF53DF4F1882C15CD040D5
:1012900062E070E084EF92E098D18AE07AD167E072
:1012A00070E0CE01895A9F4F90D163E070E0CE018B
:1012B00081549F4F8AD184E08093010281E0809322
:1012C0000002A4C08A3299F4552009F49FC01FEF90
:1012D000150DE7E5F0E0EC0FFD1FE10FF11D1082A9
:1012E00065E0650D41E080E2F7D9512E8FC095E0B1
:1012F000951508F48BC0E7E5F0E0EC0FFD1FE50D58
:10130000F11D808366E0650D41E08AE2E5D95394E2
:101310007DC080910002882341F083D940E060E0E5
:101320008EEC92E0CCD910920002442009F46EC0F9
:1013300078D940E060E0CE0182589F4FC0D988EE56
:1013400093E00E94BF0081E0809300026DED72E0A7
:10135000CE0182589F4FAAD2892B21F4109201020C
:10136000412C54C067EF72E0CE0182589F4F9ED24D
:10137000892BF1F427E12C9DC0012D9D900D1124A6
:10138000009126031091270320912803309129030F
:1013900040912A0360E070E0855D9C4FD1D882E3E4
:1013A000F2D91092010281E080930002412C2EC0FC
:1013B0006AEF72E0CE0182589F4F78D2892B21F4D8
:1013C00010920102412C22C069E073E0CE018258E4
:1013D0009F4F6CD2892B31F482E080930102412C23
:1013E000512C14C082E080930102412C0FC08091E7
:1013F0000002882331F015D941E064E088E193E0F0
:101400005ED91092010202C01092010220912603BF
:1014100030912703409128035091290360912A03BA
:10142000CE018B549F4F0E943F018997A4F062E048
:1014300070E082E293E0C9D0209126033091270327
:10144000409128035091290360912A03CE018B54C7
:101450009F4F0E94F60082E390E00E94BF0097CA6F
:1014600080912803863008F08BCC99CCCF92DF9204
:10147000EF92FF920F93CF93DF9300D01F921F92B2
:10148000CDB7DEB70F2EFBE2EF2EF3E0FF2EF02DEF
:101490000F2EF3EFCF2EFDE0DF2EF02D00E020E049
:1014A00041E061E0CE0101960E94DD0029813A8190
:1014B0004B815C816D81C7010E94EB0187E1E80EE1
:1014C000F11CEC14FD0451F70F900F900F900F904A
:1014D0000F90DF91CF910F91FF90EF90DF90CF9021
:1014E000089583E38093C4001092C5001092C00059
:1014F00088EB8093C100789486E08093C2000895C1
:101500008091F50D9091F40D891B08959091F40D43
:101510008091F50D981771F0E92FF0E0EA50F24F45
:1015200080819F5F9F3F19F09093F40D0895109272
:10153000F40D089581E090E00E94BF009091F40DB9
:101540008091F50D981771F0E92FF0E0EA50F24F15
:1015500080819F5F9F3F19F09093F40D0895109242
:10156000F40D089580E008950F931F93CF93DF93B8
:10157000161617064CF48C01EC01060F171FC6DF78
:101580008993C017D107D9F7DF91CF911F910F91A0
:1015900008959091F60EE92FF0E0E950F14F808325
:1015A0009F5F9F3F19F09093F60E02C01092F60EC7
:1015B0008091C00085FF08C0E0ECF0E080818F7D65
:1015C000808380818062808308950F931F93CF93DF
:1015D000DF93161617064CF48C01EC01060F171F4B
:1015E0008991D7DFC017D107D9F7DF91CF911F912C
:1015F0000F9108951F920F920FB60F9211240BB600
:101600000F928F93EF93FF93E091F50E8091F60E7A
:10161000E81781F0F0E0E950F14F80818093C60037
:101620008091F50E8F5F8F3F19F08093F50E02C009
:101630001092F50EFF91EF918F910F900BBE0F90CE
:101640000FBE0F901F9018951F920F920FB60F921A
:1016500011240BB60F928F939F93EF93FF9380917A
:10166000F50D9091C600E82FF0E0EA50F24F90831C
:101670008F5F8F3F19F08093F50D02C01092F50D2A
:10168000FF91EF919F918F910F900BBE0F900FBE26
:101690000F901F901895E0E0F1E08081908194FF19
:1016A00005C083FB882780F9819501C081E0909176
:1016B000000195FF82E09091000196FF83E008957C
:1016C000FF920F931F93CF93DF93082FC0E010E09A
:1016D000D1E0F12CE0DF801711F0CF5F01C0C0E056
:1016E0008D2FCA3008F48F2D81110CC08D2F143628
:1016F00008F48F2D811106C01F5F8AE090E00E94E0
:10170000BF00E8CF8AE090E00E94BF00DF91CF9158
:101710001F910F91FF900895CF93DF93BCDFD82FD7
:101720008F3F79F0CAE0B7DFD8130DC0C15021F464
:101730008D2FC6DF8D2F08C08AE090E00E94BF0089
:10174000F2CF8FEF01C08FEFDF91CF9108958130FD
:10175000B1F028F0823019F1833089F13FC0613057
:1017600041F028F0623039F0633039F037C091E34E
:1017700035C092E333C093E331C091E42FC06130B0
:1017800041F028F0623039F0633039F027C094E33B
:1017900025C095E323C096E321C092E41FC06130C9
:1017A00041F028F0623039F0633039F017C097E328
:1017B00015C098E313C099E311C093E40FC06130E2
:1017C00041F028F0623039F0633039F007C09AE216
:1017D00005C090E303C093E201C094E4892F08950B
:1017E000E1E0F1E0808187788083E2E0F1E08081D0
:1017F0008867808384B18F6084B9289885B18E60B2
:1018000085B98ADF8F3F19F060E0A1CF089529984C
:1018100085B18D6085B980DF8F3F19F061E097CF8A
:1018200008952A9885B18B6085B976DF8F3F19F0CE
:1018300062E08DCF08952B9885B1876085B96CDF04
:101840008F3F19F063E083CF08958FEF089597FBE2
:10185000072E16F4009406D077FD08D013D007FCAD
:1018600005D03EF4909581959F4F089570956195B0
:101870007F4F0895EE0FFF1F881F8BBF0790F691D3
:10188000E02D1994AA1BBB1B51E107C0AA1FBB1F67
:10189000A617B70710F0A61BB70B881F991F5A95FC
:1018A000A9F780959095BC01CD010895FB01DC015D
:1018B0008D91019080190110D9F3990B0895BB27E0
:1018C0004A3031F4992322F4BDE2909581959F4FDF
:1018D00001C0BB27FB015527AA27880F991FAA1F04
:1018E000A41710F0A41B83955051B9F7A05DAA333B
:1018F00008F0A95DA193009779F7B111B193119206
:10190000CB0100C0DC01FC01672F71917723E1F767
:10191000329704C07C916D9370836291AE17BF07BC
:08192000C8F30895F894FFCF0D
:101928000105646966664D696E0063616C63756C78
:10193800615067746F0045410045460045430045C6
:101948004D00454200454400454800454E002323CC
:101958002323232323004465736C696761646F2123
:10196800005265616C697A65206F20506167616D0E
:10197800656E746F00455300566167617320546546
:101988007272656F3A005661676173203120616E2B
:101998006461723A005661676173203220616E6437
:1019A80061723A004573746163696F6E614D696372
:1019B800726F73005661676120496C6567616C00DE
:1019C8004D756C7461207365207265696E63696416
:1019D800005265696E636964656E7465005061677D
:1019E8007565205224200043415254414F004573ED
:1019F8007065726120526573702E2E2E00436172DD
:101A080074616F20496E76616C69646F0053656E0E
:101A180068613A004550004F4B0053616C646F2079
:101A2800496E76616C69646F0053656E6861204920
:101A38006E76616C696461004465736C69676164A2
:061A48006F00454F000095
:00000001FF
