:1000000072C000009EC000009CC000009AC00000AA
:1000100098C0000096C0000094C0000092C000008C
:1000200090C000008EC000008CC000008AC000009C
:1000300088C0000086C0000084C0000082C00000AC
:1000400080C000007EC000007CC000007AC00000BC
:1000500078C0000076C0000074C0000072C00000CC
:1000600070C000006EC000006CC000006AC00000DC
:1000700068C0000066C0000064C0000062C00000EC
:1000800060C000005EC000005CC000005AC00000FC
:1000900058C0000056C0000054C0000052C000000C
:1000A00050C000004EC000004CC000004AC000001C
:1000B00048C0000046C0000044C0000042C000002C
:1000C00040C000003EC000003CC000003AC000003C
:1000D00038C0000036C0000034C0000032C000004C
:1000E00030C000006D0211241FBECFEFD1E2DEBF91
:1000F000CDBF00E00CBF12E0A0E0B2E0EAE8F6E01D
:1001000000E00BBF02C007900D92AE31B107D9F7E6
:1001100026E1AEE1B2E001C01D92A332B207E1F7E1
:1001200010E0C3E7D0E000E005C021970109802F6F
:10013000FE01A1D2C237D10780E00807B1F770D124
:10014000A2C25ECF16BC23E025BD22E024BD29EF6C
:1001500027BD009729F0A99BFECFA99A0197D9F74F
:1001600008950F93FC0160834183228303830F91E1
:100170000895FC01DB018C91808311968C9111977D
:10018000818312968C911297828313968C9183832C
:100190000895CF93FC01CB0143812281C18130813D
:1001A0006CE370E01FD2982F822F860F2BEA829F7C
:1001B000212D112422952F70622F630F7C2F38E19F
:1001C000239F80191124940FCF910895CF92DF922D
:1001D000EF92FF920F931F93FC01A52F042F10E0C5
:1001E0008081081B110980EA95E0089F6001099F42
:1001F000D00C189FD00C11240D2C000CEE08FF0819
:10020000262F30E04281241B31094CE3429F8001BC
:10021000439F100D1124012E000C220B330BC00E36
:10022000D11EE21EF31E072F10E02381021B1109CD
:10023000012E000C220B330BB701A601400F511FFA
:10024000621F731F2A2F30E0E1812E1B3109289F86
:10025000F001299FF00D389FF00D11242EE12E9F03
:10026000C0012F9F900D1124092E000CAA0BBB0B6F
:100270008C019D01040F151F261F371FC901B801EE
:100280001F910F91FF90EF90DF90CF900895AF9264
:10029000BF92CF92DF92EF92FF920F931F93CF9373
:1002A000DF93EC018C01085F1F4F4C855D856E85E7
:1002B0007F85C8018BDF6B017C016E327105810582
:1002C000910548F46CE370E0C80163DF688B798BBB
:1002D0008A8B9B8B26C02EE130E040E050E095D128
:1002E000672B682B692BB1F056013EE1A30EB11CC0
:1002F000C701B6012CE330E040E050E086D1950123
:10030000261B370BB901C80144DF688B798B8A8BB8
:100310009B8B07C0B601C8013CDF688B798B8A8B49
:100320009B8B4C855D856E857F85CE0140964EDF2B
:100330006F3071058105910548F46FE070E0CE01E2
:100340000C9627DF688B798B8A8B9B8BDF91CF9103
:100350001F910F91FF90EF90DF90CF90BF90AF90E3
:100360000895CF93DF93DC0181E018968C93189762
:1003700019968C9319971A961C921A971B961C9291
:100380001B971C968C931C971D968C931D971E96FD
:100390001C921E971F961C921F9750968C935097F5
:1003A00051968C93519752961C92529753961C9249
:1003B0005397FB01ED01695F7F4F81918993E617A8
:1003C000F707D9F717961C92179718962D933D9318
:1003D0004D935C931B971C962D933D934D935C938B
:1003E0001F97CD0154DFDF91CF9108951F93CF93D5
:1003F000DF931F921F92CDB7DEB7182F62E070E037
:1004000080E092E0D6D0812FCFD062E070E0CE01C4
:100410000196B5D00F900F90DF91CF911F91089565
:10042000CF93DF93CDB7DEB7C054D1090FB6F894A0
:10043000DEBF0FBECDBF80E884B98ED001E085B1AC
:10044000805885B9CBD0882309F43EC093D083353A
:1004500009F03AC08FD0843489F018F4823431F036
:1004600033C0883499F08E34E9F02EC010922216F1
:1004700062E070E083E092E09CD026C000932216F8
:1004800062E070E086E092E094D01EC064E070E02C
:10049000CE01019674D0BE016F5F7F4F8EE196E171
:1004A00068DE12C067D0182F68E070E0CE010196B8
:1004B00066D062E070E089E092E07BD08091221605
:1004C000882311F0812F92DF62E070E08CE092E0EF
:1004D00070D084E690E036DEB2CFCF92DF92EF921A
:1004E000FF920F93CF93DF9300D01F92CDB7DEB76B
:1004F00000E020E041E061E08EE196E132DE0F2E87
:10050000FEE1EF2EF2E0FF2EF02D0F2EFEE1CF2EBA
:10051000F6E1DF2EF02D00E020E041E061E0CE01C9
:1005200001961FDE29813A814B815C8165E172E091
:10053000C70117DF84E1E80EF11CEC14FD0459F744
:100540000F900F900F900F90DF91CF910F91FF9030
:10055000EF90DF90CF90089583E38093C4001092D2
:10056000C5001092C00088E18093C10086E08093AE
:10057000C20008958091C0008091C6000895CF9375
:10058000DF93161617066CF4FC01680F791FC0EC98
:10059000D0E0A6ECB0E088819C919193E617F70734
:1005A000D1F7DF91CF9108959091C0008093C6005C
:1005B0000895CF93DF93161617066CF4FC01680FAD
:1005C000791FC0ECD0E0A6ECB0E0919188819C93BB
:1005D000E617F707D1F7DF91CF9108958091C0001A
:1005E0008078089597FB072E16F4009406D077FDC7
:1005F00008D02DD007FC05D03EF4909581959F4FF3
:100600000895709561957F4F0895A1E21A2EAA1B57
:10061000BB1BFD010DC0AA1FBB1FEE1FFF1FA217B2
:10062000B307E407F50720F0A21BB30BE40BF50BAF
:10063000661F771F881F991F1A9469F76095709538
:10064000809590959B01AC01BD01CF010895AA1B37
:10065000BB1B51E107C0AA1FBB1FA617B70710F0AD
:10066000A61BB70B881F991F5A95A9F780959095DF
:10067000BC01CD010895EE0FFF1F881F8BBF0790AF
:0A068000F691E02D1994F894FFCFD5
:10068A00454100454200454400454E00454F00455E
:0E069A00460045430041414130303030000001
:00000001FF
