S01A00004156524573746163696F6E614D6963726F732E737265631D
S11300008DC00000BBC00000B9C00000B7C0000034
S1130010B5C00000B3C00000B1C00000AFC0000014
S1130020ADC00000ABC00000A9C00000A7C0000024
S1130030A5C00000A3C00000A1C000009FC0000034
S11300409DC000009BC0000099C0000097C0000044
S11300504EC3000093C0000091C000008FC0000098
S11300608DC000000C946F0B0C94450B87C00000EE
S113007085C0000083C0000081C000007FC0000074
S11300807DC000007BC0000079C0000077C0000084
S113009075C0000073C0000071C000006FC0000094
S11300A06DC000006BC0000069C0000067C00000A4
S11300B065C0000063C0000061C000005FC00000B4
S11300C05DC000005BC0000059C0000057C00000C4
S11300D055C0000053C0000051C000004FC00000D4
S11300E04DC000000B0581061205DC06DC06DC06AB
S11300F01905DC06DC06DC06DC0695062A05DC06AA
S11301008B06DC06DC06DA05740762083609070983
S1130110B309420A4C0A4F0AB103810A11241FBED3
S1130120CFEFD1E2DEBFCDBF00E00CBF13E0A0E013
S1130130B2E0EEEBF9E100E00BBF02C007900D92D4
S1130140AE32B107D9F72FE0AEE2B3E001C01D92A1
S1130150AE3FB207E1F710E0CEE8D0E000E006C021
S113016021970109802FFE010E94850CCC38D1070C
S113017080E00807A9F7C9D30C94DD0C41CF16BC65
S113018023E025BD22E024BD29EF27BD009729F0F7
S1130190A99BFECFA99A0197D9F7089516BC21E02F
S11301A025BD22E024BD2FE027BD009729F0A99B9F
S11301B0FECFA99A0197D9F708950F93FC016083A4
S11301C041832283038314820F910895FC01DB0190
S11301D08C91808311968C911197818312968C91C6
S11301E01297828313968C9183830895CF93DF9320
S11301F000D01F921F92CDB7DEB7FC01208331835C
S11302004283538364830F900F900F900F900F904D
S1130210DF91CF9108950F931F93CF93DF9300D075
S11302201F921F92CDB7DEB7242F30E0FC0142812C
S1130230241B31094CE3429F8001439F100D11247C
S1130240252F30E08381A901481B5109040F151F94
S113025068E070E082E092E00E94300B802F0E9400
S1130260140B8AE00E94140BC8010F900F900F909A
S11302700F900F90DF91CF911F910F9108950F93DD
S11302801F93CF93DF9300D01F921F92CDB7DEB799
S1130290FC01832F30E09081291B3109A0EAB5E0ED
S11302A02A9F80012B9F100D3A9F100D11247CE38F
S11302B0709F9001719F300D112490E01181811B7A
S11302C091098A9F80018B9F100D9A9F100D112414
S11302D0A8E0B7E00A9FC0010B9F900D1A9F900DF4
S11302E01124280F391FA42FB0E08281A81BB10963
S11302F000E11EE0A09FC001A19F900DB09F900D52
S11303001124280F391F452F50E08381481B5109C0
S1130310749FC001759F900D1124280F391F70E040
S11303208481AB01481B5109CA01820F931F0F90AE
S11303300F900F900F900F90DF91CF911F910F911D
S11303400895FC018481680F64836C3378F089E834
S1130350689F812D11248295869587709381980FCB
S113036093832CE3829F60191124648383818C33EB
S113037078F099E8899F912D11249295969597701C
S11303802281290F22832CE3929F801911248383D5
S11303908281883170F09BEA899F912D1124929576
S11303A09F702081290F208328E1929F80191124B6
S11303B0828380818E3170F099E8899F912D112478
S11303C092959F702181290F21832EE1929F80199C
S11303D0112480830895CF93DF9300D01F921F923E
S11303E0CDB7DEB7DC0129833A834B835C836D830D
S11303F081E01D968C931D971E968C931E971F96D5
S11304001C921F9750961C92509751961C9251978C
S113041053961C921E92529755961C925597569637
S11304201C92569783E054968C935497FD019D013A
S1130430295F3F4F83E28193E217F307E1F71796B1
S11304401C92179785E0FE013196189601900D9243
S11304508A95E1F70F900F900F900F900F90DF9116
S1130460CF910895EF92FF920F931F93CF93DF9351
S113047000D01F921F92CDB7DEB77C0129833A8347
S11304804B835C836D83C7010896C5DE9C01803174
S11304909105ECF08D33910544F4F7018289938939
S11304A00AE010E0081B190B14C0CC976EE170E051
S11304B00E94720C8B01000F111F000F111F025FAD
S11304C01F4FF70182899389081B190B02C000E0B2
S11304D010E0F7018589882371F08689882359F013
S11304E0C9016EE170E00E94720C6F5F7F4F660F6E
S11304F0771F060F171F29813A814B815C816D811B
S1130500C7010D9688DE409714F400E010E06DE01A
S113051070E08AE092E00E94300B802F0E94140B5E
S11305208AE00E94140BC8010F900F900F900F9057
S11305300F90DF91CF911F910F91FF90EF9008954D
S11305400F931F93CF93DF9300D01F921F92CDB7C9
S1130550DEB7FC0109831A832B833C834D83161673
S113056017063CF49C81842F058716872787908B78
S1130570818B82899389860F971F938B828B0F902F
S11305800F900F900F900F90DF91CF911F910F91CB
S11305900895FC018081893449F48181843441F4D3
S11305A081E09281953429F080E0089580E00895F7
S11305B080E00895FB013081FC01208132130FC0DB
S11305C0FB013196DC011196695F7F4F91918D910A
S11305D0981307C0E617F707C9F781E0089580E08C
S11305E0089580E00895CF93DF93EC01FB01DC01D3
S11305F09B01295F3F4F91919D93E217F307D9F730
S11306001F82DF91CF910895469A82B9469888E275
S113061090E0C4CD08954798F7CF0895479AF4CF52
S1130620089581E0F8DF82E796E0B8CD08958FEF72
S113063081B93E9A3F9A88E3EEDF8EE0ECDF86E0F4
S1130640EADFEFCF08950F931F93CF93DF938C01CD
S1130650EB0180E8E0DF219711F480ECDCDF011589
S1130660110541F0C0E0D0E084E1D5DF2196C01748
S1130670D107D1F7DF91CF911F910F9108950F9377
S11306801F93CF93DF93EC01FC01319620E030E01F
S11306902F5F3F4F91919111FBCF2115310551F0FF
S11306A08E01C20FD31FF80181918F01B7DF0C17A0
S11306B01D07C9F7DF91CF911F910F910895CF9333
S11306C0DF93EC01862F642F70E090E0BCDFCE0155
S11306D0D6DFDF91CF910895CF93C82F862F642F53
S11306E070E090E0B0DF8C2F99DFCF9108951F92D6
S11306F00F920FB60F9211240BB60F922F933F93C4
S11307004F935F936F937F938F939F93AF93BF9315
S1130710EF93FF938CED9BE090938500809384008E
S113072061E08EE293E00DDEFF91EF91BF91AF9116
S11307309F918F917F916F915F914F913F912F91F5
S11307400F900BBE0F900FBE0F901F90189581E075
S113075080936F0078941092800084E080938100ED
S113076008950F9300E026E041E061E08EE293E01B
S113077024DD0F9108951092010281E0809300021C
S11307808093FB0D0895CF93C82F62E070E086E15B
S113079092E066D78C2F48D782E090E0F0DCCF91CE
S11307A00895CF93C82F62E070E089E192E058D7B2
S11307B08C2F3AD782E090E0E2DCCF91089581E378
S11307C0F0DF82E3EEDF85E08093010281E0809335
S11307D000021092FB0D0895EF92FF920F931F9366
S11307E0CF93DF937C0103E313E0C0E0D0E0B701D3
S11307F0C801E0DE811109C02196095E1F4FC83788
S1130800D105A9F78FEF9FEF02C08C2F9D2FDF91A9
S1130810CF911F910F91FF90EF900895CF93C82F20
S113082062E070E08FE192E01BD78C2FFDD6CF9170
S11308300895CF93DF93FC01413329F0423321F132
S11308404033C9F41FC091E020C0ED91F0E020E0F6
S113085030E0AF01022E02C0559547950A94E2F7A5
S113086040FD8F5F2F5F3F4F2830310591F7AC1764
S1130870BD0759F702C09FEF80E0FB01E90FF11DAE
S1130880808313C090E001C092E0292F30E0D901A9
S1130890AA0FBB1FAA0FBB1F2A0F3B1FDF01A20F0A
S11308A0B31FED01259680E0D0CFDF91CF9108955D
S11308B0CF93DF9300D01F92CDB7DEB762E070E034
S11308C082E292E0CDD680E0AFD680E1ADD668E09A
S11308D070E0CE010A96C4D64AE0BE016F5F7F4F36
S11308E08C8D9D8D0E94AA0C64E070E0CE0101966F
S11308F0B7D664E070E085E292E0B2D60F900F9034
S11309000F900F90DF91CF910895CF93DF93CDB7E0
S1130910DEB7C55CD1090FB6F894DEBF0FBECDBFFC
S113092000E020E041E061E0CE018F5B9F4F45DCB9
S113093020E041E061E0CE018A5B9F4F3EDC20E095
S113094041E061E0CE01855B9F4F37DCFE01E2565A
S1130950FF4FCF010F9610821182128213821482EC
S11309603596E817F907B9F7C355DF4F1882CD5A02
S1130970D040C255DF4F1882CE5AD040C155DF4F08
S11309801882CF5AD04000E020E041E061E0CE017F
S113099080559F4F12DC20E041E061E0CE018B5492
S11309A09F4F0BDC20E041E061E0CE0186549F4F75
S11309B004DC80E884B9E0D53ADEC9DEE12C212CE0
S11309C0612CF12C312C712CCC24CA94DC2CAA245B
S11309D0AA94BA2C8EE990E08C0F9D1F0596CC53F7
S11309E0DF4F99838883C45CD040D5D5882309F42C
S11309F0E3C1D7D5833509F0DFC1D3D590E0FC013D
S1130A00E254F109E231F10508F0D6C18827EE5825
S1130A10FF4F8F4F7AC762E070E08AE292E020D6FF
S1130A20CEDECAC162E070E08DE292E019D6A3DEA8
S1130A30C3C164E070E0CE010196E1D5BE016F5FF1
S1130A407F4F8EE293E0C2DB62E070E080E392E0ED
S1130A5007D6B2C1A6D5182F68E070E0CE01019682
S1130A60CED562E070E083E392E0FAD540E060E046
S1130A70CE01019624DECE010196AEDE2C018DEC72
S1130A8092E0FDDD9FEF4916590681F486E392E07A
S1130A90A3DE2C0127E1249DC001259D900D112486
S1130AA0BE016F5F7F4F8D5C9C4F9DDD8DEC92E0AE
S1130AB0E6DD4AE0BE0161547F4FC2014BD7CE014F
S1130AC081549F4FDCDD8DEC92E0D9DD88EE93E01C
S1130AD056DB113319F0123331F16EC187E1849D75
S1130AE0F001859DF00D1124ED5CFC4F148A2091DA
S1130AF02E0330912F0340913003509131036091C4
S1130B003203CE018F5B9F4F71DB8091FB0D8823F5
S1130B1021F081E338DE52014FC183DD8EE392E0A0
S1130B20AEDD520149C187E1849DF001859DF00D40
S1130B301124ED5CFC4F82E0848B20912E033091D4
S1130B402F03409130035091310360913203CE0161
S1130B508A5B9F4F4BDB8091FB0D882329F127E1B2
S1130B60249DC001259D900D112420912E033091C8
S1130B702F034091300350913103609132038D5C17
S1130B809C4F70DC181619065CF44BDD89E492E086
S1130B9076DD81E0809301028093000262010CC142
S1130BA082E3F1DD620108C13CDD8EE392E067DDA2
S1130BB0620102C1F6D4182F68E070E0CE010196FC
S1130BC01ED562E070E08DE592E04AD5CE01019633
S1130BD003DE2C0180ED97E0D2DA812FE2DD1133C0
S1130BE021F0123309F463C0E3C0C355DF4F088119
S1130BF0CD5AD04080E312DE84E690E0C0DA40E3D0
S1130C00BE0163557F4FCE0182569F4F12DE11E025
S1130C10C355DF4F8881CD5AD040801301C010E006
S1130C2027E1249DC001259D900D11248D5C9C4FCE
S1130C30B0DC91E0811190E0992369F0112359F01F
S1130C4087E1849DF001859DF00D1124ED5CFC4F3E
S1130C5081E0858B09C087E1849DF001859DF00DBD
S1130C601124ED5CFC4F158A27E1249DC001259DCC
S1130C70900D1124FC01ED5CFC4F21E0248B2091AC
S1130C802E0330912F034091300350913103609132
S1130C903203855C9C4FAADA86E0809301020F2E12
S1130CA0F7E0EF2EF02DAA24AA94BA2C85C087E190
S1130CB0849DF001859DF00D1124ED5CFC4F858928
S1130CC0882351F087E1849DF001859DF00D112466
S1130CD0ED5CFC4F81E0868B87E1849DF001859D6E
S1130CE0F00D1124ED5CFC4F83E0848B87E080934E
S1130CF001020F2EF7E0EF2EF02DCC24CA94DC2C49
S1130D005BC04FD4682F70E0CE01825A9F4F77D4D6
S1130D106624639451C045D4682F70E0CE01825894
S1130D209F4F6DD42224239447C03BD48133B9F020
S1130D30823351F1803309F03FC065E070E0CE01A9
S1130D4082569F4F5CD440E3BE0163557F4FCE0172
S1130D5082569F4F6EDDEE2DEE7FEE2E2DC065E0A8
S1130D6070E0CC53DF4F88819981C45CD04047D474
S1130D7041E3BE0163557F4FCE0182569F4F59DD3B
S1130D80FE2DFD7FEF2E18C065E070E08EE990E047
S1130D908C0F9D1F0A9633D442E3BE0163557F4FE7
S1130DA0CE0182569F4F45DD8E2D8B7FE82E04C0E9
S1130DB00F2EF7E0EF2EF02DF1109DC3809130033C
S1130DC08630D8F48091FB0D811104C0809101021A
S1130DD0853079F0F4DCFF24F3948DC38091FB0D0E
S1130DE0882321F080910102853031F4C4DCF12C98
S1130DF004C0FF24F39401C0F12C9FEFA916B90697
S1130E0089F120912E0330912F03409130035091AA
S1130E10310360913203CE018A5B9F4F30DA8997A8
S1130E2044F08091320380FF02C02F9A03C02F98B0
S1130E3001C02F9820912E0330912F03409130034D
S1130E405091310360913203CE018F5B9F4F17DACB
S1130E50CD9744F081E3A5DC83E080933003AA249A
S1130E60AA94BA2CEFEFCE16DE0689F120912E0358
S1130E7030912F034091300350913103609132033C
S1130E80CE018A5B9F4FFBD9899744F0809132034E
S1130E9080FF02C02F9A03C02F9801C02F98209181
S1130EA02E0330912F034091300350913103609110
S1130EB03203CE018A5B9F4FE2D9CD9744F082E39F
S1130EC070DC81E080933003CC24CA94DC2C8091C4
S1130ED0010290E08830910508F0E3C2FC01882704
S1130EE0EC57FF4F8F4F11C5E0FE02C080E396DC44
S1130EF0E1FE02C081E392DCE2FE02C082E38EDC0A
S1130F0020912E0330912F034091300350913103EF
S1130F1060913203CE0180559F4FB1D940970CF4B4
S1130F2075C085E0EEE2F3E0DE01A055BF4F01900D
S1130F300D928A95E1F775DB40E060E080E692E08F
S1130F40BEDB04E2C355DF4F8881CD5AD040802EEA
S1130F50881A1DEC819E912C112496949694969453
S1130F6080E3890D5BDB990C892D880F880F980E1F
S1130F70882D8919805D52DB88EE93E000D951DB1E
S1130F8040E060E08EE692E09ADBC255DF4F888154
S1130F90CE5AD040802E881A819E912C112496948A
S1130FA09694969480E3890D39DB990C892D880FEA
S1130FB0880F980E882D8919805D30DB88EE93E0C8
S1130FC0DED82FDB40E060E08DE792E078DBC155AE
S1130FD0DF4F8881CF5AD040081B019F112D112467
S1130FE016951695169580E3810F18DB110F812F46
S1130FF0880F880F180F802F811B805D0FDB88EE10
S113100093E0BDD881E08093000204C08091000287
S1131010882341F006DB40E060E08CE892E04FDB9F
S11310201092000220912E0330912F03409130033F
S11310305091310360913203CE01855B9F4F1FD9DC
S1131040181619060CF02DC261E070E080E090E003
S1131050FADA0EE213E0F80182814AE0BE0161543B
S11310607F4F90E077D4CE0181549F4F08DB8AE311
S1131070D5DAF80183814AE0BE0161547F4F90E0E4
S113108069D4CE0181549F4FFADA8AE3C7DAF801B2
S113109084814AE0BE0161547F4F90E05BD4CE016D
S11310A081549F4FECDA20912E0330912F0340910D
S11310B030035091310360913203CE01855B9F4F21
S11310C095D8EFC180910002882309F461C087E1BB
S11310D08C9DF0018D9DF00D1124ED5CFC4F8589F4
S11310E08823C9F09EDA40E060E08CE992E0E7DA18
S11310F041E060E088EA92E0E2DA87E18C9DF00169
S11311008D9DF00D1124ED5CFC4F8689882319F028
S113111089EB92E0B4DA85DA40E060E085EC92E0B5
S1131120CEDA27E12C9DC0012D9D900D1124209134
S11311302E0330912F03409130035091310360917D
S113114032038D5C9C4F8ED94AE0BE0161547F4FBF
S113115001D4CE0181549F4F92DA41E060E08FECDC
S113116092E0ADDA10920002772091F08E01005BDC
S11311701F4F4801870C911C61E070E080E090E013
S113118062DAF80181918F0149DA80169106A1F79C
S113119072D38F3F09F485C18A3281F4772009F430
S11311A080C17A94E0E5F0E0EC0FFD1FE70DF11D3E
S11311B0108241E0672D80E28FDA73C18332D9F463
S11311C0F6E07F126EC167961FAE679762E070E02B
S11311D08CE192E045D287E027D267E070E0CE014F
S11311E0805B9F4F3DD281E08093000283E0809337
S11311F00102712C56C1E0E5F0E0EC0FFD1FE70D94
S1131200F11D808341E0672D67DA73944AC18091B0
S11312100002882341F005DA40E060E086ED92E0C8
S11312204EDA10920002662009F43BC1FAD940E07C
S113123060E0CE01825A9F4F42DA88EE93E00E942A
S1131240BF0081E08093000265EE72E0CE01825A15
S11312509F4F77D3892B21F410920102612C21C175
S113126082E080930102612C312C1BC18091000229
S1131270882371F0D6D940E060E0CE01825A9F4FB6
S11312801EDA41E060E085EF92E019DA1092000284
S1131290F2D28F3F09F405C1833209F03DC086E0E4
S11312A03812FFC06E961FAE6E9727E12C9DC001C9
S11312B02D9D900D112420912E0330912F034091E8
S11312C0300350913103609132038D5C9C4FCAD836
S11312D04AE0BE0161547F4F3DD3CF53DF4F1882A4
S11312E0C15CD04062E070E08CEF92E0B9D18AE05A
S11312F09BD167E070E0CE01895A9F4FB1D163E082
S113130070E0CE0181549F4FABD184E08093010201
S113131081E080930002C5C08A3299F4332009F435
S1131320C0C01FEF130DE7E5F0E0EC0FFD1FE10F68
S1131330F11D108265E0630D41E080E2CDD9312ECC
S1131340B0C095E0931508F4ACC0E7E5F0E0EC0F0D
S1131350FD1FE30DF11D808366E0630D41E08AE229
S1131360BBD933949EC080910002882341F059D99F
S113137040E060E086ED92E0A2D9109200022220C3
S113138009F48FC04ED940E060E0CE0182589F4FEF
S113139096D988EE93E00E94BF0081E0809300021A
S11313A065EE72E0CE0182589F4FCBD2892B21F497
S11313B010920102212C75C06FEF72E0CE018258A9
S11313C09F4FBFD2892B09F03EC00F2EF7E19F2E0D
S11313D0F02D9C9CC0019D9C900D112400912E0326
S11313E010912F0320913003309131034091320347
S11313F060E070E08D5C9C4FA3D882E3C4D9109266
S1131400010281E080930002949CF001959CF00D10
S11314101124ED5CFC4F8DB79EB747970FB6F89437
S11314209EBF0FBE8DBFADB7BEB7119687E10190C9
S11314300D928A95E1F73CDA0FB6F894DEBF0FBE41
S1131440CDBF212C2EC062E073E0CE0182589F4FA5
S113145078D2892B21F410920102212C22C061E15F
S113146073E0CE0182589F4F6CD2892B31F482E015
S113147080930102212C312C14C082E0809301025C
S1131480212C0FC080910002882331F0CAD841E09A
S113149064E080E293E013D91092010202C010923A
S11314A0010220912E0330912F034091300350917B
S11314B0310360913203CE018B549F4F0E943F0150
S11314C08997A4F062E070E08AE293E0C9D02091A9
S11314D02E0330912F0340913003509131036091DA
S11314E03203CE018B549F4F0E94F60082E390E0BA
S11314F00E94BF007ACA80913003863008F06ECC17
S11315007CCCCF92DF92EF92FF920F93CF93DF9335
S113151000D01F921F92CDB7DEB70F2EF3E3EF2E4C
S1131520F3E0FF2EF02D0F2EFBEFCF2EFDE0DF2E8C
S1131530F02D00E020E041E061E0CE0101960E9440
S1131540DD0029813A814B815C816D81C7010E9454
S1131550EB0187E1E80EF11CEC14FD0451F70F9048
S11315600F900F900F900F90DF91CF910F91FF90FC
S1131570EF90DF90CF90089583E38093C40010929E
S1131580C5001092C00088EB8093C100789486E077
S11315908093C20008958091FD0D9091FC0D891BEC
S11315A008959091FC0D8091FD0D981771F0E92F2D
S11315B0F0E0E250F24F80819F5F9F3F19F09093DB
S11315C0FC0D08951092FC0D089581E090E00E94B6
S11315D0BF009091FC0D8091FD0D981771F0E92FDB
S11315E0F0E0E250F24F80819F5F9F3F19F09093AB
S11315F0FC0D08951092FC0D089580E008950F935A
S11316001F93CF93DF93161617064CF48C01EC014D
S1131610060F171FC6DF8993C017D107D9F7DF91CB
S1131620CF911F910F9108959091FE0EE92FF0E054
S1131630E150F14F80839F5F9F3F19F09093FE0E1E
S113164002C01092FE0E8091C00085FF08C0E0EC3D
S1131650F0E080818F7D8083808180628083089523
S11316600F931F93CF93DF93161617064CF48C0138
S1131670EC01060F171F8991D7DFC017D107D9F7DF
S1131680DF91CF911F910F9108951F920F920FB682
S11316900F9211240BB60F928F93EF93FF93E09167
S11316A0FD0E8091FE0EE81781F0F0E0E150F14F5D
S11316B080818093C6008091FD0E8F5F8F3F19F06B
S11316C08093FD0E02C01092FD0EFF91EF918F9159
S11316D00F900BBE0F900FBE0F901F9018951F9286
S11316E00F920FB60F9211240BB60F928F939F9304
S11316F0EF93FF938091FD0D9091C600E82FF0E0E9
S1131700E250F24F90838F5F8F3F19F08093FD0D6D
S113171002C01092FD0DFF91EF919F918F910F9058
S11317200BBE0F900FBE0F901F901895E0E0F1E0F4
S11317308081908194FF05C083FB882780F981957F
S113174001C081E09091000195FF82E09091000139
S113175096FF83E00895FF920F931F93CF93DF9337
S1131760082FC0E010E0D1E0F12CE0DF801711F089
S1131770CF5F01C0C0E08D2FCA3008F48F2D8111D6
S11317800CC08D2F143608F48F2D811106C01F5FF5
S11317908AE090E00E94BF00E8CF8AE090E00E94D7
S11317A0BF00DF91CF911F910F91FF900895CF93C8
S11317B0DF93BCDFD82F8F3F79F0CAE0B7DFD813AF
S11317C00DC0C15021F48D2FC6DF8D2F08C08AE0D3
S11317D090E00E94BF00F2CF8FEF01C08FEFDF9146
S11317E0CF9108958130B1F028F0823019F183301F
S11317F089F13FC0613041F028F0623039F0633044
S113180039F037C091E335C092E333C093E331C07C
S113181091E42FC0613041F028F0623039F0633038
S113182039F027C094E325C095E323C096E321C093
S113183092E41FC0613041F028F0623039F0633027
S113184039F017C097E315C098E313C099E311C0AA
S113185093E40FC0613041F028F0623039F0633016
S113186039F007C09AE205C090E303C093E201C0D7
S113187094E4892F0895E1E0F1E080818778808302
S1131880E2E0F1E080818867808384B18F6084B96D
S1131890289885B18E6085B98ADF8F3F19F060E0A2
S11318A0A1CF0895299885B18D6085B980DF8F3FD8
S11318B019F061E097CF08952A9885B18B6085B9B6
S11318C076DF8F3F19F062E08DCF08952B9885B1B4
S11318D0876085B96CDF8F3F19F063E083CF08958B
S11318E08FEF089597FB072E16F4009406D077FD2A
S11318F008D013D007FC05D03EF4909581959F4FF6
S11319000895709561957F4F0895EE0FFF1F881F0E
S11319108BBF0790F691E02D1994AA1BBB1B51E1D4
S113192007C0AA1FBB1FA617B70710F0A61BB70B4B
S1131930881F991F5A95A9F780959095BC01CD01F0
S11319400895FB01DC018D91019080190110D9F3F8
S1131950990B0895BB274A3031F4992322F4BDE250
S1131960909581959F4F01C0BB27FB015527AA275E
S1131970880F991FAA1FA41710F0A41B8395505118
S1131980B9F7A05DAA3308F0A95DA193009779F790
S1131990B111B1931192CB0100C0DC01FC01672F9E
S11319A071917723E1F7329704C07C916D93708332
S11119B06291AE17BF07C8F30895F894FFCFF5
S11319BE0105646966664D696E0063616C63756CDE
S11319CE615067746F00454100454600454300452C
S11319DE4D00454900616161610045420045440086
S11319EE454800454E002323232323232300446527
S11319FE736C696761646F21005265616C697A6505
S1131A0E206F20506167616D656E746F00455300E1
S1131A1E56616761732054657272656F3A00566140
S1131A2E676173203120616E6461723A005661679A
S1131A3E6173203220616E6461723A004573746181
S1131A4E63696F6E614D6963726F7300566167618E
S1131A5E20496C6567616C004D756C74612073650B
S1131A6E207265696E636964005265696E636964A8
S1131A7E656E7465005061677565205224200043BD
S1131A8E415254414F004573706572612052657323
S1131A9E702E2E2E0043617274616F20496E766132
S1131AAE6C69646F0053656E68613A004550004F6F
S1131ABE4B0053616C646F20496E76616C69646F80
S1131ACE0053656E686120496E76616C69646100CD
S1111ADE4465736C696761646F00454F0000D6
S9030000FC
