S01A00004156524573746163696F6E614D6963726F732E737265631D
S11300008DC00000BBC00000B9C00000B7C0000034
S1130010B5C00000B3C00000B1C00000AFC0000014
S1130020ADC00000ABC00000A9C00000A7C0000024
S1130030A5C00000A3C00000A1C000009FC0000034
S11300409DC000009BC0000099C0000097C0000044
S11300504EC3000093C0000091C000008FC0000098
S11300608DC000000C944A0B0C94200B87C0000038
S113007085C0000083C0000081C000007FC0000074
S11300807DC000007BC0000079C0000077C0000084
S113009075C0000073C0000071C000006FC0000094
S11300A06DC000006BC0000069C0000067C00000A4
S11300B065C0000063C0000061C000005FC00000B4
S11300C05DC000005BC0000059C0000057C00000C4
S11300D055C0000053C0000051C000004FC00000D4
S11300E04DC00000DC045706E304B006B006B006B9
S11300F0EA04B006B006B006B0066B06FB04B00610
S11301006106B006B006AD0552075D083109020963
S1130110AE091C0A270A2A0AB1035C0A11241FBE6D
S1130120CFEFD1E2DEBFCDBF00E00CBF13E0A0E013
S1130130B2E0E4E7F9E100E00BBF02C007900D92E2
S1130140A833B107D9F720E1A8E3B3E001C01D92B9
S1130150A830B207E1F710E0CEE8D0E000E006C036
S113016021970109802FFE010E94600CCC38D10731
S113017080E00807A9F79CD30C94B80C41CF16BCB7
S113018023E025BD22E024BD29EF27BD009729F0F7
S1130190A99BFECFA99A0197D9F7089516BC21E02F
S11301A025BD22E024BD2FE027BD009729F0A99B9F
S11301B0FECFA99A0197D9F708950F93FC016083A4
S11301C041832283038314820F910895FC01DB0190
S11301D08C91808311968C911197818312968C91C6
S11301E01297828313968C9183830895CF93DF9320
S11301F000D01F921F92CDB7DEB7FC01208331835C
S11302004283538364830F900F900F900F900F904D
S1130210DF91CF9108950F931F93CF93DF9300D075
S11302201F921F92CDB7DEB7242F30E0FC0142812C
S1130230241B31094CE3429F8001439F100D11247C
S1130240252F30E08381A901481B5109040F151F94
S113025068E070E082E092E00E940B0B802F0E9425
S1130260EF0A8AE00E94EF0AC8010F900F900F90E6
S11302700F900F90DF91CF911F910F9108950F93DD
S11302801F93CF93DF9300D01F921F92CDB7DEB799
S1130290FC01832F30E09081291B3109A0EAB5E0ED
S11302A02A9F80012B9F100D3A9F100D11247CE38F
S11302B0709F9001719F300D112490E01181811B7A
S11302C091098A9F80018B9F100D9A9F100D112414
S11302D0A8E0B7E00A9FC0010B9F900D1A9F900DF4
S11302E01124280F391FA42FB0E08281A81BB10963
S11302F000E11EE0A09FC001A19F900DB09F900D52
S11303001124280F391F452F50E08381481B5109C0
S1130310749FC001759F900D1124280F391F70E040
S11303208481AB01481B5109CA01820F931F0F90AE
S11303300F900F900F900F90DF91CF911F910F911D
S11303400895FC018481680F64836C3378F089E834
S1130350689F812D11248295869587709381980FCB
S113036093832CE3829F60191124648383818C33EB
S113037078F099E8899F912D11249295969597701C
S11303802281290F22832CE3929F801911248383D5
S11303908281883170F09BEA899F912D1124929576
S11303A09F702081290F208328E1929F80191124B6
S11303B0828380818E3170F099E8899F912D112478
S11303C092959F702181290F21832EE1929F80199C
S11303D0112480830895CF93DF9300D01F921F923E
S11303E0CDB7DEB7DC0129833A834B835C836D830D
S11303F081E01D968C931D971E968C931E971F96D5
S11304001C921F9750961C92509751961C9251978C
S113041053961C921E92529755961C925597569637
S11304201C92569783E054968C935497FD019D013A
S1130430295F3F4F83E28193E217F307E1F71796B1
S11304401C92179785E0FE013196189601900D9243
S11304508A95E1F70F900F900F900F900F90DF9116
S1130460CF910895EF92FF920F931F93CF93DF9351
S113047000D01F921F92CDB7DEB77C0129833A8347
S11304804B835C836D83C7010896C5DE9C01803174
S11304909105ECF08D33910544F4F7018289938939
S11304A00AE010E0081B190B14C0CC976EE170E051
S11304B00E944D0C8B01000F111F000F111F025FD2
S11304C01F4FF70182899389081B190B02C000E0B2
S11304D010E0F7018589882371F08689882359F013
S11304E0C9016EE170E00E944D0C6F5F7F4F660F93
S11304F0771F060F171F29813A814B815C816D811B
S1130500C7010D9688DE409714F400E010E06DE01A
S113051070E08AE092E00E940B0B802F0E94EF0AA9
S11305208AE00E94EF0AC8010F900F900F900F907D
S11305300F90DF91CF911F910F91FF90EF9008954D
S11305400F931F93CF93DF9300D01F921F92CDB7C9
S1130550DEB7FC0109831A832B833C834D83161673
S113056017063CF49C81842F058716872787908B78
S1130570818B82899389860F971F938B828B0F902F
S11305800F900F900F900F90DF91CF911F910F91CB
S11305900895FC018081893449F48181843441F4D3
S11305A081E09281953429F080E0089580E00895F7
S11305B080E00895FB013081FC01208132130FC0DB
S11305C0FB013196DC011196695F7F4F91918D910A
S11305D0981307C0E617F707C9F781E0089580E08C
S11305E0089580E00895CF93DF93EC01FB01DC01D3
S11305F09B01295F3F4F91919D93E217F307D9F730
S11306001F82DF91CF910895469A82B9469888E275
S113061090E0C4CD08954798F7CF0895479AF4CF52
S1130620089581E0F8DF82E796E0B8CD08958FEF72
S113063081B93E9A3F9A88E3EEDF8EE0ECDF86E0F4
S1130640EADFEFCF08950F931F93CF93DF938C01CD
S1130650EB0180E8E0DF219711F480ECDCDF011589
S1130660110541F0C0E0D0E084E1D5DF2196C01748
S1130670D107D1F7DF91CF911F910F9108950F9377
S11306801F93CF93DF93EC01FC01319620E030E01F
S11306902F5F3F4F91919111FBCF2115310551F0FF
S11306A08E01C20FD31FF80181918F01B7DF0C17A0
S11306B01D07C9F7DF91CF911F910F910895CF9333
S11306C0DF93EC01862F642F70E090E0BCDFCE0155
S11306D0D6DFDF91CF910895CF93C82F862F642F53
S11306E070E090E0B0DF8C2F99DFCF9108951F92D6
S11306F00F920FB60F9211240BB60F922F933F93C4
S11307004F935F936F937F938F939F93AF93BF9315
S1130710EF93FF938CED9BE090938500809384008E
S113072061E088E393E00DDEFF91EF91BF91AF911B
S11307309F918F917F916F915F914F913F912F91F5
S11307400F900BBE0F900FBE0F901F90189581E075
S113075080936F0078941092800084E080938100ED
S113076008950F9300E026E041E061E088E393E020
S113077024DD0F9108951092010281E0809300021C
S11307808093050E0895CF93C82F62E070E086E150
S113079092E041D78C2F23D782E090E0F0DCCF9118
S11307A00895CF93C82F62E070E089E192E033D7D7
S11307B08C2F15D782E090E0E2DCCF91089581E39D
S11307C0F0DF82E3EEDF85E08093010281E0809335
S11307D000021092050E0895EF92FF920F931F935B
S11307E0CF93DF937C010DE313E0C0E0D0E0B701C9
S11307F0C801E0DE811109C02196095E1F4FC83788
S1130800D105A9F78FEF9FEF02C08C2F9D2FDF91A9
S1130810CF911F910F91FF90EF900895CF93C82F20
S113082062E070E08FE192E0F6D68C2FD8D6CF91BB
S11308300895CF93DF93FC01413329F0423321F132
S11308404033C9F41FC091E020C0ED91F0E020E0F6
S113085030E0AF01022E02C0559547950A94E2F7A5
S113086040FD8F5F2F5F3F4F2830310591F7AC1764
S1130870BD0759F702C09FEF80E0FB01E90FF11DAE
S1130880808313C090E001C092E0292F30E0D901A9
S1130890AA0FBB1FAA0FBB1F2A0F3B1FDF01A20F0A
S11308A0B31FED01259680E0D0CFDF91CF9108955D
S11308B0CF93DF93CDB7DEB7C35CD1090FB6F894FD
S11308C0DEBF0FBECDBF00E020E041E061E0CE011D
S11308D08F5B9F4F72DC20E041E061E0CE018A5BD8
S11308E09F4F6BDC20E041E061E0CE01855B9F4FD0
S11308F064DCFE01E256FF4FCF010F961082118295
S11309001282138214823596E817F907B9F7C35592
S1130910DF4F1882CD5AD040C255DF4F1882CE5ACD
S1130920D040C155DF4F1882CF5AD04000E020E0BC
S113093041E061E0CE0180559F4F3FDC20E041E083
S113094061E0CE018B549F4F38DC20E041E061E050
S1130950CE0186549F4F31DC279AE9D568DEF7DE55
S1130960E12C412C612CF12C512C712CCC24CA94F7
S1130970DC2CAA24AA94BA2C0F2EFEE92F2E312C9B
S1130980F02D2C0E3D1E85E0280E311CDFD588236A
S113099009F4E6C1E1D5833509F0E2C1DDD590E083
S11309A0FC01E254F109E231F10508F0D9C18827CC
S11309B0EE58FF4F8F4F84C762E070E082E292E00E
S11309C02AD6FDDECDC162E070E085E292E023D656
S11309D0D2DEC6C164E070E0CE010196EBD5BE0163
S11309E06F5F7F4F88E393E0F1DB62E070E088E2C1
S11309F092E011D6B5C1B0D5982E68E070E0CE0172
S1130A000196D8D562E070E08BE292E004D640E033
S1130A1060E0CE01019653DECE010196DDDE8C014D
S1130A2088ED92E02CDE0F3F9FEF190781F48EE2F0
S1130A3092E0D2DE8C0127E1209FC001219F900D1E
S1130A401124BE016F5F7F4F835C9C4FCCDD88ED2A
S1130A5092E015DE4AE0BE0161547F4FC80155D7CC
S1130A60CE0181549F4F0BDE88ED92E008DE88EEC4
S1130A7093E085DBE1E39E1621F0F2E39F1631F16A
S1130A806FC187E1809FF001819FF00D1124E35C29
S1130A90FC4F148A209138033091390340913A0372
S1130AA050913B0360913C03CE018F5B9F4F9EDBD3
S1130AB08091050E882321F081E365DE580150C141
S1130AC0B0DD86E392E0DBDD58014AC187E1809F17
S1130AD0F001819FF00D1124E35CFC4F82E0848BD4
S1130AE0209138033091390340913A0350913B03EC
S1130AF060913C03CE018A5B9F4F78DB8091050EA9
S1130B00882329F127E1209FC001219F900D112402
S1130B10209138033091390340913A0350913B03BB
S1130B2060913C03835C9C4F9DDC181619065CF4B1
S1130B3078DD81E492E0A3DD81E08093010280937B
S1130B40000268010DC182E31EDE680109C169DD8E
S1130B5086E392E094DD680103C1FED4E82E68E0E8
S1130B6070E0CE01019626D562E070E085E592E062
S1130B7052D5CE01019630DE8C0180ED97E0FFDA8C
S1130B808E2D0FDE81E3E81629F092E3E91609F4CD
S1130B9064C0E2C0C355DF4FB880CD5AD04080E373
S1130BA03DDE84E690E0EBDA40E3BE0163557F4F1F
S1130BB0CE0182569F4F3DDEEE24E394C355DF4FB2
S1130BC08881CD5AD0408B1101C0E12C27E1209FB0
S1130BD0C001219F900D1124835C9C4FDADC91E0CD
S1130BE0811190E0992369F0EE2059F087E1809F0C
S1130BF0F001819FF00D1124E35CFC4F81E0858BB3
S1130C0009C087E1809FF001819FF00D1124E35C0E
S1130C10FC4F158A27E1209FC001219F900D1124CC
S1130C20FC01E35CFC4F21E0248B209138033091DC
S1130C30390340913A0350913B0360913C038B5B31
S1130C409C4FD4DA86E0809301020F2EF7E0EF2E5A
S1130C50F02DAA24AA94BA2C83C087E1809FF001C6
S1130C60819FF00D1124E35CFC4F8589882351F0AA
S1130C7087E1809FF001819FF00D1124E35CFC4F1C
S1130C8081E0868B87E1809FF001819FF00D112424
S1130C90E35CFC4F83E0848B87E0809301020F2E9A
S1130CA0F7E0EF2EF02DCC24CA94DC2C59C054D498
S1130CB0682F70E0CE01825A9F4F7CD466246394DF
S1130CC04FC04AD4682F70E0CE0182589F4F72D42F
S1130CD04424439445C040D48133C1F0823339F174
S1130CE0803309F03DC038D465E070E0CE0182560F
S1130CF09F4F60D440E3BE0163557F4FCE018256BF
S1130D009F4F97DDEE2DEE7FEE2E2AC025D465E0B1
S1130D1070E0C1014FD441E3BE0163557F4FCE0162
S1130D2082569F4F86DDFE2DFD7FEF2E19C014D411
S1130D3065E070E08EE990E08C0F9D1F0A963AD42E
S1130D4042E3BE0163557F4FCE0182569F4F71DD52
S1130D508E2D8B7FE82E04C00F2EF7E0EF2EF02DA2
S1130D60F110A4C380913A038630D8F48091050E23
S1130D70811104C080910102853079F020DDFF24C7
S1130D80F39494C38091050E882321F0809101028D
S1130D90853031F4F0DCF12C04C0FF24F39401C05D
S1130DA0F12C9FEFA916B906B1F140E060E088E5A7
S1130DB092E085DC209138033091390340913A0365
S1130DC050913B0360913C03CE018A5B9F4F57DAFD
S1130DD00B9744F080913C0380FF02C02F9A03C01C
S1130DE02F9801C02F9820913803309139034091F6
S1130DF03A0350913B0360913C03CE018F5B9F4FBC
S1130E003EDACD9744F081E3CCDC83E080933A036F
S1130E10AA24AA94BA2CEFEFCE16DE06B1F12091E3
S1130E2038033091390340913A0350913B03609168
S1130E303C03CE018A5B9F4F22DA89976CF060E114
S1130E4070E08BE592E0E7D380913C0380FF02C021
S1130E502F9A03C02F9801C02F9820913803309106
S1130E60390340913A0350913B0360913C03CE0116
S1130E708A5B9F4F04DACD9744F082E392DC81E0F1
S1130E8080933A03CC24CA94DC2C8091010290E034
S1130E908830910508F0E0C2FC018827EC57FF4F29
S1130EA08F4F0EC5E0FE02C080E3B8DCE1FE02C055
S1130EB081E3B4DCE2FE02C082E3B0DC20913803BB
S1130EC03091390340913A0350913B0360913C03C4
S1130ED0CE0180559F4FD3D940970CF479C085E05B
S1130EE0E8E3F3E0DE01A055BF4F01900D928A952F
S1130EF0E1F797DB40E060E08BE692E0E0DB0F2E69
S1130F00F4E28F2EF02DC355DF4F8881CD5AD040A7
S1130F10982C981A1DEC919E012D11240695069586
S1130F20069580E3800F7ADB000F802F880F880FEF
S1130F30080F892D801B805D71DB88EE93E01FD93B
S1130F4070DB40E060E089E792E0B9DBC255DF4F37
S1130F508881CE5AD040982C981A919E012D112444
S1130F6006950695069580E3800F58DB000F802FC9
S1130F70880F880F080F892D801B805D4FDB88EE5A
S1130F8093E0FDD84EDB40E060E088E892E097DB38
S1130F90C155DF4F8881CF5AD040082D081B019FCF
S1130FA0112D112416951695169580E3810F36DBC5
S1130FB0110F812F880F880F180F802F811B805DE0
S1130FC02DDB88EE93E0DBD881E08093000204C03F
S1130FD080910002882341F024DB40E060E087E94F
S1130FE092E06DDB109200022091380330913903B6
S1130FF040913A0350913B0360913C03CE01855BE1
S11310009F4F3DD9181619060CF026C261E070E016
S113101080E090E018DB61E070E080E090E013DBBA
S113102080913A038A3010F480E3F8DA08E313E09D
S1131030F80182814AE0BE0161547F4F90E065D49B
S1131040CE0181549F4F1BDB8AE3E8DAF8018381E8
S11310508A3010F480E3E2DA08E313E0F8018381D4
S11310604AE0BE0161547F4F90E04FD4CE018154D9
S11310709F4F05DB8AE3D2DAF80184818A3010F4C9
S113108080E3CCDA80913C034AE0BE0161547F4F97
S113109090E03BD4CE0181549F4FF1DA2091380384
S11310A03091390340913A0350913B0360913C03E2
S11310B0CE01855B9F4F9AD8CFC1809100028823CF
S11310C009F461C087E18C9DF0018D9DF00D112420
S11310D0E35CFC4F85898823C9F0A3DA40E060E033
S11310E087EA92E0ECDA41E060E083EB92E0E7DA51
S11310F087E18C9DF0018D9DF00D1124E35CFC4F84
S11311008689882319F084EC92E0B9DA8ADA40E01F
S113111060E080ED92E0D3DA27E12C9DC0012D9DA3
S1131120900D1124209138033091390340913A03F2
S113113050913B0360913C03835C9C4F93D94AE0FC
S1131140BE0161547F4FE1D3CE0181549F4F97DAA2
S113115041E060E08AED92E0B2DA1092000277207A
S113116091F08E01005B1F4F4801870C911C61E0D8
S113117070E080E090E067DAF80181918F014EDA47
S113118080169106A1F752D38F3F09F465C18A32C4
S113119081F4772009F460C17A94E0E5F0E0EC0F83
S11311A0FD1FE70DF11D108241E0672D80E294DA06
S11311B053C18332D9F4F6E07F124EC167961FAE55
S11311C0679762E070E08CE192E025D287E007D275
S11311D067E070E0CE01805B9F4F1DD281E0809379
S11311E0000283E080930102712C36C1E0E5F0E057
S11311F0EC0FFD1FE70DF11D808341E0672D6CDAD4
S113120073942AC180910002882341F00ADA40E0F5
S113121060E081EE92E053DA10920002662009F455
S11312201BC1FFD940E060E0CE01825A9F4F47DAEC
S113123088EE93E00E94BF0081E08093000260EF9B
S113124072E0CE01825A9F4F57D3892B21F410921A
S11312500102612C01C182E080930102612C512CB6
S1131260FBC080910002882371F0DBD940E060E08C
S1131270CE01825A9F4F23DA41E060E080E093E0A0
S11312801EDA10920002D2D28F3F09F4E5C08332F5
S113129009F03DC086E05812DFC06E961FAE6E970F
S11312A027E12C9DC0012D9D900D11242091380320
S11312B03091390340913A0350913B0360913C03D0
S11312C0835C9C4FCFD84AE0BE0161547F4F1DD34D
S11312D0CF53DF4F1882C15CD04062E070E087E0FA
S11312E093E099D18AE07BD167E070E0CE01895A1E
S11312F09F4F91D163E070E0CE0181549F4F8BD119
S113130084E08093010281E080930002A5C08A32C8
S113131099F4552009F4A0C01FEF150DE7E5F0E09E
S1131320EC0FFD1FE10FF11D108265E0650D41E03A
S113133080E2D2D9512E90C095E0951508F48CC066
S1131340E7E5F0E0EC0FFD1FE50DF11D808366E09D
S1131350650D41E08AE2C0D953947EC080910002B9
S1131360882341F05ED940E060E081EE92E0A7D9A5
S113137010920002442009F46FC053D940E060E0A9
S1131380CE0182589F4F9BD988EE93E00E94BF0004
S113139081E08093000260EF72E0CE0182589F4F9B
S11313A0ABD2892B21F410920102412C55C06AE082
S11313B073E0CE0182589F4F9FD2892BF1F427E12D
S11313C02C9DC0012D9D900D112400913803109186
S11313D0390320913A0330913B0340913C0360E090
S11313E070E0835C9C4FACD882E3CDD910920102AB
S11313F081E080930002412C2FC06DE073E0CE01A8
S113140082589F4F79D2892B21F410920102412CEA
S113141023C06CE173E0CE0182589F4F6DD2892BBB
S113142031F482E080930102412C512C15C082E0FA
S113143080930102412C10C080910002882361F046
S1131440F0D841E064E08BE293E039D905C0109212
S1131450010202C010920102209138033091390335
S113146040913A0350913B0360913C03CE018B546D
S11314709F4F0E943F018997A4F062E070E085E3EA
S113148093E0C9D0209138033091390340913A0355
S113149050913B0360913C03CE018B549F4F0E94BB
S11314A0F60082E390E00E94BF0070CA80913A0384
S11314B0863008F067CC75CCCF92DF92EF92FF9222
S11314C00F93CF93DF9300D01F921F92CDB7DEB757
S11314D00F2EFDE3EF2EF3E0FF2EF02D0F2EF5E09F
S11314E0CF2EFEE0DF2EF02D00E020E041E061E0B1
S11314F0CE0101960E94DD0029813A814B815C81F5
S11315006D81C7010E94EB0187E1E80EF11CEC1428
S1131510FD0451F70F900F900F900F900F90DF91F3
S1131520CF910F91FF90EF90DF90CF90089583E3D8
S11315308093C4001092C5001092C00088EB809381
S1131540C100789486E08093C20008958091070ECC
S11315509091060E891B08959091060E8091070EB6
S1131560981771F0E92FF0E0E85FF14F80819F5FF9
S11315709F3F19F09093060E08951092060E089559
S113158081E090E00E94BF009091060E8091070ECA
S1131590981771F0E92FF0E0E85FF14F80819F5FC9
S11315A09F3F19F09093060E08951092060E089529
S11315B080E008950F931F93CF93DF9316161706B9
S11315C04CF48C01EC01060F171FC6DF8993C0177A
S11315D0D107D9F7DF91CF911F910F910895909181
S11315E0080FE92FF0E0E75FF04F80839F5F9F3F94
S11315F019F09093080F02C01092080F8091C00058
S113160085FF08C0E0ECF0E080818F7D80838081DD
S11316108062808308950F931F93CF93DF931616F0
S113162017064CF48C01EC01060F171F8991D7DFC4
S1131630C017D107D9F7DF91CF911F910F9108956A
S11316401F920F920FB60F9211240BB60F928F9325
S1131650EF93FF93E091070F8091080FE81781F053
S1131660F0E0E75FF04F80818093C6008091070F20
S11316708F5F8F3F19F08093070F02C01092070FFE
S1131680FF91EF918F910F900BBE0F900FBE0F90B3
S11316901F9018951F920F920FB60F9211240BB63C
S11316A00F928F939F93EF93FF938091070E9091E6
S11316B0C600E82FF0E0E85FF14F90838F5F8F3F23
S11316C019F08093070E02C01092070EFF91EF915C
S11316D09F918F910F900BBE0F900FBE0F901F9094
S11316E01895E0E0F1E08081908194FF05C083FBD0
S11316F0882780F9819501C081E09091000195FFD0
S113170082E09091000196FF83E00895FF920F9389
S11317101F93CF93DF93082FC0E010E0D1E0F12CAA
S1131720E0DF801711F0CF5F01C0C0E08D2FCA3019
S113173008F48F2D81110CC08D2F143608F48F2DD1
S1131740811106C01F5F8AE090E00E94BF00E8CFCD
S11317508AE090E00E94BF00DF91CF911F910F912A
S1131760FF900895CF93DF93BCDFD82F8F3F79F09C
S1131770CAE0B7DFD8130DC0C15021F48D2FC6DFE6
S11317808D2F08C08AE090E00E94BF00F2CF8FEF57
S113179001C08FEFDF91CF9108958130B1F028F02F
S11317A0823019F1833089F13FC0613041F028F073
S11317B0623039F0633039F037C091E335C092E3D9
S11317C033C093E331C091E42FC0613041F028F07D
S11317D0623039F0633039F027C094E325C095E3D3
S11317E023C096E321C092E41FC0613041F028F089
S11317F0623039F0633039F017C097E315C098E3CD
S113180013C099E311C093E40FC0613041F028F094
S1131810623039F0633039F007C09AE205C090E3D2
S113182003C093E201C094E4892F0895E1E0F1E05C
S1131830808187788083E2E0F1E08081886780831B
S113184084B18F6084B9289885B18E6085B98ADFA8
S11318508F3F19F060E0A1CF0895299885B18D607C
S113186085B980DF8F3F19F061E097CF08952A98FA
S113187085B18B6085B976DF8F3F19F062E08DCF3B
S113188008952B9885B1876085B96CDF8F3F19F077
S113189063E083CF08958FEF089597FB072E16F426
S11318A0009406D077FD08D013D007FC05D03EF491
S11318B0909581959F4F0895709561957F4F0895F8
S11318C0EE0FFF1F881F8BBF0790F691E02D199430
S11318D0AA1BBB1B51E107C0AA1FBB1FA617B70752
S11318E010F0A61BB70B881F991F5A95A9F780956E
S11318F09095BC01CD010895FB01DC018D9101900F
S113190080190110D9F3990B0895BB274A3031F49B
S1131910992322F4BDE2909581959F4F01C0BB2786
S1131920FB015527AA27880F991FAA1FA41710F097
S1131930A41B83955051B9F7A05DAA3308F0A95DA3
S1131940A193009779F7B111B1931192CB0100C023
S1131950DC01FC01672F71917723E1F7329704C012
S11319607C916D9370836291AE17BF07C8F308959D
S1071970F894FFCF15
S11319740105646966664D696E0063616C63756C28
S1131984615067746F004541004546004543004576
S11319944D00454200454400454800454E0023237C
S11319A42323232323004465736C696761646F21D3
S11319B4005265616C697A65206F20506167616DBE
S11319C4656E746F004553006F7400636F6D65E753
S11319D46120612070697363617200566167617389
S11319E42054657272656F3A0056616761732031E1
S11319F420616E6461723A0056616761732032201B
S1131A04616E6461723A004573746163696F6E61F7
S1131A144D6963726F73005661676120496C656731
S1131A24616C004D756C7461207365207265696E18
S1131A34636964005265696E636964656E74650004
S1131A445061677565205224200043415254414F2C
S1131A540045737065726120526573702E2E2E00DA
S1131A6443617274616F20496E76616C69646F00BE
S1131A7453656E68613A004550004F4B0053616CE6
S1131A84646F20496E76616C69646F0053656E6897
S1131A946120496E76616C696461004465736C69A4
S10B1AA46761646F00454F0007
S9030000FC
