S01A00004156524573746163696F6E614D6963726F732E737265631D
S11300008FC00000BDC00000BBC00000B9C000002C
S1130010B7C00000B5C00000B3C00000B1C000000C
S1130020AFC00000ADC00000ABC00000A9C000001C
S1130030A7C00000A5C00000A3C00000A1C000002C
S11300409FC000009DC000009BC0000099C000003C
S113005041C3000095C0000093C0000091C000009F
S11300608FC000000C94B50C0C948B0C89C000005C
S113007087C0000085C0000083C0000081C000006C
S11300807FC000007DC000007BC0000079C000007C
S113009077C0000075C0000073C0000071C000008C
S11300A06FC000006DC000006BC0000069C000009C
S11300B067C0000065C0000063C0000061C00000AC
S11300C05FC000005DC000005BC0000059C00000BC
S11300D057C0000055C0000053C0000051C00000CC
S11300E04FC000003505B9063C0517071707170769
S11300F043051707170717071707CD0654051707F2
S1130100C306170717070F06BD076508ED08800922
S11301105D0A2A0AF70A850B920B950BA403C70BF9
S113012011241FBECFEFD1E2DEBFCDBF00E00CBF74
S113013013E0A0E0B2E0EAE4FCE100E00BBF02C09F
S113014007900D92AE36B107D9F720E1AEE6B3E0E1
S113015001C01D92AE33B207E1F710E0C0E9D0E070
S113016000E006C021970109802FFE010E94CB0DFB
S1130170CE38D10780E00807A9F7E2D30C94230E08
S11301803FCF16BC23E025BD22E024BD29EF27BDC7
S1130190009729F0A99BFECFA99A0197D9F7089552
S11301A016BC21E025BD22E024BD2FE027BD009729
S11301B029F0A99BFECFA99A0197D9F708950F9327
S11301C0FC01608341832283038314820F91089589
S11301D0FC01DB018C91808311968C9111978183B2
S11301E012968C911297828313968C91838308952F
S11301F0CF93DF9300D01F921F92CDB7DEB7FC01DF
S1130200208331834283538364830F900F900F9034
S11302100F900F90DF91CF9108950F931F93CF9379
S1130220DF9300D01F921F92CDB7DEB7242F30E0AA
S1130230FC014281241B31094CE3429F8001439F0E
S1130240100D1124252F30E08381A901481B510989
S1130250040F151F68E070E082E092E00E94760CC3
S1130260802F0E945A0C8AE00E945A0CC8010F90F9
S11302700F900F900F900F90DF91CF911F910F91DE
S11302800895CF93DF9300D01F921F92CDB7DEB7AE
S1130290FC01242F30E08281281B3109A0E1BEE05B
S11302A02A9FC0012B9F900D3A9F900D1124252F5A
S11302B030E04381241B31097CE3729FA001739FCA
S11302C0500D1124840F951F70E02481621B710965
S11302D0860F971F0F900F900F900F900F90DF9144
S11302E0CF910895FC018481680F64836C3378F0A6
S11302F089E8689F812D1124829586958770938162
S1130300980F93832CE3829F601911246483838163
S11303108C3378F099E8899F912D112492959695C4
S113032097702281290F22832CE3929F8019112434
S113033083838281883170F09BEA899F912D1124F7
S113034092959F702081290F208328E1929F801924
S11303501124828380818E3170F099E8899F912DD8
S1130360112492959F702181290F21832EE1929F60
S11303708019112480830895CF93DF9300D01F92B6
S11303801F92CDB7DEB7DC0129833A834B835C83AC
S11303906D8381E01D968C931D971E968C931E97FA
S11303A01F961C921F9750961C92509751961C9220
S11303B0519753961C921E92529755961C9255979C
S11303C056961C92569783E054968C935497FD014D
S11303D09D01295F3F4F83E28193E217F307E1F721
S11303E017961C92179785E0FE0131961896019096
S11303F00D928A95E1F70F900F900F900F900F9048
S1130400DF91CF910895EF92FF920F931F93CF93B3
S1130410DF9300D01F921F92CDB7DEB77C012983F2
S11304203A834B835C836D83C7010896F6DE9C0197
S113043080319105ECF08D33910544F4F701828904
S113044093890AE010E0081B190B14C0CC976EE1E5
S113045070E00E94B80D8B01000F111F000F111FD7
S1130460025F1F4FF70182899389081B190B02C091
S113047000E010E0F7018589882371F086898823DC
S113048059F0C9016EE170E00E94B80D6F5F7F4FB3
S1130490660F771F060F171F29813A814B815C81F4
S11304A06D81C7010D96B9DE409714F400E010E0A9
S11304B06DE070E08AE092E00E94760C802F0E944A
S11304C05A0C8AE00E945A0CC8010F900F900F90AA
S11304D00F900F90DF91CF911F910F91FF90EF90AC
S11304E008950F931F93CF93DF9300D01F921F9211
S11304F0CDB7DEB7FC0109831A832B833C834D837C
S1130500161617063CF49C81842F058716872787C7
S1130510908B818B82899389860F971F938B828B13
S11305200F900F900F900F900F90DF91CF911F912C
S11305300F910895FC018081893449F481818434C8
S113054041F481E09281953429F080E0089580E0BF
S1130550089580E00895FB013081FC01208132136D
S11305600FC0FB013196DC011196695F7F4F9191B9
S11305708D91981307C0E617F707C9F781E008952E
S113058080E0089580E00895FB013381FC0123811C
S113059032130EC0DB0114963496695F7F4F9D9130
S11305A08191981307C0A617B707C9F781E008958A
S11305B080E0089580E00895CF93DF93EC01FB0180
S11305C0DC019B01295F3F4F91919D93E217F30753
S11305D0D9F71F82DF91CF910895469A82B9469840
S11305E088E290E0DDCD08954798F7CF0895479AC3
S11305F0F4CF08950F931F93CF93DF938C01EB01F6
S113060080E8F2DF219711F480ECEEDF011511058B
S113061041F0C0E0D0E084E1E7DF2196C017D107C4
S1130620D1F7DF91CF911F910F9108950F931F93ED
S1130630CF93DF93EC01FC01319620E030E02F5F93
S11306403F4F91919111FBCF2115310551F08E014E
S1130650C20FD31FF80181918F01C9DF0C171D0749
S1130660C9F7DF91CF911F910F910895CF93DF9335
S1130670EC01862F642F70E090E0BCDFCE01D6DF62
S1130680DF91CF910895CF93C82F862F642F70E008
S113069090E0B0DF8C2FABDFCF91089540E060E0B5
S11306A086E192E0E3DF41E060E086E192E0DEDFB4
S11306B060E070E080E090E09DCF08958FEF81B915
S11306C03E9A3F9A88E390DF8EE08EDF86E08CDFEF
S11306D0E5CF08951F920F920FB60F9211240BB617
S11306E00F922F933F934F935F936F937F938F93C7
S11306F09F93AF93BF93EF93FF938CED9BE0909305
S113070085008093840061E08EE693E0EBDDFF9149
S1130710EF91BF91AF919F918F917F916F915F9175
S11307204F913F912F910F900BBE0F900FBE0F90E2
S11307301F90189581E080936F0078941092800048
S113074084E08093810008950F9300E026E041E067
S113075061E08EE693E033DD0F910895109201027B
S113076081E08093000280933B0E0895CF93C82FBD
S113077062E070E087E292E00E94760C8C2F0E9487
S11307805A0C82E090E0FDDCCF910895CF93C82FFE
S113079062E070E08AE292E00E94760C8C2F0E9464
S11307A05A0C82E090E0EDDCCF91089581E3EEDF16
S11307B082E3ECDF87E08093010281E08093000212
S11307C010923B0E0895EF92FF920F931F93CF93D5
S11307D0DF937C0103E713E0C0E0D0E0B701C80178
S11307E0BADE811109C02196095E1F4FC837D105B1
S11307F0A9F78FEF9FEF02C08C2F9D2FDF91CF9130
S11308001F910F91FF90EF900895EF92FF920F9335
S11308101F93CF93DF937C0103E713E0C0E0D0E0A4
S1130820B701C801B1DE811109C02196095E1F4FCD
S1130830C837D105A9F78FEF9FEF02C08C2F9D2FEA
S1130840DF91CF911F910F91FF90EF900895CF9377
S1130850C82F62E070E080E392E00E94760C8C2F57
S11308600E945A0CCF910895CF93DF93FC0141333A
S113087029F0423321F14033C9F41FC091E020C074
S1130880ED91F0E020E030E0AF01022E02C055957A
S113089047950A94E2F740FD8F5F2F5F3F4F283062
S11308A0310591F7AC17BD0759F702C09FEF80E0FF
S11308B0FB01E90FF11D808313C090E001C092E0B9
S11308C0292F30E0D901AA0FBB1FAA0FBB1F2A0F83
S11308D03B1FDF01A20FB31FED01259680E0D0CFAF
S11308E0DF91CF910895CF93DF9300D01F92CDB7BE
S11308F0DEB762E070E083E392E0F8D780E0DAD715
S113090080E1D8D768E070E0CE010A96EFD74AE0DC
S1130910BE016F5F7F4F8C8D9D8D0E94F00D64E052
S113092070E0CE010196E2D764E070E086E392E0E5
S1130930DDD70F900F900F900F90DF91CF91089516
S1130940CF93DF93CDB7DEB7CB5CD1090FB6F89464
S1130950DEBF0FBECDBF00E020E041E061E0CE018C
S11309608F5B9F4F2CDC20E041E061E0CE018A5B8D
S11309709F4F25DC20E041E061E0CE01855B9F4F85
S11309801EDCFE01ED55FF4FCF010F961082118240
S11309901282138214823596E817F907B9F7CE54F8
S11309A0DF4F1882C25BD040CD54DF4F1882C35B47
S11309B0D040CC54DF4F1882C45BD04000E020E02C
S11309C041E061E0CE018B549F4FF9DB20E041E030
S11309D061E0CE0186549F4FF2DB20E041E061E00C
S11309E0CE0181549F4FEBDB279A809A819A829A99
S11309F081B3887F81BB06D761DE9CDE0F2EF7E0D2
S1130A006F2EF02D212C412C712CC753DF4F1882EF
S1130A10C95CD040512C312CEE24EA94FE2CCC2419
S1130A20CA94DC2C23EA30E02C0F3D1F2B5F3F4F90
S1130A30C653DF4F39832883CA5CD040F2D688235B
S1130A4009F4F5C1F4D6833509F0F1C1F0D690E08C
S1130A50FC01E254F109E231F10508F0E8C188270C
S1130A60EE58FF4F8F4F0C94CB0D62E070E08BE398
S1130A7092E03CD79BDEDBC162E070E08EE392E063
S1130A8035D76CDED4C164E070E0CE010196FDD6AA
S1130A90BE016F5F7F4F8EE693E09ADB62E070E009
S1130AA081E492E023D7C3C1C2D6B82E68E070E0D7
S1130AB0CE010196EAD662E070E084E492E016D7B3
S1130AC040E060E086E192E0D1DD40E060E0CE010C
S1130AD00196CCDDCE01019676DE8C0185E292E0B2
S1130AE0A5DD0F3F3FEF130781F487E492E06BDE4F
S1130AF08C0127E1209FC001219F900D1124BE018C
S1130B006F5F7F4F8D589C4F57DD85E292E08EDDFD
S1130B104AE0BE016C537F4FC8010E94F00DCE0124
S1130B208C539F4F83DD85E292E080DD88EE93E075
S1130B3028DB81E3B81621F092E3B91641F177C1BD
S1130B4087E1809FF001819FF00D1124ED58FC4F47
S1130B50148A138A128A20916E0330916F03409194
S1130B6070035091710360917203CE018F5B9F4FAC
S1130B703FDB80913B0E882321F081E3F7DD6801A0
S1130B8056C18CDD8FE492E051DD680150C187E1EC
S1130B90809FF001819FF00D1124ED58FC4F82E0FD
S1130BA0848B20916E0330916F03409170035091B8
S1130BB0710360917203CE018A5B9F4F19DB8091B0
S1130BC03B0E882331F127E1209FC001219F900D26
S1130BD0112420916E0330916F0340917003509162
S1130BE07103609172038D589C4F0DDC1816190621
S1130BF064F454DD8AE592E019DD83E08093010218
S1130C0081E080930002780112C182E3AFDD7801B4
S1130C100EC144DD8FE492E009DD780108C107D6F6
S1130C20B82E68E070E0CE0101962FD662E070E045
S1130C308EE692E05BD6CE010196C5DD8C0180ED97
S1130C4097E09FDA8B2DA2DDE1E3BE1629F0F2E3F3
S1130C50BF1609F464C0E7C0CE54DF4FC880C25B3E
S1130C60D04080E3F4DD84E690E08BDA40E3BE011B
S1130C706E547F4FCE018D559F4FF6DDDD24D39406
S1130C80CE54DF4F8881C25BD0408C1101C0D12C7F
S1130C9027E1209FC001219F900D11248D589C4F66
S1130CA049DC91E0811190E0992369F0DD2059F04D
S1130CB087E1809FF001819FF00D1124ED58FC4FD6
S1130CC081E0858B09C087E1809FF001819FF00D51
S1130CD01124ED58FC4F158A27E1209FC001219F64
S1130CE0900D1124FC01ED58FC4F21E0248B209140
S1130CF06E0330916F0340917003509171036091C2
S1130D00720385589C4F74DA88E0809301020F2E99
S1130D10F7E06F2EF02DCC24CA94DC2C88C087E138
S1130D20809FF001819FF00D1124ED58FC4F8589BF
S1130D30882351F087E1809FF001819FF00D1124F9
S1130D40ED58FC4F81E0868B87E1809FF001819F05
S1130D50F00D1124ED58FC4F83E0848B89E08093DF
S1130D6001020F2EF7E06F2EF02DEE24EA94FE2CF4
S1130D705EC05DD5682F70E0CE018D599F4F85D53B
S1130D804424439454C053D5682F70E0CE018D574A
S1130D909F4F7BD5222423944AC049D58133C1F087
S1130DA0823361F1803309F042C041D565E070E0DF
S1130DB0CE018D559F4F69D540E3BE016E547F4FE0
S1130DC0CE018D559F4F50DD262D2E7F622E2FC0D4
S1130DD02ED565E070E0C653DF4F88819981CA5CE7
S1130DE0D04053D541E3BE016E547F4FCE018D55A3
S1130DF09F4F3ADD362D3D7F632E19C018D565E02F
S1130E0070E083EA90E08C0F9D1F0A963ED542E382
S1130E10BE016E547F4FCE018D559F4F25DD862D2B
S1130E208B7F682E04C00F2EF7E06F2EF02D71100B
S1130E30A8C4809170038630D8F480913B0E811150
S1130E4004C080910102873079F0B0DC7724739478
S1130E5098C480913B0E882321F080910102873051
S1130E6031F47CDC712C04C07724739401C0712CA0
S1130E709FEFC916D906C1F120916E0330916F031B
S1130E80409170035091710360917203CE018F5BA6
S1130E909F4FF7D9899740F08091720380FF02C079
S1130EA0889A03C0889801C0889820916E03309175
S1130EB06F03409170035091710360917203CE01EE
S1130EC08F5B9F4FDED9CD9778F081E35FDC87E1BC
S1130ED08C9DF0018D9DF00D1124ED58FC4F83E0A5
S1130EE0848BCC24CA94DC2CEFEFEE16FE06C1F101
S1130EF020916E0330916F03409170035091710300
S1130F0060917203CE018A5B9F4FBBD9899740F0F1
S1130F108091720380FF02C0899A03C0899801C03E
S1130F20899820916E0330916F0340917003509122
S1130F30710360917203CE018A5B9F4FA2D9CD9752
S1130F4078F082E323DC87E18E9DF0018F9DF00D24
S1130F501124ED58FC4F81E0848BEE24EA94FE2C9E
S1130F608091010290E08A30910508F0E0C3FC0111
S1130F708827EC57FF4F8F4F0EC660FE02C080E3F8
S1130F8066DC61FE02C081E362DC62FE02C082E3D1
S1130F905EDC80910002882341F080DB40E060E069
S1130FA081E792E063DB1092000220916E0330919E
S1130FB06F03409170035091710360917203CE01ED
S1130FC0855B9F4F5ED9892B09F451C061E070E0C5
S1130FD080E090E00FDB809170038A3010F480E3AE
S1130FE006DB0EE613E0F80182814AE0BE016C5391
S1130FF07F4F90E0F5D5CE018C539F4F17DB8AE3EA
S1131000F6DAF80183818A3010F480E3F0DA0EE630
S113101013E0F80183814AE0BE016C537F4F90E0F6
S1131020DFD5CE018C539F4F01DB8AE3E0DAF80170
S113103084818A3010F480E3DADA809172034AE022
S1131040BE016C537F4F90E0CBD5CE018C539F4FA4
S1131050EDDA20916E0330916F034091700350914B
S1131060710360917203CE01855B9F4FC1D82091BB
S11310706E0330916F03409170035091710360913E
S11310807203CE018B549F4FFCD8459798F0209162
S11310906E0330916F03409170035091710360911E
S11310A07203CE018B549F4FA3D881E08093010239
S11310B08093000226D5813409F039C382E08093FD
S11310C0010281E08093000232C3809100028823F0
S11310D041F0E4DA41E060E086E192E0C7DA1092A0
S11310E0000220916E0330916F0340917003509180
S11310F0710360917203CE018B549F4FC2D881302B
S1131100910529F120F0029709F441C060C040E044
S113111060E081E892E0AADACE54DF4F9881C25BA6
S1131120D04004E2091B1DEC019F112D11241695DA
S11311301695169580E3810F5ADA110F812F880FC7
S1131140880F180F802F811B805D51DAF0C240E0B8
S113115060E080E992E08ADACD54DF4F9881C35B86
S1131160D04004E2091B1DEC019F112D112416959A
S11311701695169580E3810F3ADA110F812F880FA7
S1131180880F180F802F811B805D31DAD0C240E0B8
S113119060E08FE992E06ADACC54DF4F9881C45B57
S11311A0D04004E2091B1DEC019F112D112416955A
S11311B01695169580E3810F1ADA110F812F880F87
S11311C0880F180F802F811B805D11DAB0C2109236
S11311D0010281E080930002AAC280910002882368
S11311E071F05CDA40E060E08EEA92E03FDA41E0E0
S11311F060E08CEB92E03ADA10920002312C81D458
S11312008F3F09F494C28A32C1F4332081F01FEF76
S1131210130DE0E5F0E0EC0FFD1FE10FF11D10826E
S113122069E0630D41E080E22EDA312E80C2109233
S1131230010281E0809300027AC2833209F04FC038
S1131240F4E03F1274C265961FAE6597CE01805BD1
S11312509F4FDBDA4C010196B1F420DA40E060E004
S113126087EC92E003DA41E060E0CE01805B9F4FBF
S1131270FDD988EE93E00E94C1001092010281E042
S11312808093000254C227E1289DC001299D900D3E
S1131290112420916E0330916F034091700350919B
S11312A07103609172038D589C4FADD8892B79F4EA
S11312B0F5D941E060E086ED92E0D8D981E08093F1
S11312C000021092010288248A94982C30C281E092
S11312D08093000283E080930102312C28C233E022
S11312E0331508F424C2E0E5F0E0EC0FFD1FE30D34
S11312F0F11D80836AE0630D41E0C5D9339417C2C0
S113130080910002882309F466C087E1889DF0017A
S1131310899DF00D1124ED58FC4F85898823F1F047
S113132087E1889DF001899DF00D1124ED58FC4F53
S11313308689882341F081EE92E078D980ED97E0A8
S11313400E94C1000BC0AAD940E060E08DEE92E09B
S11313508DD941E060E089EF92E088D99FD940E0DF
S113136060E086E093E082D927E1289DC001299DB1
S1131370900D112420916E0330916F0340917003FE
S113138050917103609172038D589C4F3CD84AE090
S1131390BE016C537F4F24D4CE018C539F4F46D94A
S11313A041E060E080E193E061D9109200025520B1
S11313B091F08E010B5A1F4F5801A50CB11C61E02E
S11313C070E080E090E016D9F80181918F010FD987
S11313D0A016B106A1F795D38F3F09F4A8C18A32AC
S11313E081F4552009F4A3C15A94E5E5F0E0EC0F2B
S11313F0FD1FE50DF11D108241E0652D80E243D90A
S113140096C18332D9F4F6E05F1291C16C961FAE97
S11314106C9762E070E08DE292E068D287E04AD295
S113142067E070E0CE018B5A9F4F60D281E08093D9
S1131430000285E080930102512C79C1E5E5F0E0DA
S1131440EC0FFD1FE50DF11D808341E0652D1BD9D7
S113145053946DC180910002882341F01FD940E06C
S113146060E087E193E002D910920002442009F47D
S11314705EC114D940E060E0CE018D599F4FF6D88B
S113148088EE93E00E94C10081E08093000266E24E
S113149073E0CE018D599F4F9AD3892B21F410927A
S11314A00102412C44C184E080930102412CC753C2
S11314B0DF4F1882C95CD0403AC180910002882372
S11314C071F0ECD840E060E0CE018D599F4FCED84A
S11314D041E060E086E393E0C9D81092000211D3A2
S11314E08F3F09F424C1833209F043C0C753DF4F4F
S11314F02881C95CD040263009F019C1A3961FAEDB
S1131500A39727E1289DC001299D900D11242091C6
S11315106E0330916F034091700350917103609199
S113152072038D589C4F0E9403024AE0BE016C5323
S11315307F4F56D3CA53DF4F1882C65CD04062E057
S113154070E08DE393E0D2D18AE0B4D167E070E03B
S1131550CE01845A9F4FCAD163E070E0CE018C5310
S11315609F4FC4D186E08093010281E08093000202
S1131570DEC08A32E1F4C753DF4F3881C95CD04002
S1131580332309F4D4C0132F1150ECE5F0E0EC0F31
S1131590FD1FE10FF11D1082632F6B5F41E080E2BC
S11315A072D8C753DF4F1883C95CD040C0C0C7533B
S11315B0DF4F9881C95CD040963008F0B8C0ECE5A4
S11315C0F0E0EC0FFD1FE90FF11D8083692F6A5FC6
S11315D041E08AE258D8C753DF4F3881C95CD04014
S11315E03F5FC753DF4F3883C95CD040A0C08091B0
S11315F00002882341F052D840E060E087E193E0A4
S113160035D810920002222009F491C047D840E056
S113161060E0CE018D579F4F29D888EE93E00E9459
S1131620C10081E08093000266E273E0CE018D5731
S11316309F4FCDD2892B21F410920102212C77C027
S113164060E473E0CE018D579F4FC1D2892BD1F551
S113165027E1289DC001299D900D1124FC01ED581E
S1131660FC4F5F0100916E0310916F032091700392
S1131670309171034091720360E070E0CF010E94E9
S1131680710282E373D81092010281E08093000218
S11316902DB73EB7275131090FB6F8943EBF0FBEA0
S11316A02DBFADB7BEB7119687E1F50101900D923C
S11316B08A95E1F718D90FB6F894DEBF0FBECDBFF7
S11316C0212C35C063E473E0CE018D579F4F7FD248
S11316D0892B21F410920102212C29C062E573E0C8
S11316E0CE018D579F4F73D2892B51F484E08093A0
S11316F00102212CC753DF4F1882C95CD04017C0A8
S113170084E080930102212C12C08091000288237E
S113171071F00E944E0341E064E081E693E00E9490
S1131720360305C01092010202C0109201022091FA
S11317306E0330916F034091700350917103609177
S11317407203CE0186549F4F0E9441018997A0F0F5
S113175062E070E08BE693E0C9D020916E03309193
S11317606F03409170035091710360917203CE0135
S113177086549F4F0E94F80082E390E00E94C100CB
S11317805DC980917003863008F063CB71CBCF9232
S1131790DF92EF92FF920F93CF93DF9300D01F92CB
S11317A01F92CDB7DEB70F2EF3E7EF2EF3E0FF2E37
S11317B0F02D0F2EFBE3CF2EFEE0DF2EF02D00E008
S11317C020E041E061E0CE0101960E94DF00298122
S11317D03A814B815C816D81C7010E94BC0187E124
S11317E0E80EF11CEC14FD0451F70F900F900F90CC
S11317F00F900F90DF91CF910F91FF90EF90DF90BA
S1131800CF90089583E38093C4001092C500109292
S1131810C00088EB8093C100789486E08093C20076
S1131820089580913D0E90913C0E891B08959091EE
S11318303C0E80913D0E981771F0E92FF0E0E25CC8
S1131840F14F80819F5F9F3F19F090933C0E089564
S113185010923C0E089581E090E00E94C1009091A6
S11318603C0E80913D0E981771F0E92FF0E0E25C98
S1131870F14F80819F5F9F3F19F090933C0E089534
S113188010923C0E089580E008950F931F93CF9318
S1131890DF93161617064CF48C01EC01060F171F84
S11318A0C6DF8993C017D107D9F7DF91CF911F9174
S11318B00F91089590913E0FE92FF0E0E15CF04F15
S11318C080839F5F9F3F19F090933E0F02C0109258
S11318D03E0F8091C00085FF08C0E0ECF0E08081FD
S11318E08F7D808380818062808308950F931F930E
S11318F0CF93DF93161617064CF48C01EC01060FF8
S1131900171F8991D7DFC017D107D9F7DF91CF917E
S11319101F910F9108951F920F920FB60F921124E9
S11319200BB60F928F93EF93FF93E0913D0F80914D
S11319303E0FE81781F0F0E0E15CF04F8081809386
S1131940C60080913D0F8F5F8F3F19F080933D0F4C
S113195002C010923D0FFF91EF918F910F900BBE3B
S11319600F900FBE0F901F9018951F920F920FB6F5
S11319700F9211240BB60F928F939F93EF93FF93C3
S113198080913D0E9091C600E82FF0E0E25CF14FAB
S113199090838F5F8F3F19F080933D0E02C01092A9
S11319A03D0EFF91EF919F918F910F900BBE0F9081
S11319B00FBE0F901F901895E0E0F1E080819081B8
S11319C094FF05C083FB882780F9819501C081E0DD
S11319D09091000195FF82E09091000196FF83E0D1
S11319E00895FF920F931F93CF93DF93082FC0E0C6
S11319F010E0D1E0F12CE0DF801711F0CF5F01C0DF
S1131A00C0E08D2FCA3008F48F2D81110CC08D2FAA
S1131A10143608F48F2D811106C01F5F8AE090E010
S1131A200E94C100E8CF8AE090E00E94C100DF91EB
S1131A30CF911F910F91FF900895CF93DF93BCDF57
S1131A40D82F8F3F79F0CAE0B7DFD8130DC0C1504B
S1131A5021F48D2FC6DF8D2F08C08AE090E00E940C
S1131A60C100F2CF8FEF01C08FEFDF91CF910895C6
S1131A708130B1F028F0823019F1833089F13FC010
S1131A80613041F028F0623039F0633039F037C00A
S1131A9091E335C092E333C093E331C091E42FC0A6
S1131AA0613041F028F0623039F0633039F027C0FA
S1131AB094E325C095E323C096E321C092E41FC0BC
S1131AC0613041F028F0623039F0633039F017C0EA
S1131AD097E315C098E313C099E311C093E40FC0D2
S1131AE0613041F028F0623039F0633039F007C0DA
S1131AF09AE205C090E303C093E201C094E4892F05
S1131B000895E1E0F1E0808187788083E2E0F1E00C
S1131B1080818867808384B18F6084B9289885B177
S1131B208E6085B98ADF8F3F19F060E0A1CF0895F8
S1131B30299885B18D6085B980DF8F3F19F061E008
S1131B4097CF08952A9885B18B6085B976DF8F3F4A
S1131B5019F062E08DCF08952B9885B1876085B91F
S1131B606CDF8F3F19F063E083CF08958FEF089502
S1131B7097FB072E16F4009406D077FD08D013D0F7
S1131B8007FC05D03EF4909581959F4F089570957C
S1131B9061957F4F0895EE0FFF1F881F8BBF07903D
S1131BA0F691E02D1994AA1BBB1B51E107C0AA1F93
S1131BB0BB1FA617B70710F0A61BB70B881F991FEA
S1131BC05A95A9F780959095BC01CD010895FB0124
S1131BD0DC018D91019080190110D9F3990B0895BE
S1131BE0BB274A3031F4992322F4BDE290958195C4
S1131BF09F4F01C0BB27FB015527AA27880F991FB8
S1131C00AA1FA41710F0A41B83955051B9F7A05D27
S1131C10AA3308F0A95DA193009779F7B111B193A4
S1131C201192CB0100C0DC01FC01672F7191772375
S1131C30E1F7329704C07C916D9370836291AE1783
S10D1C40BF07C8F30895F894FFCF1E
S1131C4A0107646966664D696E0063616C63756C4D
S1131C5A615067746F00202020202020202020203B
S1131C6A202020202020004541004546004543000D
S1131C7A454D0045490061616161004542004544A2
S1131C8A00454800454E00232323232323230044ED
S1131C9A65736C696761646F21005265616C697A66
S1131CAA65206F20506167616D656E746F004553DE
S1131CBA004573746163696F6E614D6963726F7312
S1131CCA0056616761732054657272656F3A200029
S1131CDA5661676173203220616E6461723A0056FC
S1131CEA61676173203320616E6461723A004EBA8F
S1131CFA20706C6163612070617261005061676178
S1131D0A6D656E746F3A00506C616361206573741B
S1131D1A72616E68610045737461205061676F2156
S1131D2A005265696E636964656E7465005661671D
S1131D3A6120496C6567616C0070726F78203D2080
S1131D4A4D554C544100506167756520522420005A
S1131D5A43415254414F0045737065726120526584
S1131D6A73702E2E2E0043617274616F20496E7651
S1131D7A616C69646F0053656E68613A004550008E
S1131D8A4F4B0053616C646F20496E76616C6964D1
S1131D9A6F0053656E686120496E76616C6964618F
S1111DAA004465736C696761646F00454F0007
S9030000FC
