:100000008EC00000BCC00000BAC00000B8C0000034
:10001000B6C00000B4C00000B2C00000B0C0000014
:10002000AEC00000ACC00000AAC00000A8C0000024
:10003000A6C00000A4C00000A2C00000A0C0000034
:100040009EC000009CC000009AC0000098C0000044
:1000500028C3000094C0000092C0000090C00000BF
:100060008EC000000C94A10B0C94770B88C000008C
:1000700086C0000084C0000082C0000080C0000074
:100080007EC000007CC000007AC0000078C0000084
:1000900076C0000074C0000072C0000070C0000094
:1000A0006EC000006CC000006AC0000068C00000A4
:1000B00066C0000064C0000062C0000060C00000B4
:1000C0005EC000005CC000005AC0000058C00000C4
:1000D00056C0000054C0000052C0000050C00000D4
:1000E0004EC00000ED046406F404C206C206C20657
:1000F000FB04C206C206C206C20678060C05C2068A
:100100006E06C206C206BD05680707088F086709A4
:100110003809E409730A7E0A810A8B03B30A1124A1
:100120001FBECFEFD1E2DEBFCDBF00E00CBF13E0BA
:10013000A0E0B2E0E2E2FAE100E00BBF02C007900B
:100140000D92AC33B107D9F720E1ACE3B3E001C0C5
:100150001D92AC30B207E1F710E0CFE8D0E000E04C
:1001600006C021970109802FFE010E94B70CCD38EF
:10017000D10780E00807A9F7A2D30C940F0D40CF58
:1001800016BC23E025BD22E024BD29EF27BD009742
:1001900029F0A99BFECFA99A0197D9F7089516BC1B
:1001A00021E025BD22E024BD2FE027BD009729F0E6
:1001B000A99BFECFA99A0197D9F708950F93FC0147
:1001C000608341832283038314820F910895FC018D
:1001D000DB018C91808311968C911197818312960B
:1001E0008C911297828313968C9183830895CF9379
:1001F000DF9300D01F921F92CDB7DEB7FC012083A2
:1002000031834283538364830F900F900F900F903C
:100210000F90DF91CF9108950F931F93CF93DF93AA
:1002200000D01F921F92CDB7DEB7242F30E0FC0123
:100230004281241B31094CE3429F8001439F100DF2
:100240001124252F30E08381A901481B5109040F97
:10025000151F68E070E082E092E00E94620B802F40
:100260000E94460B8AE00E94460BC8010F900F9037
:100270000F900F900F90DF91CF911F910F910895E4
:10028000CF93DF9300D01F921F92CDB7DEB7FC0152
:10029000242F30E08281281B3109A0E1BEE02A9F93
:1002A000C0012B9F900D3A9F900D1124252F30E017
:1002B0004381241B31097CE3729FA001739F500D81
:1002C0001124840F951F70E02481621B7109860F31
:1002D000971F0F900F900F900F900F90DF91CF917D
:1002E0000895FC018481680F64836C3378F089E899
:1002F000689F812D11248295869587709381980F30
:1003000093832CE3829F60191124648383818C334F
:1003100078F099E8899F912D112492959695977080
:100320002281290F22832CE3929F80191124838339
:100330008281883170F09BEA899F912D11249295DA
:100340009F702081290F208328E1929F801911241A
:10035000828380818E3170F099E8899F912D1124DC
:1003600092959F702181290F21832EE1929F801900
:10037000112480830895CF93DF9300D01F921F92A2
:10038000CDB7DEB7DC0129833A834B835C836D8371
:1003900081E01D968C931D971E968C931E971F9639
:1003A0001C921F9750961C92509751961C925197F1
:1003B00053961C921E92529755961C92559756969C
:1003C0001C92569783E054968C935497FD019D019F
:1003D000295F3F4F83E28193E217F307E1F7179616
:1003E0001C92179785E0FE013196189601900D92A8
:1003F0008A95E1F70F900F900F900F900F90DF917B
:10040000CF910895EF92FF920F931F93CF93DF93B5
:1004100000D01F921F92CDB7DEB77C0129833A83AB
:100420004B835C836D83C7010896F6DE9C018031A7
:100430009105ECF08D33910544F4F701828993899D
:100440000AE010E0081B190B14C0CC976EE170E0B5
:100450000E94A40C8B01000F111F000F111F025FDF
:100460001F4FF70182899389081B190B02C000E016
:1004700010E0F7018589882371F08689882359F077
:10048000C9016EE170E00E94A40C6F5F7F4F660FA0
:10049000771F060F171F29813A814B815C816D817F
:1004A000C7010D96B9DE409714F400E010E06DE04E
:1004B00070E08AE092E00E94620B802F0E94460B5F
:1004C0008AE00E94460BC8010F900F900F900F908A
:1004D0000F90DF91CF911F910F91FF90EF900895B2
:1004E0000F931F93CF93DF9300D01F921F92CDB72E
:1004F000DEB7FC0109831A832B833C834D831616D8
:1005000017063CF49C81842F058716872787908BDC
:10051000818B82899389860F971F938B828B0F9093
:100520000F900F900F900F90DF91CF911F910F912F
:100530000895FC018081893449F48181843441F437
:1005400081E09281953429F080E0089580E008955B
:1005500080E00895FB013081FC01208132130FC03F
:10056000FB013196DC011196695F7F4F91918D916E
:10057000981307C0E617F707C9F781E0089580E0F0
:10058000089580E00895CF93DF93EC01FB01DC0137
:100590009B01295F3F4F91919D93E217F307D9F794
:1005A0001F82DF91CF910895469A82B9469888E2DA
:1005B00090E0F5CD08954798F7CF0895479AF4CF86
:1005C00008950F931F93CF93DF938C01EB0180E885
:1005D000F2DF219711F480ECEEDF0115110541F0F7
:1005E000C0E0D0E084E1E7DF2196C017D107D1F762
:1005F000DF91CF911F910F9108950F931F93CF9388
:10060000DF93EC01FC01319620E030E02F5F3F4F9B
:1006100091919111FBCF2115310551F08E01C20F3F
:10062000D31FF80181918F01C9DF0C171D07C9F78E
:10063000DF91CF911F910F910895CF93DF93EC013C
:10064000862F642F70E090E0BCDFCE01D6DFDF9113
:10065000CF910895CF93C82F862F642F70E090E03C
:10066000B0DF8C2FABDFCF91089540E060E086E1F2
:1006700092E0E3DF41E060E086E192E0DEDF60E00F
:1006800070E080E090E09DCF08958FEF81B93E9AB1
:100690003F9A88E390DF8EE08EDF86E08CDFE5CF47
:1006A00008951F920F920FB60F9211240BB60F925E
:1006B0002F933F934F935F936F937F938F939F936A
:1006C000AF93BF93EF93FF938CED9BE090938500E6
:1006D0008093840061E08CE393E003DEFF91EF916F
:1006E000BF91AF919F918F917F916F915F914F914A
:1006F0003F912F910F900BBE0F900FBE0F901F9048
:10070000189581E080936F0078941092800084E0C7
:100710008093810008950F9300E026E041E061E0BE
:100720008CE393E04BDD0F9108951092010281E07C
:10073000809300028093090E0895CF93C82F62E042
:1007400070E087E292E0BED78C2FA0D782E090E0E5
:1007500017DDCF910895CF93C82F62E070E08AE251
:1007600092E0B0D78C2F92D782E090E009DDCF9154
:10077000089581E3F0DF82E3EEDF86E080930102FB
:1007800081E0809300021092090E0895EF92FF928B
:100790000F931F93CF93DF937C0101E413E0C0E03C
:1007A000D0E0B701C801D6DE811109C02196095EEB
:1007B0001F4FC837D105A9F78FEF9FEF02C08C2FCD
:1007C0009D2FDF91CF911F910F91FF90EF90089592
:1007D000CF93C82F62E070E080E392E073D78C2F54
:1007E00055D7CF910895CF93DF93FC01413329F082
:1007F000423321F14033C9F41FC091E020C0ED9194
:10080000F0E020E030E0AF01022E02C055954795A0
:100810000A94E2F740FD8F5F2F5F3F4F283031058C
:1008200091F7AC17BD0759F702C09FEF80E0FB01BD
:10083000E90FF11D808313C090E001C092E0292FE1
:1008400030E0D901AA0FBB1FAA0FBB1F2A0F3B1F05
:10085000DF01A20FB31FED01259680E0D0CFDF911D
:10086000CF910895CF93DF9300D01F92CDB7DEB71D
:1008700062E070E083E392E025D780E007D780E173
:1008800005D768E070E0CE010A961CD74AE0BE01A9
:100890006F5F7F4F8C8D9D8D0E94DC0C64E070E05B
:1008A000CE0101960FD764E070E086E392E00AD7AC
:1008B0000F900F900F900F90DF91CF910895CF93ED
:1008C000DF93CDB7DEB7C55CD1090FB6F894DEBFB4
:1008D0000FBECDBF00E020E041E061E0CE018F5BC4
:1008E0009F4F6CDC20E041E061E0CE018A5B9F4FCE
:1008F00065DC20E041E061E0CE01855B9F4F5EDC7E
:10090000FE01E256FF4FCF010F9610821182128234
:10091000138214823596E817F907B9F7C355DF4FEC
:100920001882CD5AD040C255DF4F1882CE5AD040DF
:10093000C155DF4F1882CF5AD04000E020E041E09F
:1009400061E0CE0180559F4F39DC20E041E061E05D
:10095000CE018B549F4F32DC20E041E061E0CE01BC
:1009600086549F4F2BDC279A809A819A829A81B372
:10097000887F81BB33D689DEC4DE0F2EF7E0EF2EF1
:10098000F02D212C612CF12C312C712CCC24CA940B
:10099000DC2CAA24AA94BA2C8EE990E08C0F9D1F1F
:1009A0000596CC53DF4F99838883C45CD04025D60D
:1009B000882309F4E7C127D6833509F0E3C123D69C
:1009C00090E0FC01E254F109E231F10508F0DAC1EE
:1009D0008827EE58FF4F8F4FCAC762E070E08BE365
:1009E00092E070D6C6DECEC162E070E08EE392E0A7
:1009F00069D69BDEC7C164E070E0CE01019631D6B6
:100A0000BE016F5F7F4F8CE393E0E1DB62E070E05B
:100A100081E492E057D6B6C1F6D5182F68E070E0B1
:100A2000CE0101961ED662E070E084E492E04AD6E0
:100A300040E060E0CE01019600DECE010196A6DE28
:100A40002C0185E292E0D9DD9FEF4916590681F429
:100A500087E492E09BDE2C0127E1249DC001259DC7
:100A6000900D1124BE016F5F7F4F8F5B9C4F8BDD1C
:100A700085E292E0C2DD4AE0BE0161547F4FC201CF
:100A80009BD7CE0181549F4FB8DD85E292E0B5DD62
:100A900088EE93E075DB113319F0123331F172C136
:100AA00087E1849DF001859DF00D1124EF5BFC4FE3
:100AB000148A20913C0330913D0340913E035091B4
:100AC0003F0360914003CE018F5B9F4F90DB80918D
:100AD000090E882321F081E330DE520153C1C5DDC8
:100AE0008FE492E08ADD52014DC187E1849DF001DF
:100AF000859DF00D1124EF5BFC4F82E0848B2091EB
:100B00003C0330913D0340913E0350913F0360917F
:100B10004003CE018A5B9F4F6ADB8091090E8823D8
:100B200031F127E1249DC001259D900D11242091D4
:100B30003C0330913D0340913E0350913F0360914F
:100B400040038F5B9C4F5EDC1816190664F48DDD44
:100B50008AE592E052DD82E08093010281E0809399
:100B6000000262010FC182E3E8DD62010BC17DDD9D
:100B70008FE492E042DD620105C145D5182F68E09F
:100B800070E0CE0101966DD562E070E08EE692E0F5
:100B900099D5CE010196FADD2C0180ED97E0F0DACF
:100BA000812FD9DD113321F0123309F463C0E6C07F
:100BB000C355DF4F0881CD5AD04080E309DE84E67B
:100BC00090E0DEDA40E3BE0163557F4FCE018256EE
:100BD0009F4F09DE11E0C355DF4F8881CD5AD040C9
:100BE000801301C010E027E1249DC001259D900DD8
:100BF00011248F5B9C4F9DDC91E0811190E0992343
:100C000069F0112359F087E1849DF001859DF00D75
:100C10001124EF5BFC4F81E0858B09C087E1849D47
:100C2000F001859DF00D1124EF5BFC4F158A27E143
:100C3000249DC001259D900D1124FC01EF5BFC4F0C
:100C400021E0248B20913C0330913D0340913E03F1
:100C500050913F0360914003875B9C4FC8DA87E067
:100C6000809301020F2EF7E0EF2EF02DAA24AA9414
:100C7000BA2C88C087E1849DF001859DF00D112478
:100C8000EF5BFC4F8589882351F087E1849DF0015B
:100C9000859DF00D1124EF5BFC4F81E0868B87E191
:100CA000849DF001859DF00D1124EF5BFC4F83E0E6
:100CB000848B88E0809301020F2EF7E0EF2EF02D59
:100CC000CC24CA94DC2C5EC09ED4682F70E0CE0188
:100CD000825A9F4FC6D46624639454C094D4682F1C
:100CE00070E0CE0182589F4FBCD4222423944AC086
:100CF0008AD48133C1F0823361F1803309F042C07C
:100D000082D465E070E0CE0182569F4FAAD440E3C2
:100D1000BE0163557F4FCE0182569F4F64DDEE2D9D
:100D2000EE7FEE2E2FC06FD465E070E0CC53DF4F26
:100D300088819981C45CD04094D441E3BE0163555D
:100D40007F4FCE0182569F4F4EDDFE2DFD7FEF2E51
:100D500019C059D465E070E08EE990E08C0F9D1FBA
:100D60000A967FD442E3BE0163557F4FCE0182567F
:100D70009F4F39DD8E2D8B7FE82E04C00F2EF7E0BC
:100D8000EF2EF02DF110E9C380913E038630D8F4A8
:100D90008091090E811104C080910102863079F0A2
:100DA000E8DCFF24F394D9C38091090E882321F055
:100DB00080910102863031F4B8DCF12C04C0FF24AC
:100DC000F39401C0F12C9FEFA916B906C1F120914F
:100DD0003C0330913D0340913E0350913F036091AD
:100DE0004003CE018F5B9F4F4BDA0B9740F0809111
:100DF000400380FF02C0889A03C0889801C0889889
:100E000020913C0330913D0340913E0350913F03BC
:100E100060914003CE018F5B9F4F32DA459778F0A7
:100E200081E399DC87E18A9DF0018B9DF00D11240F
:100E3000EF5BFC4F83E0848BAA24AA94BA2CEFEFDB
:100E4000CE16DE06C1F120913C0330913D03409166
:100E50003E0350913F0360914003CE018A5B9F4F58
:100E60000FDA899740F08091400380FF02C0899A91
:100E700003C0899801C0899820913C0330913D03BB
:100E800040913E0350913F0360914003CE018A5B45
:100E90009F4FF6D9CD9778F082E35DDC87E18C9D9A
:100EA000F0018D9DF00D1124EF5BFC4F81E0848BF0
:100EB000CC24CA94DC2C8091010290E08930910509
:100EC00008F021C3FC018827EC57FF4F8F4F4FC517
:100ED000E0FE02C080E37CDCE1FE02C081E378DC5E
:100EE000E2FE02C082E374DC80910002882341F0BC
:100EF000BCDB40E060E081E792E09FDB1092000203
:100F000020913C0330913D0340913E0350913F03BB
:100F100060914003CE01855B9F4FB2D9892B09F4C4
:100F200051C061E070E080E090E04BDB80913E03D7
:100F30008A3010F480E342DB0CE313E0F801828195
:100F40004AE0BE0161547F4F90E036D5CE01815416
:100F50009F4F53DB8AE332DBF80183818A3010F440
:100F600080E32CDB0CE313E0F80183814AE0BE014F
:100F700061547F4F90E020D5CE0181549F4F3DDBDF
:100F80008AE31CDBF80184818A3010F480E316DBED
:100F9000809140034AE0BE0161547F4F90E00CD540
:100FA000CE0181549F4F29DB20913C0330913D03BA
:100FB00040913E0350913F0360914003CE01855B19
:100FC0009F4F15D920913C0330913D0340913E0342
:100FD00050913F0360914003CE0180559F4F50D9FF
:100FE000409708F490C220913C0330913D0340911A
:100FF0003E0350913F0360914003CE0180559F4FC7
:10100000F6D881E080930102809300027CC2809137
:101010000002882341F029DB41E060E086E192E0B4
:101020000CDB1092000220913C0330913D03409173
:101030003E0350913F0360914003CE0180559F4F86
:101040001FD98230910529F120F0039709F441C09E
:1010500060C040E060E081E892E0EFDAC355DF4F26
:101060009881CD5AD04004E2091B1DEC019F112D3F
:10107000112416951695169580E3810F9FDA110FAE
:10108000812F880F880F180F802F811B805D96DAC3
:101090003AC240E060E080E992E0CFDAC255DF4F2B
:1010A0009881CE5AD04004E2091B1DEC019F112DFE
:1010B000112416951695169580E3810F7FDA110F8E
:1010C000812F880F880F180F802F811B805D76DAA3
:1010D0001AC240E060E08FE992E0AFDAC155DF4F1D
:1010E0009881CF5AD04004E2091B1DEC019F112DBD
:1010F000112416951695169580E3810F5FDA110F6E
:10110000812F880F880F180F802F811B805D56DA82
:10111000FAC11092010281E080930002F4C1809133
:101120000002882309F465C087E18C9DF0018D9D44
:10113000F00D1124EF5BFC4F85898823E9F087E1EE
:101140008C9DF0018D9DF00D1124EF5BFC4F868985
:10115000882339F08EEA92E050DA80ED97E010D8DB
:101160000BC083DA40E060E08AEB92E066DA41E0AF
:1011700060E086EC92E061DA78DA40E060E083EDEE
:1011800092E05BDA27E12C9DC0012D9D900D11248A
:1011900020913C0330913D0340913E0350913F0329
:1011A000609140038F5B9C4F2DD94AE0BE01615492
:1011B0007F4F02D4CE0181549F4F1FDA41E060E09F
:1011C0008DED92E03ADA10920002772091F08E01D4
:1011D000005B1F4F4801870C911C61E070E080E0CC
:1011E00090E0EFD9F80181918F01E8D9801691063E
:1011F000A1F773D38F3F09F486C18A3281F4772037
:1012000009F481C17A94E0E5F0E0EC0FFD1FE70DF1
:10121000F11D108241E0672D80E21CDA74C1833237
:10122000D9F4F6E07F126FC167961FAE679762E050
:1012300070E08DE292E046D287E028D267E070E06D
:10124000CE01805B9F4F3ED281E08093000284E01C
:1012500080930102712C57C1E0E5F0E0EC0FFD1F17
:10126000E70DF11D808341E0672DF4D973944BC1E4
:1012700080910002882341F0F8D940E060E084EEDC
:1012800092E0DBD910920002662009F43CC1EDD94E
:1012900040E060E0CE01825A9F4FCFD988EE93E0C4
:1012A0000E94C00081E08093000263EF72E0CE01F3
:1012B000825A9F4F78D3892B21F410920102612C1E
:1012C00022C183E080930102612C312C1CC18091EA
:1012D0000002882371F0C9D940E060E0CE01825A53
:1012E0009F4FABD941E060E083E093E0A6D9109234
:1012F0000002F3D28F3F09F406C1833209F03DC0EA
:1013000086E0381200C16E961FAE6E9727E12C9DC5
:10131000C0012D9D900D112420913C0330913D037F
:1013200040913E0350913F03609140038F5B9C4F7F
:1013300069D84AE0BE0161547F4F3ED3CF53DF4F9F
:101340001882C15CD04062E070E08AE093E0BAD1DC
:101350008AE09CD167E070E0CE01895A9F4FB2D1FC
:1013600063E070E0CE0181549F4FACD185E0809363
:10137000010281E080930002C6C08A3299F43320D2
:1013800009F4C1C01FEF130DE7E5F0E0EC0FFD1FFE
:10139000E10FF11D108265E0630D41E080E25AD952
:1013A000312EB1C095E0931508F4ADC0E7E5F0E04B
:1013B000EC0FFD1FE30DF11D808366E0630D41E03E
:1013C0008AE248D933949FC080910002882341F07B
:1013D0004CD940E060E084EE92E02FD910920002F8
:1013E000222009F490C041D940E060E0CE0182584B
:1013F0009F4F23D988EE93E00E94C00081E0809344
:10140000000263EF72E0CE0182589F4FCCD2892B4D
:1014100021F410920102212C76C06DE073E0CE0120
:1014200082589F4FC0D2892B09F03EC00F2EF7E1A2
:101430009F2EF02D9C9CC0019D9C900D112400912D
:101440003C0310913D0320913E0330913F034091B6
:10145000400360E070E08F5B9C4F42D882E36DD91F
:101460001092010281E080930002949CF001959C0F
:10147000F00D1124EF5BFC4F8DB79EB747970FB669
:10148000F8949EBF0FBE8DBFADB7BEB7119687E172
:1014900001900D928A95E1F7E5D90FB6F894DEBF79
:1014A0000FBECDBF212C2FC060E173E0CE0182586A
:1014B0009F4F79D2892B21F410920102212C23C055
:1014C0006FE173E0CE0182589F4F6DD2892B31F4CA
:1014D00083E080930102212C312C15C083E080939E
:1014E0000102212C10C080910002882361F0BDD838
:1014F00041E064E08EE293E0A0D805C010920102C2
:1015000002C01092010220913C0330913D034091B2
:101510003E0350913F0360914003CE018B549F4F97
:101520000E9440018997A0F062E070E088E393E0B8
:10153000C9D020913C0330913D0340913E0350912E
:101540003F0360914003CE018B549F4F0E94F700F0
:1015500082E390E00E94C0002ACA80913E03863058
:1015600008F022CC30CCCF92DF92EF92FF920F9313
:10157000CF93DF9300D01F921F92CDB7DEB70F2E0F
:10158000F1E4EF2EF3E0FF2EF02D0F2EF9E0CF2E39
:10159000FEE0DF2EF02D00E020E041E061E0CE0132
:1015A00001960E94DE0029813A814B815C816D8128
:1015B000C7010E94BB0187E1E80EF11CEC14FD0499
:1015C00051F70F900F900F900F900F90DF91CF91E8
:1015D0000F91FF90EF90DF90CF90089583E3809379
:1015E000C4001092C5001092C00088EB8093C10027
:1015F000789486E08093C200089580910B0E9091BC
:101600000A0E891B089590910A0E80910B0E98176F
:1016100071F0E92FF0E0E45FF14F80819F5F9F3F21
:1016200019F090930A0E089510920A0E089581E021
:1016300090E00E94C00090910A0E80910B0E9817C6
:1016400071F0E92FF0E0E45FF14F80819F5F9F3FF1
:1016500019F090930A0E089510920A0E089580E0F2
:1016600008950F931F93CF93DF93161617064CF42C
:101670008C01EC01060F171FC6DF8993C017D10735
:10168000D9F7DF91CF911F910F91089590910C0F91
:10169000E92FF0E0E35FF04F80839F5F9F3F19F0F9
:1016A00090930C0F02C010920C0F8091C00085FF28
:1016B00008C0E0ECF0E080818F7D808380818062D3
:1016C000808308950F931F93CF93DF931616170609
:1016D0004CF48C01EC01060F171F8991D7DFC0175E
:1016E000D107D9F7DF91CF911F910F9108951F92E4
:1016F0000F920FB60F9211240BB60F928F93EF93A8
:10170000FF93E0910B0F80910C0FE81781F0F0E050
:10171000E35FF04F80818093C60080910B0F8F5F55
:101720008F3F19F080930B0F02C010920B0FFF91A7
:10173000EF918F910F900BBE0F900FBE0F901F90E7
:1017400018951F920F920FB60F9211240BB60F929D
:101750008F939F93EF93FF9380910B0E9091C60010
:10176000E82FF0E0E45FF14F90838F5F8F3F19F037
:1017700080930B0E02C010920B0EFF91EF919F9180
:101780008F910F900BBE0F900FBE0F901F9018956A
:10179000E0E0F1E08081908194FF05C083FB882721
:1017A00080F9819501C081E09091000195FF82E070
:1017B0009091000196FF83E00895FF920F931F938D
:1017C000CF93DF93082FC0E010E0D1E0F12CE0DFF1
:1017D000801711F0CF5F01C0C0E08D2FCA3008F430
:1017E0008F2D81110CC08D2F143608F48F2D81118F
:1017F00006C01F5F8AE090E00E94C000E8CF8AE048
:1018000090E00E94C000DF91CF911F910F91FF9057
:101810000895CF93DF93BCDFD82F8F3F79F0CAE0D4
:10182000B7DFD8130DC0C15021F48D2FC6DF8D2F27
:1018300008C08AE090E00E94C000F2CF8FEF01C0A4
:101840008FEFDF91CF9108958130B1F028F0823091
:1018500019F1833089F13FC0613041F028F06230E6
:1018600039F0633039F037C091E335C092E333C0CB
:1018700093E331C091E42FC0613041F028F0623031
:1018800039F0633039F027C094E325C095E323C0D5
:1018900096E321C092E41FC0613041F028F062302D
:1018A00039F0633039F017C097E315C098E313C0DF
:1018B00099E311C093E40FC0613041F028F0623029
:1018C00039F0633039F007C09AE205C090E303C0F5
:1018D00093E201C094E4892F0895E1E0F1E0808172
:1018E00087788083E2E0F1E080818867808384B13B
:1018F0008F6084B9289885B18E6085B98ADF8F3F63
:1019000019F060E0A1CF0895299885B18D6085B95F
:1019100080DF8F3F19F061E097CF08952A9885B155
:101920008B6085B976DF8F3F19F062E08DCF089527
:101930002B9885B1876085B96CDF8F3F19F063E024
:1019400083CF08958FEF089597FB072E16F4009428
:1019500006D077FD08D013D007FC05D03EF4909553
:1019600081959F4F0895709561957F4F0895EE0F73
:10197000FF1F881F8BBF0790F691E02D1994AA1BBB
:10198000BB1B51E107C0AA1FBB1FA617B70710F06A
:10199000A61BB70B881F991F5A95A9F7809590959C
:1019A000BC01CD010895FB01DC018D9101908019EE
:1019B0000110D9F3990B0895BB274A3031F49923CC
:1019C00022F4BDE2909581959F4F01C0BB27FB019A
:1019D0005527AA27880F991FAA1FA41710F0A41B28
:1019E00083955051B9F7A05DAA3308F0A95DA19382
:1019F000009779F7B111B1931192CB0100C0DC01CE
:101A0000FC01672F71917723E1F7329704C07C9135
:101A10006D9370836291AE17BF07C8F30895F89471
:021A2000FFCFF6
:101A22000106646966664D696E0063616C63756C7C
:101A3200615067746F002020202020202020202069
:101A4200202020202020004541004546004543003B
:101A5200454D0045490061616161004542004544D0
:101A620000454800454E002323232323232300441B
:101A720065736C696761646F21005265616C697A94
:101A820065206F20506167616D656E746F0045530C
:101A9200004573746163696F6E614D6963726F7340
:101AA2000056616761732054657272656F3A200057
:101AB2005661676173203120616E6461723A00562B
:101AC20061676173203220616E6461723A0052650F
:101AD200696E636964656E74650056616761204969
:101AE2006C6567616C0070726F78203D204D554CBB
:101AF20054410050616775652052242000434152D1
:101B020054414F0045737065726120526573702EA7
:101B12002E2E0043617274616F20496E76616C698A
:101B2200646F0053656E68613A004550004F4B0088
:101B320053616C646F20496E76616C69646F005307
:101B4200656E686120496E76616C69646100446506
:0C1B5200736C696761646F00454F000010
:00000001FF
